:06000000000080310E2813
:10000800803120007F08F00090310428700820001B
:10001800FF00090020000308A00080311328FC011C
:100028002200EC01ED01EE01A030840001308500D2
:1000380033308731F427200080312228210095139E
:10004800083024008C0021009801FC309900903081
:1000580027009B002300DD01E001E101E5011030EC
:10006800D3005308E2006208920065089100151356
:1000780015140000000023001408D300D40153080D
:10008800DE005408DF000830DE35DF0D890B482814
:100098001308D300D4015308DE075408DF3D0130AC
:1000A800D3005308E507E508031D62280130D30093
:1000B8005308E2076208203A03199928E3010E3031
:1000C80063020318372801305E05D30000305F054E
:1000D800D40001306005D50000306105D600530812
:1000E8005506D70054085606D8005808570403196F
:1000F8008A286108D4006008D300D436D30CB13004
:100108005306E00023305406E1008F280130E13621
:10011800E00C890B8B280130DF36DE0C890B902828
:100128000130D3005308E307632820008C1DAA2858
:10013800230061085F06031DA32860085E06031DEF
:10014800AA282000201EAA2823005D142100951744
:1001580024008C0123005D1CB328903100285C30FA
:100168002300D3005308C6007D30D3005308C100D4
:100178007A30D3005308C200BD01BC018431382451
:100188008031833141238031203022006C02031CEE
:10019800C5283D008E18C52823003D080319E1280D
:1001A8003D0886008701010D010D0139D300D401F6
:1001B8005308D9005408DA00E328D901DA015A08AB
:1001C8005904031DC528E4013C080319F8283C0814
:1001D80086008701010D010D0139D300D4015308B0
:1001E800DB005408DC00FA28DB01DC015C085B0456
:1001F800031DE029210020082300D3006408203EC5
:10020800860001308700530881000130D30053086D
:10021800E407210021082300D3006408203E86005B
:1002280001308700530881000130D3005308E407E8
:10023800210022082300D3006408203E86000130F4
:100248008700530881000130D3005308E4072100D8
:1002580021082300D3005308E200210022082300CC
:10026800D3005308E5000030210020190130230095
:10027800D300D30ED30DD30D15085306BF3953063B
:100288009500CB2923006208920065089100151497
:100298000000000023001408D3006408203E8600F4
:1002A80001308700530881000130D3005308E40768
:1002B8001308D3006408203E8600013087005308E5
:1002C80081000130D3005308E4070130D3005308FC
:1002D800E507E508031D74290130D3005308E20738
:1002E800233064020318E02946292300620892009B
:1002F800650891001516151555309600AA30960018
:100308009514000000002300C92923006208920008
:10031800650891001512951615150330D30053087A
:10032800E3006308A03E86008701010894000130BD
:10033800D3005308E3076308A03E8600870101083D
:1003480093000130D3005308E30723306302031CF2
:10035800151B951255309600AA309600951400008A
:100368000000233023006302031C151BC929013038
:10037800D3005308E507E508031DC6290130D3005B
:100388005308E2076508910095291511E029210015
:100398002008803A03194629013A03197929033AB2
:1003A80003198929063A03194629013A03197929B3
:1003B800033A03198929E029230064080319F62957
:1003C800F101F10A2030F2000130F3004030D3008F
:1003D8005308F40001308D311F2580312300D400EB
:1003E8005408BC00F101A030F2000030F3004030A6
:1003F800D3005308F40001308D311F2580312300CC
:10040800D4005408BD00C52820006208013A031D25
:100418001F2A60081F390038031D1F2A2300CA1726
:1004280020006108033A031D1D2A2300B701B70AFB
:100438001F2A2300B70120006208031D0800600876
:100448001F39023A031D080064080F39003A0319DE
:10045800080064080F392100EB0004306B02031810
:10046800080022006C08203A031D08002300CA1760
:100478002000E41B502A64080F39B23E8600013080
:10048800870001082100EB006B082200E300200030
:1004980064080F39AA3E612A200064080F39AE3E6D
:1004A80086000130870001082100EB006B0822005C
:1004B800E300200064080F39A63E8600013087005B
:1004C80001082100EB006B082200E2006218732A81
:1004D800FB302100EB006B082200E305742A63154A
:1004E8002000E41B802A220063082100EB00200082
:1004F80064080F39B23E882A220063082100EB0005
:10050800200064080F39AE3E8600013087002100C4
:100518006B08810020006108033A031DB22A2200FB
:10052800630886008701811FA72A2000E41BA02AF0
:1005380064080F39AA3EA32A64080F39A63E86002C
:1005480001308700811484302100EB002200630809
:100558008600870121006B0881040800043021000F
:10056800EB006B082200E306630886008701811F01
:10057800DF2A7F302100EB00220063088600870114
:1005880021006B0881052200630886008701011796
:1005980005302100E3000030E40022006308210058
:1005A800E5000030E6000130E7000030E8008C315B
:1005B80044248231E42A2200630886008701011757
:1005C80004302100EB006B082200E306E218F12A50
:1005D800630886008701811F1B2B2000E41BF82A73
:1005E80064080F39AA3EFB2A64080F39A63E860024
:1005F8000130870081103B302100EB0022006308A6
:100608008600870121006B0881050530E300003072
:10061800E400220063082100E5000030E600013014
:10062800E7000030E8008C3144248231252B3B3030
:100638002100EB00220063088600870121006B0877
:100648008105200064080F39983E2100EB00EC0179
:100658000E30EC3D6B082200E00021006C082200FF
:10066800E100FE302100EB002200600886006108EE
:10067800870021006B08810508002200EC08031D93
:10068800552B3D008E019201163091009F30970046
:100698007B3092008E19522B8E154E2B2200EC01C6
:1006A800EC0A6C08013A031D652B3D008E1A652B78
:1006B800900192011214121602302200E900690812
:1006C800EC003D001019121D722BFB302200E900CE
:1006D80069083D0090058B31AB2383313D008E1CAA
:1006E800782B2000121108001018121C882B843156
:1006F8003824833104302200E9006908EC00FE3018
:10070800E90069083D009005101A121E942B8B31E0
:10071800C4238331EF302200E90069083D009005C9
:10072800101FBA2B121FA82B73302100E3000030D2
:10073800E4000030E5000030E6000130E70000305A
:10074800E8008C3144248331BF302200E900690875
:100758003D009005230040080319B42B0130C00266
:10076800C008031DBA2B8E31052683313D00901A2F
:10077800921EC12B8B31FD2383313D009018921CB2
:10078800D72BFF302100E3007F30E4000030E50084
:100798000030E6000130E7000030E8008C314424E6
:1007A80083313D009301043022006C020318DF2BD3
:1007B8002000121108003D00921D352C2200EB018B
:1007C8002E2C0F082200E9006908EE006E0CE900E3
:1007D800E90C690C0F39EA006A082300C400F730F5
:1007E8002200E90069083D00900522006E19002CDE
:1007F80023004408AA3E032C23004408A63E860092
:1008080001308700010801392200E9000130E906BA
:1008180001086906FE39690681002300C408031D22
:10082800192C8F311F278331292C72302100E300C6
:100838000030E4006E30E5000130E6000030E700EB
:100848000030E8008C314424833101302200E90073
:100858006908EB0704306B020318352C3D0090192A
:10086800E52B200012110800210012113D00930110
:10087800900198010E30F4009930F300F50103302F
:1008880075020318582C73088600740887008101C4
:100898000130F3070030F43D0130F1007108F5072D
:1008A80003307502031C472C16303D0091009F3021
:1008B80097007B309200F6011030760203187D2CE9
:1008C8007608F1000130F135FF3E031D672C7135C4
:1008D800203E860087010030C03F0030C13FC23F44
:1008E800C33F0130F1007108F60710307602031C8F
:1008F800642C3D000E1796010E120E133D00901D3C
:100908008F2CF730F100710890052300CA01A2016D
:10091800A301A401822C0130F10071082300BE005C
:100928000130F1007108BF00B901BA01B801F60140
:10093800043076020318C02C7608AE3E86000130DB
:10094800870081017608B23E860001308700810168
:100958007608A63E86000130870081017608AA3E07
:1009680086000130870081010130F1007108F60727
:1009780004307602031CA02C2830F10071082300F3
:10098800AE0016303D0098006030F1000030F200F3
:1009980071082000A2007208A3000830A10084306A
:1009A800F1007108A0002300D0012200EC0108002A
:1009B80022006D0886008701413FF6007608F300A3
:1009C800F401740823002402031DEC2C730823028D
:1009D8000318F22C2308F3007308F6000330A03E36
:1009E8008600013087007608F300F401F309F40962
:1009F800F30A0319F40A403F7307A300413F743D0B
:100A0800A400F5017608750203181E2D7508683EC6
:100A1800860087010108F300200886008701730813
:100A280081000130F3007308A0070130F300730858
:100A3800F507062D0330A03E86000130870016001A
:100A480001040319502D0830F3007C0A8600870141
:100A5800730881006830F3000030F4007C08023E1F
:100A6800860087017308C03F7408C13F22006D08E3
:100A780086008701011B482DC830F3007C088600DA
:100A880087017308810008008830F3007C0886001D
:100A980087017308810008000830F3007C0A86008B
:100AA8008701730881006030F3000030F4007C088F
:100AB800023E860087017308C03F7408C13F843036
:100AC800F3007C088600870173088100230025084D
:100AD8000319712D25088531702DA213BB08031D3C
:100AE80008008E31052608002300CA170E302100A1
:100AF800EC009930EB00ED0103306D020318952DE1
:100B08006B0886006C08870081010130EB07003014
:100B1800EC3D0130FB007B08ED0703306D02031C40
:100B2800842D2030F1000030F2000030F300003056
:100B3800F4004030F5000030F6008B31DE238531BB
:100B48003D000E172100EE0104306E020318C02D7F
:100B58006E08A63E86000130870081016E08AA3E15
:100B680086000130870081010130FB007B08EE0719
:100B780004306E02031CAC2DCD30F1000130F200C0
:100B88000030F3000030F4000330F5000030F600C8
:100B98008B31DE2385313D000E132830FB007B08A6
:100BA8002300AE002030FB007B082200ED006D081A
:100BB800FB007B08FC0020006208FB007B08230088
:100BC800D000D008031DEE2D1030FB007B0822005A
:100BD800EC00080001302100E3000030E400D030D0
:100BE800E5000130E6000130E7000030E8008C3114
:100BF80044242030FB007B082200EC000800200081
:100C080060081F39013A031D08006408031D080025
:100C18006108063A03192A2E362E23005008013A95
:100C2800031D362E1330C8008730C9000930222E24
:100C38002A302300C8008730C9001C30CB000030A0
:100C4800CC00C030F1007108CA00362E20006308BD
:100C5800213A0319112E033A03191C2E013A0319DC
:100C6800362E362E2000600E890C0339013A031DFA
:100C78000800722ED2302300C8000130C9000130AC
:100C8800CB000030CC00C130F1007108CA00080068
:100C98008030F10071082300CA0020006308F100C9
:100CA80071082300D2000800D1302300C8000130A9
:100CB800C9000130CB000030CC008130F100710850
:100CC800CA0008008030F10071082300CA00200023
:100CD8006208F10071082300D100080020006108B3
:100CE800013A0319872E033A03193E2E013A0319D4
:100CF800582E0A3A0319872E033A03194C2E013A43
:100D08000319662E872E08003D000E122300CA1B09
:100D1800BE2EA21F9C2E0230F6007608C300BA0829
:100D2800031D982E8D31B7252300BF01BE01080091
:100D38000830F6007C0A860087017608810060305A
:100D4800F6000030F7007C08023E8600870176082E
:100D5800C03F7708C13F8C30F6007C0886008701C9
:100D6800760881008430F6002E0886008701760810
:100D7800810008002000E01FD32E2300C301C30A0E
:100D8800B908031DCA2E8D31B72586312300BF014E
:100D9800BE01BB08031D08008E310526080002307D
:100DA800F60076082300C3000830F6007C0A8600A7
:100DB8008701760881006030F6000030F7007C0873
:100DC800023E860087017608C03F7708C13F84301D
:100DD800F6007C088600870176088100BF01BE0105
:0C0DE800BB08031D08008E310526080022
:100E0000003409340234293400340134013400340C
:100E1000803432340934043400340034023403346E
:100E200000340034003409342134003401340034F7
:100E3000013422341C340034073405348134033443
:100E40004034003401340734053401340334403471
:100E50000034013406340034FF3409340134A13441
:100E60000134193401342934403415340134253423
:100E700040347534083495344034813400341934A6
:100E800001342934403491340034C03416340334EE
:100E9000623400346F3400346F34003474340034FE
:100EA0006C3400346F340034613400346434003402
:100EB00065340034723400341234013400340234A6
:100EC000003400340034083450341D349D34603410
:100ED000023401340134033400340134083403345F
:100EE0004F34003453340034533400340434033466
:100EF0000934043476346E344634013420006008FA
:100F0000803A031D0800C030F10071082300CA00B8
:100F1000E72F23004608C8008730C9001230CB00F5
:100F20000030CC0008002300410884008730850091
:100F30002000620884070318850A003F2300C800C8
:100F40008730C9004908F2004808F10002307107F3
:100F5000840072080318720A85000008F300730801
:100F6000CB004908F2004808F10003307107840003
:100F700072080318720A85000008F3007308CC0099
:100F800008000330200062020318E12F230042080A
:100F90008400873085002000620884070318850AD2
:100FA000003F2300C8008730C90048088400490872
:100FB00085000008F100F2017108CB007208CC0036
:100FC00008002300CA0108002300CA01080020000D
:100FD0006308013A0319892F033A0319932F013A41
:100FE0000319C12FE42F0800640080010131890B2F
:040FF000F52F0034A5
:101000008E31E12E8E31E42E8F311E2F8E31E42E63
:101010008F311E2F8E31C82E8E31D12E8F31032F5E
:101020008E31D72E8E31D42E8E31E72E8E31F32E87
:041030008F311E2FAF
:101756002300B80174302100E3000030E4000030BB
:10176600E5000030E6000030E7000030E8008C318C
:1017760044243D008E101211FB30FB007B089005BF
:1017860008003D001215EF30FB007B0890058E1413
:101796002300B801B80A75302100E3000030E400E8
:1017A6000030E5000030E6000030E7000030E800D9
:1017B6008C31442408007208F901F9077108F80110
:1017C600F8070130F5020030F63BFF307606031DC0
:1017D600EE2BFF307506031908007308F70078082A
:1017E600860079088700770881000130F807003005
:1017F600F93DE42B3D00181C1A2C22006D088600CA
:1018060087010108803A031D182C23002E08860044
:1018160087010108843A031D182C8C30F100220040
:101826006D0886008701710881003D001810DF30C1
:10183600F1007108900508002100E200781D282CAF
:10184600F10162088C3198248C31F81C302CF1019E
:10185600F10A210062088C31982421006208983E22
:10186600F900FA010E30FA3D7908E0007A08E10045
:101876007808F90060088600610887007908810009
:1018860008000130210063066404031D652C1E3028
:10189600E9006908F80001308C311F248C31F10110
:1018A600A030F2000030F30040302100E900690862
:1018B600F40001308D311F252100EA006A0823005B
:1018C600BD0008000330210063066404031D080000
:1018D60086310326080023004308023A031D762CAE
:1018E6008431DC2408002300C301B608031D962CAE
:1018F6000830F7007C0A860087017708810060308F
:10190600F7000030F8007C08023E86008701770861
:10191600C03F7808C13F8C30F7007C0886008701FD
:10192600770881000800B6010800F6002030F200B2
:101936007208F7007108F2000130F235890BA02C0D
:101946007608F3000130F335FF3E031DA62C7335F0
:101956007207F4000130F435FF3E031DAE2C7435DA
:10196600F5007508F7077708860087018113F108E7
:10197600031DC22C7708F2007608B23EC62C770803
:10198600F2007608AE3E86000130870072088100BC
:1019960077088600870101137708043E86008701D1
:1019A600011708002300C701BB01B901BA01B6013E
:1019B600C3017F302200E40023002E088600870141
:1019C6002200640881050430E40064082300AE06A2
:1019D6007F302200E40023002E08860087012200C3
:1019E600640881050430E40064082300AE067F30F5
:1019F6002200E4007C088600870164088105230034
:101A0600CA01CB01CC01A201A301A4018E31C026DB
:101A16008C3103302100E3000030E4000030E500A3
:101A26000030E6000030E7000030E8008C31442446
:101A36008C31863188260800F70071080319262D97
:101A46007708AE3E282D7708B23E86000130870023
:101A56000108F5007508F800F808031D342D00305C
:101A66000800FF307205F5007F307305F600780830
:101A7600023E860087017508C03F7608C13F74089C
:101A8600F500780A86008701750881004030F50068
:101A9600780886008701750881058830F500780882
:101AA6008600870175088104710803195F2D0430CB
:101AB600F5007708AE3E632D0430F5007708B23E98
:101AC6008600013087007508810678080800200026
:101AD600E8010030E9009E2D2300CA1723003708CD
:101AE600013A031DAA2D2000E814AA2D2300CA17C7
:101AF600AA2D2300CA172000E41B852D64080F3980
:101B0600B23E882D64080F39AE3E8600013087004C
:101B16000108F1007108F200720886008701811F32
:101B2600AA2D720886008701011DAA2D0130F10039
:101B36007108E800AA2D60081F39003A03196F2DB5
:101B4600013A0319792D033A03197C2DAA2D230096
:101B5600CA1F08006830C8000030C9004A140230A5
:101B6600F1007108CB0008002300B901BA0143084F
:101B7600023A031DD92D0830F4007C0A860087013D
:101B8600740881006830F4000030F5007C08023EDD
:101B9600860087017408C03F7508C13FC830F4004D
:101BA6007C08860087017408810008004C08200024
:101BB6006702031DE22D23004B082000660203186E
:101BC600ED2D67082300CC01CC0720006608230012
:101BD600CB01CB078F318F278D316830F400003071
:101BE600F50023002E08023E860087017408C03FD8
:101BF6007508C13FC830F4002E08860087017408B6
:101C0600810008002300BE08031D08000130F10012
:101C16007108BE00BF08031D08000130F1007108FD
:101C2600BF004308023A031D242E2E0A86008701B0
:101C36008101C830F1002E088600870171088100F5
:101C460008004308013A031D0800B6010830F100F8
:101C560022006D0A86008701710881006030F1005C
:101C66000030F2006D08023E860087017108C03F11
:101C76007208C13F8430F1006D0886008701710843
:101C860081002300B601B60A0830F1007C0A8600FE
:101C96008701710881006030F1000030F2007C0895
:101CA600023E860087017108C03F7208C13F80303E
:101CB600F1007C0886008701710881000800230076
:101CC6002E08860087010030011B0130F600043023
:101CD600F4007408AE0622006C08083A031D812E33
:101CE600200062083D009600160803197C2E10306D
:101CF6007D2E0430F40074082200EC002300430813
:101D0600013A031DB52E6830F4000030F5002E08A8
:101D1600023E860087017408C03F7508C13F8F31B7
:101D26008F278E3123004708023A031DA22E8430E6
:101D3600F4002E0886008701740881000800F60862
:101D4600031DAD2EC830F4002E08860087017408E6
:101D5600810008008830F4002E0886008701740888
:101D660081000800A21FBE2E25080319BD2E2508D6
:101D76008E31BC2EA213C30108002000600E890C10
:101D86000339003A031D0800132F2300CA17083031
:101D96002100EF006F082200EC00080087317E2743
:101DA6000800853178250800D0302300C8000130AE
:101DB600C9004A14CB01CB0ACA1708008D316A251F
:101DC600080082310822080020006408CD3E230066
:101DD600C8000130C9004A14CB01CB0ACA17080053
:101DE6002300CA17200062082100EF0020006408C3
:101DF600CD3E86000130870021006F088100080073
:101E060002302100E3000030E4000030E50000303D
:101E1600E6000030E7000030E8008C31442408007A
:101E26002000610884000D30040203180800883180
:101E36000435003E820008002D302200E5006508CA
:101E46002300C00022006E08FD39031D842F6E3664
:101E56003F39E5000130E535FF3E031D2E2F653580
:101E6600203EE6006608ED006D08E5006508FC000A
:101E76000430E5006508FC066D0886008701010C44
:101E8600890C0F390D3A031D812FE80108306802CD
:101E96000318722F6D08023E86008701403FE50059
:101EA600413FE60065088600660887000108E700EE
:101EB6006808603E86008701670881006D08023E5B
:101EC600860087010130810741310318810A0130FC
:101ED600E5006508E80708306802031C4D2F6030EE
:101EE600E5000030E6006D08023E860087016508C1
:101EF600C03F6608C13F8C31D52408008C316E2462
:101F06000800FD3022006E05E5006508043A031D51
:101F160008008E31622608000830F1007108F300CF
:101F2600003023004C02083003194B020318AD2F72
:101F36004B08F1007108F300C708031DA52FC70160
:101F4600C70AAD2F4708013A031DAD2F0230F10035
:101F56007108C7000330C83E860001308700730849
:101F6600F100F201F109F209F10A0319F20A403F00
:101F76007107CB00413F723DCC007308F1002E0A79
:101F860086008701710881006830F1007108C5007C
:101F96004A1CE32FFC2F48088400490885000008E6
:101FA600F100450886008701710881000130C807E5
:101FB6000030C93D0130F1007108C5070130F30258
:101FC600F30803190800CE2F480884004908850045
:101FD6000008F1004508860087017108810001307C
:101FE600C8070030C93D0130F1007108C50701304E
:0A1FF600F302F30803190800E72FB7
:020000040001F9
:040000006700000095
:04000E000CCFCDDF67
:00000001FF
