:06200000000090310B28E6
:10200800903120007F08F0007008FF00090090312F
:102018000D28FC01693084000030850007309C31B0
:10202800E0249031A83084000030850023309C31B2
:10203800E024200091311F2920004208013A031DA5
:10204800372840081F390038031D37282100C417D6
:1020580020004108033A031D35282100B501B50ABF
:1020680037282100B50120004208031D0800400858
:102078001F39023A031D080044080F39003A0319B2
:10208800080044080F39D800023058020318080025
:102098006C08203A031D08002100C4172000C41B47
:1020A800622844080F39B23E860087010108D8002B
:1020B8005808DD0044080F39B03E6E2844080F392F
:1020C800693E860087010108D8005808DD004408E9
:1020D8000F39AE3E860087010108D8005808DC0099
:1020E8005C187B28FB30D8005808DD057C285D1576
:1020F800C41B84285D08D80044080F39B23E8928DB
:102108005D08D80044080F39693E860087015808E1
:1021180081004108033A031DAA285D08860087014B
:10212800811FA228C41B9C2844080F39B03E9F2851
:1021380044080F39AE3E8600870181148430D800E8
:102148005D08860087015808810408000430D8001B
:102158005808DD065D0886008701811FCE287F307C
:10216800D8005D0886008701580881055D0886004B
:10217800870101170530D3000030D4005D08D8006E
:102188005808D5000130D6000030D7009D31A4256D
:102198009031D32820005D0886008701011704309C
:1021A8002000D8005808DD06DC18DF285D08860006
:1021B8008701811F0229C41BE52844080F39B03E56
:1021C800E82844080F39AE3E8600870181103B306D
:1021D800D8005D0886008701580881050530D300BE
:1021E8000030D4005D08D8005808D5000130D6006A
:1021F8000030D7009D31A42590310A293B302000BA
:10220800D8005D0886008701580881052000440829
:102218000F39983ED800D9010E30D93D5808DA0058
:102228005908DB00FE30D8005A0886005B08870092
:102238005808810508002100D401EE30D000023092
:10224800D100D501D201D301CF0195130830240064
:102258008C002100B901BA019331AB23913192313D
:1022680019229131203020006C02031C33293D00D3
:102278008E18332921003F080319802955080319AE
:1022880049295508013A031D712920008C1D592937
:10229800210051085004031956290130D00200309A
:1022A800D13B7129D501D50A71290230210051028B
:1022B800EE3003195002031866290130D0070030A8
:1022C800D13D71295508013A031D712902302000BA
:1022D800E70067082100D500D4014F1D7F29FF3092
:1022E8005306031D7929FF30520603197F2901304F
:1022F800D2070030D33DBF013908031994293908A2
:1023080086008701010D010D01392000E700E80171
:1023180067082100CB00200068082100CC0096291E
:10232800CB01CC014C084B04031DD129A001A1010C
:102338005508023A031DB8295418AD295436093EE8
:1023480093310A0091312000E70067082100A200BC
:10235800AE29A20101302000E70067082100D40758
:102368005408083A0319D501A301A401A501A6013F
:10237800A701F101F10AA030F2000030F3000830A3
:102388002000E7006708F40001309E3151269131A2
:102398002000E80068082100B9003A080319E52977
:1023A8003A0886008701010D010D01392000E70078
:1023B800E80167082100CD00200068082100CE0050
:1023C800E729CD01CE014E084D04031D3329220013
:1023D800200821004F060319082A03305302213030
:1023E80003195202031CFF2904305302B0300319A9
:1023F8005202031C1714D201D30122002008200026
:10240800E70067082100CF00F1012030F200013019
:10241800F300F401F40A01309E3151269131200075
:10242800E70067082100BA0033292000EC08031DE3
:102438002D2A3D008E019201163091009F309700A1
:102448007B3092008E192A2A8E15262A2000EC014C
:10245800EC0A6C08013A031D3D2A3D008E1A3D2AFC
:10246800900192011214121602302000E400640850
:10247800EC003D001019121D4A2AFB302000E40030
:1024880064083D0090059C31E62492313D008E1C85
:10249800502A2000121108001018121C602A9331CB
:1024A800AB23923104302000E4006408EC00FE30D5
:1024B800E40064083D009005101A121E6C2A9C3135
:1024C800FE249231EF302000E40064083D009005BE
:1024D800101F8F2A121F7D2A73302000D30000306E
:1024E800D400D5010130D6000030D7009D31A42595
:1024F8009231BF302000E40064083D0090052100BF
:102508003D080319892A0130BD02BD08031D8F2A21
:102518009F31402792313D00901A921E962A9D3194
:10252800342592313D009018921CA92AFF302000D2
:10253800D3007F30D400D5010130D6000030D70059
:102548009D31A42592313D009301043020006C0296
:102558000318B02A121108003D00921D052B200017
:10256800E601FE2A0F082000E4006408EF006F0C63
:10257800E400E40C640C0F39E50065082100BE0096
:10258800F7302000E40064083D00900520006F1932
:10259800D12A21003E08B03ED42A21003E08AE3E92
:1025A80086008701010801392000E4000130E406B3
:1025B80001086406FE39640681002100BE08031D77
:1025C800E92A973144279231F92A72302000D30042
:1025D8000030D4006F30E4006408D5000030D60025
:1025E8000030D7009D31A425923101302000E4004D
:1025F8006408E607043066020318052B3D009019AD
:10260800B62A2000121108000034043405340634B8
:102618000734A7349D348B345034053401340934DD
:102628000634A1340134053407341934E03429342C
:10263800E7341534003425340134753401349534C5
:1026480008348134023495340134753408348134C3
:102658000334953405347534013405340834193499
:1026680001342934053491340234953401347534F5
:1026780003349134033495340634753408341534EE
:1026880000342534653405340734193400342934CA
:10269800653481340034C0340934023429340034B8
:1026A80001340134003480343234093404340034C1
:1026B8000034023403340134013400340934213441
:1026C800113401340034013422343F3400340734E7
:1026D80005348134033408340034013407340534B4
:1026E8000134033408340034013412340134003422
:1026F80002340034003400340834D83404345534F7
:10270800003401340034013402340034013412340A
:1027180003346B3400346534003479340034623463
:1027280000346F340034613400347234003464345B
:1027380000340A34033441340034633400346D34D3
:10274800003465340034043403340934043421007B
:1027580012113D009301900198010E30F400993058
:10276800F300F5017508031DC92B7308860074086A
:10277800870081010130F3070030F43D0130F1009A
:102788007108F50775080319B92B16303D0091003B
:102798009F3097007B309200F601083076020318CC
:1027A800EE2B7608F1000130F135FF3E031DD82BE2
:1027B8007135203E860087010030C03F0030C13FA0
:1027C800C23FC33F0130F1007108F60708307602B6
:1027D800031CD52B3D000E1796010E120E133D005B
:1027E800901D002CF730F100710890052100C401FC
:1027F800AA01AB01AC01F32B0130F10071082100F3
:10280800BB000130F1007108BC00B701B801B60186
:10281800F6010230760203182D2C7608693E8600F0
:10282800870181017608B23E86008701810176081A
:10283800AE3E8600870181017608B03E860087019A
:1028480081010130F1007108F60702307602031C9D
:10285800112C2830F10071082000E90016303D00E5
:1028680098004030F1000030F20071082000A2000A
:102878007208A3000830A1008430F1007108A0009C
:102888002100C7012000EC01080020006E08860026
:102898008701413FF6007608F300F401740821002F
:1028A8002C02031D592C73082B0203185F2C2B08CC
:1028B800F3007308F6000330A83E86008701760807
:1028C800F300F401F309F409F30A0319F40A403F89
:1028D8007307AB00413F743DAC00F5017608750203
:1028E80003188A2C7508483E860087010108F30002
:1028F800280886008701730881000130F3007308F7
:10290800A8070130F3007308F507722C0330A83EBE
:1029180086008701160001040319BB2C0830F30058
:102928007C0A86008701730881004830F300003074
:10293800F4007C08023E860087017308C03F7408D3
:10294800C13F20006E0886008701011BB32CC830E8
:10295800F3007C088600870173088100080088302E
:10296800F3007C088600870173088100080008309E
:10297800F3007C0A86008701730881004030F30069
:102988000030F4007C08023E860087017308C03FCF
:102998007408C13F8430F3007C08860087017308FF
:1029A800810021002D080319DC2C2D089431DB2C23
:1029B800AA132000EB08031D08009F3140270800D8
:1029C800200040081F39013A031D08004408031D70
:1029D80008004108063A03190B2D172D2100470856
:1029E800013A031D172D6230C2009330C30009302D
:1029F800032D11302100C2009330C3003F30C500C1
:102A08000030C600C030F1007108C400172D200046
:102A18004308213A0319F22C033A0319FD2C013A11
:102A28000319172D172D2000400E890C0339013A80
:102A3800031D0800532DCA302100C2000030C30016
:102A48000130C5000030C600C130F1007108C40073
:102A580008008030F10071082100C40020004308FC
:102A6800F10071082100CA000800C9302100C20025
:102A78000030C3000130C5000030C6008130F100CD
:102A88007108C40008008030F10071082100C400FA
:102A980020004208F10071082100C9000800200048
:102AA8004108013A0319682D033A03191F2D013A09
:102AB8000319392D0A3A0319682D033A03192D2DE4
:102AC800013A0319472D682D08002100C4170E305C
:102AD8002000DA009930D900DB015B08031D842D42
:102AE800590886005A08870081010130D90700304B
:102AF800DA3D0130D8005808DB075B080319742D4C
:102B08000030F1000030F2002030F3000030F40013
:102B180020309D31172595313D000E172000DC012E
:102B280002305C020318AA2D5C08AE3E86008701BD
:102B380081015C08B03E8600870181010130D80020
:102B48005808DC0702305C02031C982D0030F100A5
:102B58000030F2000130F3000030F400C8309D313D
:102B6800172595313D000E1328302000D80058084D
:102B7800E9002030D8005808EE006E08D800580840
:102B8800FC004208D80058082100C700C708031DE8
:102B9800D32D10302000D8005808EC000800013070
:102BA8002000D3000030D400C730D8005808D50022
:102BB8000130D6000030D7009D31A42520302000F8
:102BC800D8005808EC0008003D000E122100C41B74
:102BD800212EAA1FFE2D0230F60076082000ED00F7
:102BE8002100B808031DFA2D9E319A262100BC0148
:102BF800BB0108000830F6007C0A860087017608C9
:102C080081004030F6000030F7007C08023E860064
:102C180087017608C03F7708C13F8C30F6007C08F2
:102C280086008701760881008430F6002000690854
:102C3800860087017608810008002000C01F372E13
:102C4800ED01ED0A2100B708031D2D2E9E319A26AD
:102C580095312100BC01BB012000EB08031D0800D1
:102C68009F31402708000230F60076082000ED006A
:102C78000830F6007C0A860087017608810040301B
:102C8800F6000030F7007C08023E860087017608CF
:102C9800C03F7708C13F8430F6007C088600870172
:102CA800760881002100BC01BB012000EB08031D50
:102CB80008009F314027080020004008803A031D83
:102CC8000800C030F10071082100C400C52E793019
:102CD8002100C2009330C3001230C5000030C60086
:102CE80008001030840093308500200042088407D3
:102CF8000318850A003F2100C2009330C30043082F
:102D0800F2004208F10002307107840072080318CB
:102D1800720A85000008F3007308C5004308F20032
:102D28004208F10003307107840072080318720A20
:102D380085000008F3007308C6000800033020006F
:102D480042020318BF2E0D3093310A009631420714
:102D580093310A0096312100C2000030C3004208B6
:102D68008400430885000008F100F2017108C500DD
:102D78007208C60008002100C40108002100C4012F
:102D8800080020004308013A03196B2E033A03197F
:102D9800752E013A0319A22EC22E08000830F10040
:102DA8007108F3000030210046020830031945027B
:102DB8000318F02E4508F1007108F300C108031D3F
:102DC800E82EC101C10AF02E4108013A031DF02E78
:102DD8000230F1007108C1000330C23E860087014D
:102DE8007308F100F201F109F209F10A0319F20A74
:102DF800403F7107C500413F723DC6007308F100AE
:102E08002000690A86008701710881004830F100B6
:102E180071082100C000441C272F402F420884005D
:102E2800430885000008F100400886008701710802
:102E380081000130C2070030C33D0130F100710844
:102E4800C0070130F302F30803190800122F4208E3
:102E58008400430885000008F100400886008701C7
:102E6800710881000130C2070030C33D0130F10014
:102E78007108C0070130F302F308031908002B2F6B
:102E88002D302000E00060082100BD0020006F0800
:102E9800FD39031DA92F6F363F39E0000130E035B9
:102EA800FF3E031D532F6035203EE1006108EE0010
:102EB8006E08E0006008FC000430E0006008FC06D2
:102EC8006E0886008701010C890C0F390D3A031D25
:102ED800A62FE301083063020318972F6E08023EFD
:102EE80086008701403FE000413FE100600886001E
:102EF800610887000108E2006308403E86008701F8
:102F0800620881006E08023E860087010130810751
:102F180041310318810A0130E0006008E3070830F6
:102F28006302031C722F4030E0000030E1006E089D
:102F3800023E860087016008C03F6108C13F9E319C
:102F4800102608009D3179250800FD3020006F0506
:102F5800E0006008043A031D08009F319F2708001D
:102F68002000C8010030C900E72F2100C417210044
:102F78003508013A031DF32F2000C814F32F210050
:102F8800C417F32F2100C4172000C41BCF2F4408F7
:102F98000F39B23ED22F44080F39693E86008701A7
:102FA8000108F1007108F200720886008701811F8C
:102FB800F32F720886008701011DF32F0130F100FD
:102FC8007108C800F32F40081F39003A0319B92FB8
:102FD800013A0319C32F033A0319C62FF32F21000F
:102FE800C41F08004830C2000030C3004414023037
:102FF800F1007108C50008009F310A2F9F310D2F7D
:103008009F313F2F9F310D2F9F313F2F9E31F22E41
:103018009E31FA2E9F31282F9F31002F9E31FD2E91
:0C3028009F31102F9F311C2F9F313F2F34
:1039C000640080010131890BE12C00342100B60133
:1039D00074302000D3000030D400D5010030D60070
:1039E0000030D7009D31A4253D008E101211FB3010
:1039F0002000D80058083D00900508003D00121531
:103A0000EF302000D80058083D0090058E142100AA
:103A1000B601B60A75302000D3000030D400D501BD
:103A20000030D6000030D7009D31A4250800F600F4
:103A30007608F5007508F7000130F3020030F43B1A
:103A4000FF307406031D262DFF307306031908008E
:103A50007108F5007708860087017508810001303C
:103A6000F5007508F7071C2D3D00181C4F2D200090
:103A70006E08860087010108803A031D4D2D6908F4
:103A8000860087010108843A031D4D2D8C30F1001A
:103A90006E0886008701710881003D001810DF3034
:103AA000F1007108900508002000D200781D5D2DFE
:103AB000F10152089D31D4259D31F81C652DF1018D
:103AC000F10A200052089D31D42520005208983E6A
:103AD000F900FA010E30FA3D7908D0007A08D100D9
:103AE0007808F9005008860051088700790881009D
:103AF000080020006D08023A031D812D94314924ED
:103B000008002000ED012100B408031DA22D08309B
:103B1000F7007C0A86008701770881004030F700B3
:103B20000030F8007C08023E860087017708C03F1D
:103B30007808C13F8C30F7007C0886008701770841
:103B400081000800B40108007330200053065404BB
:103B5000031DAE2D2100BF01BF0A08000130200067
:103B600053065404031DCB2D1E30FB007B08F800C8
:103B700001309D3154259D31F1012030F20001309A
:103B8000F300F401F40A01309E315126FB007B085A
:103B90002100BA0008000330200053065404031D1E
:103BA00008009431E4240800F6002030F200720886
:103BB000F7007108F2000130F235890BDC2D760830
:103BC000F3000130F335FF3E031DE22D733572071C
:103BD000F4000130F435FF3E031DEA2D7435F50085
:103BE0007508F7077708860087018113F108031D20
:103BF000FE2D7708F2007608B23E022E7708F2001A
:103C00007608693E86008701720881007708860081
:103C1000870101137708043E860087010117080019
:103C20002100C1012000EB012100B701B801B4015E
:103C30002000ED017F30DF006908860087015F0802
:103C400081050430DF005F08E9067F30DF00690886
:103C5000860087015F0881050430DF005F08E90600
:103C60007F30DF007C08860087015F088105210026
:103C7000C401C501C601AA01AB01AC019E31EA260F
:103C80009E3103302000D3000030D400D501003035
:103C9000D6000030D7009D31A4259E319531E8250E
:103CA0000800F70071080319582E7708693E5A2E4C
:103CB0007708B23E860087010108F5007508F80014
:103CC000F808031D652E00300800FF307205F5006E
:103CD0007F307305F6007808023E8600870175087C
:103CE000C03F7608C13F7408F500780A8600870156
:103CF000750881004030F500780886008701750856
:103D000081058830F50078088600870175088104F0
:103D100071080319902E0430F5007708693E942E3F
:103D20000430F5007708B23E8600870175088106E9
:103D3000780808002100B701B80120006D08023A98
:103D4000031DBD2E0830F4007C0A8600870174082C
:103D500081004830F4000030F5007C08023E860007
:103D600087017408C03F7508C13FC830F4007C0863
:103D700086008701740881000800210046082000A1
:103D80004702031DC72E21004508200046020318E4
:103D9000D22E47082100C601C60720004608210090
:103DA000C501C5079631D2269E314830F400003057
:103DB000F50020006908023E860087017408C03FB4
:103DC0007508C13FC830F40069088600870174088F
:103DD000810008002000400E890C0339003A031DC1
:103DE0000800342F2100C41708302000DE005E08D0
:103DF000EC0008009631602608009531692508001E
:103E0000C7302100C2000030C3004414C501C50AF8
:103E1000C41708009731B42708009031202008000B
:103E200020004408C83E2100C2000030C3004414F2
:103E3000C501C50AC41708002100C41720004208A4
:103E4000DE004408C83E860087015E088100080045
:103E50000230D3000030D400D5010030D60000304D
:103E6000D7009D31A42508002000410884000D30B2
:103E700004020318080098310435003E820008004F
:103E80002100BB08031D08000130F1007108BB00D0
:103E9000BC08031D08000130F1007108BC002000BF
:103EA0006D08023A031D602F690A860087018101AF
:103EB000C830F10069088600870171088100080098
:103EC0006D08013A031D08002100B4010830F1001B
:103ED00020006E0A86008701710881004030F100E1
:103EE0000030F2006E08023E860087017108C03F74
:103EF0007208C13F8430F1006E08860087017108A6
:103F000081002100B401B40A0830F1007C0A860067
:103F10008701710881004030F1000030F2007C0818
:103F2000023E860087017108C03F7208C13F8030A1
:103F3000F1007C08860087017108810008002000DC
:103F40006908860087010030011B0130F60004304B
:103F5000F4007408E9066C08083A031DBC2F4208F7
:103F60003D00960016080319B72F1030B82F043003
:103F7000F40074082000EC006D08013A031DF22FD4
:103F80004830F4000030F5006908023E86008701E1
:103F90007408C03F7508C13F9631D2269F31210079
:103FA0004108023A031DDD2F8430F4002000690827
:103FB00086008701740881000800F608031DE92FB8
:103FC000C830F40020006908860087017408810069
:103FD00008008830F4002000690886008701740812
:103FE000810008002100AA1FFC2F2D080319FB2FB8
:0E3FF0002D089F31FA2FAA132000ED010800C2
:00000001FF
