:06200000000090310B28E6
:10200800903120007F08F0007008FF00090090312F
:102018000D28FC01693084000030850007309D31AF
:1020280009259031A83084000030850023309D3187
:102038000925200092310E2A20004208013A031D8A
:10204800372840081F390038031D37282100C417D6
:1020580020004108033A031D35282100B501B50ABF
:1020680037282100B50120004208031D0800400858
:102078001F39023A031D080044080F39003A0319B2
:10208800080044080F39D800023058020318080025
:102098006C08203A031D08002100C4172000C41B47
:1020A800622844080F39B23E860087010108D8002B
:1020B8005808DD0044080F39B03E6E2844080F392F
:1020C800693E860087010108D8005808DD004408E9
:1020D8000F39AE3E860087010108D8005808DC0099
:1020E8005C187B28FB30D8005808DD057C285D1576
:1020F800C41B84285D08D80044080F39B23E8928DB
:102108005D08D80044080F39693E860087015808E1
:1021180081004108033A031DAA285D08860087014B
:10212800811FA228C41B9C2844080F39B03E9F2851
:1021380044080F39AE3E8600870181148430D800E8
:102148005D08860087015808810408000430D8001B
:102158005808DD065D0886008701811FCE287F307C
:10216800D8005D0886008701580881055D0886004B
:10217800870101170530D3000030D4005D08D8006E
:102188005808D5000130D6000030D7009D31A82569
:102198009031D32820005D0886008701011704309C
:1021A8002000D8005808DD06DC18DF285D08860006
:1021B8008701811F0229C41BE52844080F39B03E56
:1021C800E82844080F39AE3E8600870181103B306D
:1021D800D8005D0886008701580881050530D300BE
:1021E8000030D4005D08D8005808D5000130D6006A
:1021F8000030D7009D31A82590310A293B302000B6
:10220800D8005D0886008701580881052000440829
:102218000F39983ED800D9010E30D93D5808DA0058
:102228005908DB00FE30D8005A0886005B08870092
:102238005808810508002000EC08031D33293D00DB
:102248008E019201163091009F3097007B309200EA
:102258008E1930298E152C292000EC01EC0A6C0807
:10226800013A031D43293D008E1A4329900192012A
:102278001214121602302000E4006408EC003D003D
:102288001019121D5029FB302000E40064083D009D
:1022980090059D310F2591313D008E1C5629200057
:1022A800121108001018121C66299331A3239131CA
:1022B80004302000E4006408EC00FE30E400640808
:1022C8003D009005101A121E72299D312725913163
:1022D800EF302000E40064083D009005101F9529A8
:1022E800121F832973302000D3000030D400D50199
:1022F8000130D6000030D7009D31A8259131BF307C
:102308002000E40064083D00900521003D08031901
:102318008F290130BD02BD08031D95299F31402733
:1023280091313D00901A921E9C299D315D25913175
:102338003D009018921CAF29FF302000D3007F3059
:10234800D400D5010130D6000030D7009D31A82532
:1023580091313D009301043020006C020318B62926
:10236800121108003D00921D0B2A2000E601042AE4
:102378000F082000E4006408EF006F0CE400E40C90
:10238800640C0F39E50065082100BE00F730200015
:10239800E40064083D00900520006F19D72921004A
:1023A8003E08B03EDA2921003E08AE3E860087018D
:1023B800010801392000E4000130E4060108640640
:1023C800FE39640681002100BE08031DEF299731FC
:1023D8003C279131FF2972302000D3000030D4000F
:1023E8006F30E4006408D5000030D6000030D70014
:1023F8009D31A825913101302000E4006408E607EA
:102408000430660203180B2A3D009019BC292000ED
:10241800121108002100D101EE30CF000230D000A7
:10242800D2019513083024008C002100B901BA01AB
:102438009331A323923191311F2192312030200012
:102448006C02031C1F2A3D008E181F2A21003F081A
:1024580003195E2A52080319352A5208013A031D46
:102468005D2A20008C1D452A210050084F040319BD
:10247800422A0130CF020030D03B5D2AD201D20A75
:102488005D2A023021005002EE3003194F02031872
:10249800522A0130CF070030D03D5D2A5208013A58
:1024A800031D5D2A02302000E70067082100D200E2
:1024B800D101BF0139080319722A3908860087013A
:1024C800010D010D01392000E700E801670821002E
:1024D800CB00200068082100CC00742ACB01CC0175
:1024E8004C084B04031DAF2AA001A1015208023A6F
:1024F800031D962A51188B2A5136013E93310A0042
:1025080092312000E70067082100A2008C2AA2016E
:1025180001302000E70067082100D1075108083A78
:102528000319D201A301A401A501A601A701F10184
:10253800F10AA030F2000030F30008302000E70074
:102548006708F40001309E31552692312000E800DA
:1025580068082100B9003A080319C32A3A08860016
:102568008701010D010D01392000E700E801670826
:102578002100CD00200068082100CE00C52ACD0129
:10258800CE014E084D04031D1F2AF1012030F20030
:102598000130F300F401F40A01309E3155269231DE
:1025A8002000E70067082100BA001F2A2000D20097
:1025B800781DE32AF10152089D31D8259231F81C83
:1025C800EB2AF101F10A200052089D31D82520009C
:1025D8005208983EF900FA010E30FA3D7908D00009
:1025E8007A08D1007808F900500886005108870059
:0625F800790881000800D3
:10260000003404340534063407349F34953483345D
:1026100048340534013409340634A1340134053416
:1026200007341934E0342934E734153400342534C0
:1026300001347534013495340834813402349534CE
:1026400001347534083481340334953405347534D9
:1026500001340534083419340134293405349134F3
:102660000234953401347534033491340334953491
:102670000634753408341534003425346534053493
:102680000734193400342934653481340034C034BB
:1026900009340234293400340134013400348034E4
:1026A0003234093404340034003402340334013445
:1026B000013400340934213411340134003401343C
:1026C00022343F3400340734053481340334083471
:1026D0000034013407340534013403340834003441
:1026E0000134123401340034023400340034003434
:1026F0000834D834043455340034013400340134FF
:10270000023400340134123403346B340034653441
:10271000003479340034623400346F34003461346E
:10272000003472340034643400340A3403344134E5
:102730000034633400346D340034653400340434C0
:10274000033409340434210012113D009301900137
:1027500098010E30F4009930F300F5017508031D5F
:10276000C12B730886007408870081010130F307CC
:102770000030F43D0130F1007108F50775080319C8
:10278000B12B16303D0091009F3097007B309200B6
:10279000F601083076020318E62B7608F1000130C6
:1027A000F135FF3E031DD02B7135203E8600870199
:1027B0000030C03F0030C13FC23FC33F0130F10095
:1027C0007108F60708307602031CCD2B3D000E176A
:1027D00096010E120E133D00901DF82BF730F100FC
:1027E000710890052100C401AA01AB01AC01EB2BDB
:1027F0000130F10071082100BB000130F1007108C7
:10280000BC00B701B801B601F60102307602031828
:10281000252C7608693E8600870181017608B23E44
:102820008600870181017608AE3E8600870181011E
:102830007608B03E8600870181010130F100710801
:10284000F60702307602031C092C2830F1007108CB
:102850002000E90016303D0098004030F1000030C3
:10286000F20071082000A2007208A3000830A10045
:102870008430F1007108A0002100C7012000EC01A4
:10288000080020006E0886008701413FF6007608A8
:10289000F300F401740821002C02031D512C73086D
:1028A0002B020318572C2B08F3007308F600033093
:1028B000A83E860087017608F300F401F309F409C5
:1028C000F30A0319F40A403F7307AB00413F743D1C
:1028D000AC00F501760875020318822C7508483E95
:1028E000860087010108F300280886008701730825
:1028F00081000130F3007308A8070130F30073086A
:10290000F5076A2C0330A83E8600870116000104F3
:102910000319B32C0830F3007C0A86008701730882
:1029200081004830F3000030F4007C08023E86004D
:1029300087017308C03F7408C13F20006E088600FD
:102940008701011BAB2CC830F3007C08860087018F
:102950007308810008008830F3007C088600870136
:102960007308810008000830F3007C0A86008701A4
:10297000730881004030F3000030F4007C08023E10
:10298000860087017308C03F7408C13F8430F3009C
:102990007C08860087017308810021002D08031937
:1029A000D42C2D089431D32CAA132000EB08031D3E
:1029B00008009F3140270800200040081F39013AD5
:1029C000031D08004408031D08004108063A0319C6
:1029D000032D0F2D21004708013A031D0F2D5A30FA
:1029E000C2009330C3000930FB2C09302100C20023
:1029F0009330C3003F30C5000030C600C030F10046
:102A00007108C4000F2D20004308213A0319EA2C55
:102A1000033A0319F52C013A03190F2D0F2D20004D
:102A2000400E890C0339013A031D08004B2DCA30B2
:102A30002100C2000030C3000130C5000030C600D4
:102A4000C130F1007108C40008008030F100710845
:102A50002100C40020004308F10071082100CA00D1
:102A60000800C9302100C2000030C3000130C50099
:102A70000030C6008130F1007108C40008008030C9
:102A8000F10071082100C40020004208F100710823
:102A90002100C900080020004108013A0319602DF7
:102AA000033A0319172D013A0319312D0A3A031974
:102AB000602D033A0319252D013A03193F2D602D8E
:102AC00008002100C4170E302000DA009930D90028
:102AD000DB015B08031D7C2D590886005A0887001E
:102AE00081010130D9070030DA3D0130D8005808A3
:102AF000DB075B0803196C2D0030F1000030F20099
:102B00002030F3000030F40020309D314025953115
:102B10003D000E172000DC0102305C020318A22DDC
:102B20005C08AE3E8600870181015C08B03E8600ED
:102B3000870181010130D8005808DC0702305C02AF
:102B4000031C902D0030F1000030F2000130F30042
:102B50000030F400C8309D31402595313D000E1302
:102B600028302000D8005808E9002030D800580844
:102B7000EE006E08D8005808FC004208D80058083B
:102B80002100C700C708031DCB2D10302000D8003E
:102B90005808EC00080001302000D3000030D400B9
:102BA000C730D8005808D5000130D6000030D70013
:102BB0009D31A82520302000D8005808EC000800DE
:102BC0003D000E122100C41B192EAA1FF62D023043
:102BD000F60076082000ED002100B808031DF22D54
:102BE0009731AC272100BC01BB0108000830F6007A
:102BF0007C0A86008701760881004030F6000030AC
:102C0000F7007C08023E860087017608C03F7708FF
:102C1000C13F8C30F6007C08860087017608810071
:102C20008430F6002000690886008701760881005C
:102C300008002000C01F2F2EED01ED0A2100B7086B
:102C4000031D252E9731AC2795312100BC01BB0116
:102C50002000EB08031D08009F31402708000230C8
:102C6000F60076082000ED000830F6007C0A8600A9
:102C70008701760881004030F6000030F7007C08BC
:102C8000023E860087017608C03F7708C13F843046
:102C9000F6007C0886008701760881002100BC01CF
:102CA000BB012000EB08031D08009F3140270800EE
:102CB00020004008803A031D0800C030F100710870
:102CC0002100C400BD2E71302100C2009330C3002A
:102CD0001230C5000030C600080008308400933070
:102CE00085002000420884070318850A003F210060
:102CF000C2009330C3004308F2004208F1000230E2
:102D00007107840072080318720A85000008F30036
:102D10007308C5004308F2004208F1000330710750
:102D2000840072080318720A85000008F300730813
:102D3000C60008000330200042020318B72E0530F9
:102D400093310A009631420793310A0096312100EF
:102D5000C2000030C3004208840043088500000818
:102D6000F100F2017108C5007208C60008002100D8
:102D7000C40108002100C401080020004308013AF2
:102D80000319632E033A03196D2E013A03199A2E83
:102D9000BA2E08000830F1007108F300003021005D
:102DA00046020830031945020318E82E4508F100D1
:102DB0007108F300C108031DE02EC101C10AE82E0D
:102DC0004108013A031DE82E0230F1007108C100EC
:102DD0000330C23E860087017308F100F201F10959
:102DE000F209F10A0319F20A403F7107C500413F99
:102DF000723DC6007308F1002000690A8600870151
:102E0000710881004830F10071082100C000441CA5
:102E10001F2F382F42088400430885000008F10066
:102E2000400886008701710881000130C207003028
:102E3000C33D0130F1007108C0070130F302F3080F
:102E4000031908000A2F420884004308850000087F
:102E5000F100400886008701710881000130C20737
:102E60000030C33D0130F1007108C0070130F302AA
:102E7000F30803190800232F2D302000E00060081C
:102E80002100BD0020006F08FD39031DA12F6F3602
:102E90003F39E0000130E035FF3E031D4B2F603528
:102EA000203EE1006108EE006E08E0006008FC00D2
:102EB0000430E0006008FC066E0886008701010C03
:102EC000890C0F390D3A031D9E2FE3010830630270
:102ED00003188F2F6E08023E86008701403FE000F6
:102EE000413FE10060088600610887000108E200B8
:102EF0006308403E86008701620881006E08023E3A
:102F0000860087010130810741310318810A0130B1
:102F1000E0006008E30708306302031C6A2F4030BA
:102F2000E0000030E1006E08023E86008701600884
:102F3000C03F6108C13F9E31142608009D317D25A8
:102F40000800FD3020006F05E0006008043A031D12
:102F500008009F319F2708002100B701B801200019
:102F60006D08023A031DCF2F0830F4007C0A86005A
:102F70008701740881004830F4000030F5007C08B7
:102F8000023E860087017408C03F7508C13FC83003
:102F9000F4007C0886008701740881000800210085
:102FA000460820004702031DD92F210045082000B4
:102FB00046020318E42F47082100C601C607200077
:102FC00046082100C501C5079631CA269731483009
:102FD000F4000030F50020006908023E86008701F9
:102FE0007408C03F7508C13FC830F4006908860006
:082FF00087017408810008004C
:103000009F310A2F9F310D2F9F313F2F9F310D2F61
:103010009F313F2F9E31F22E9E31FA2E9F31282F65
:103020009F31002F9E31FD2E9F31102F9F311C2F7D
:043030009F313F2F5E
:103A1200640080010131890B0A2D00342100B601B6
:103A220074302000D3000030D400D5010030D6001D
:103A32000030D7009D31A8253D008E101211FB30B9
:103A42002000D80058083D00900508003D001215DE
:103A5200EF302000D80058083D0090058E14210058
:103A6200B601B60A75302000D3000030D400D5016B
:103A72000030D6000030D7009D31A8250800F6009E
:103A82007608F5007508F7000130F3020030F43BC8
:103A9200FF307406031D4F2DFF3073060319080013
:103AA2007108F500770886008701750881000130EA
:103AB200F5007508F707452D3D00181C782D2000EC
:103AC2006E08860087010108803A031D762D690879
:103AD200860087010108843A031D762D8C30F1009F
:103AE2006E0886008701710881003D001810DF30E2
:103AF200F10071089005080020006D08023A031DCC
:103B0200852D9431412408002000ED012100B408E4
:103B1200031DA62D0830F7007C0A8600870177086E
:103B220081004030F7000030F8007C08023E860039
:103B320087017708C03F7808C13F8C30F7007C08C6
:103B420086008701770881000800B40108007330FD
:103B5200200053065404031DB22D2100BF01BF0AE9
:103B620008000130200053065404031DCF2D1A30E3
:103B7200FB007B08F80001309231DA229D31F1011D
:103B82002030F2000130F300F401F40A01309E31DA
:103B92005526FB007B082100BA00080003302000F4
:103BA20053065404031D08009431DC240800F60077
:103BB2002030F2007208F7007108F2000130F2358D
:103BC200890BE02D7608F3000130F335FF3E031D2B
:103BD200E62D73357207F4000130F435FF3E031D04
:103BE200EE2D7435F5007508F70777088600870112
:103BF2008113F108031D022E7708F2007608B23E07
:103C0200062E7708F2007608693E86008701720860
:103C1200810077088600870101137708043E860039
:103C22008701011708002100C1012000EB012100DA
:103C3200B701B801B4012000ED017F30DF0069084F
:103C4200860087015F0881050430DF005F08E9060E
:103C52007F30DF006908860087015F088105043034
:103C6200DF005F08E9067F30DF007C0886008701FD
:103C72005F0881052100C401C501C601AA01AB018B
:103C8200AC019E31EA269E3103302000D300003081
:103C9200D400D5010030D6000030D7009D31A825D0
:103CA2009E319531E0250800F700710803195C2E5A
:103CB2007708693E5E2E7708B23E860087010108CA
:103CC200F5007508F800F808031D692E0030080099
:103CD200FF307205F5007F307305F6007808023E6A
:103CE200860087017508C03F7608C13F7408F50059
:103CF200780A86008701750881004030F50078084F
:103D020086008701750881058830F50078088600ED
:103D120087017508810471080319942E0430F50097
:103D22007708693E982E0430F5007708B23E860087
:103D3200870175088106780808002000C801003054
:103D4200C900D12E2100C41721003508013A031DF4
:103D5200DD2E2000C814DD2E2100C417DD2E210027
:103D6200C4172000C41BB92E44080F39B23EBC2E22
:103D720044080F39693E860087010108F100710885
:103D8200F200720886008701811FDD2E720886000C
:103D92008701011DDD2E0130F1007108C800DD2E02
:103DA20040081F39003A0319A32E013A0319AD2E18
:103DB200033A0319B02EDD2E2100C41F080048303B
:103DC200C2000030C30044140230F1007108C50083
:103DD20008002000400E890C0339003A031D080038
:103DE200342F2100C41708302000DE005E08EC00EA
:103DF2000800963158260800953161250800C73021
:103E02002100C2000030C3004414C501C50AC41712
:103E120008009E319E2608009031202008002000D4
:103E22004408C83E2100C2000030C3004414C5014A
:103E3200C50AC41708002100C41720004208DE008A
:103E42004408C83E860087015E08810008000230EF
:103E5200D3000030D400D5010030D6000030D700A6
:103E62009D31A82508002000410884000D3004027D
:103E72000318080098310435003E82000800210032
:103E8200BB08031D08000130F1007108BB00BC082B
:103E9200031D08000130F1007108BC0020006D080C
:103EA200023A031D602F690A860087018101C8302A
:103EB200F1006908860087017108810008006D0819
:103EC200013A031D08002100B4010830F10020006E
:103ED2006E0A86008701710881004030F1000030CF
:103EE200F2006E08023E860087017108C03F720828
:103EF200C13F8430F1006E0886008701710881009D
:103F02002100B401B40A0830F1007C0A860087015E
:103F1200710881004030F1000030F2007C08023E5E
:103F2200860087017108C03F7208C13F8030F100EE
:103F32007C0886008701710881000800200069085A
:103F4200860087010030011B0130F6000430F400C6
:103F52007408E9066C08083A031DBC2F42083D00AC
:103F6200960016080319B72F1030B82F0430F4004A
:103F720074082000EC006D08013A031DF22F48304E
:103F8200F4000030F5006908023E860087017408DB
:103F9200C03F7508C13F9631CA269F3121004108B2
:103FA200023A031DDD2F8430F400200069088600E8
:103FB2008701740881000800F608031DE92FC83044
:103FC200F400200069088600870174088100080057
:103FD2008830F40020006908860087017408810097
:103FE20008002100AA1FFC2F2D080319FB2F2D0802
:0C3FF2009F31FA2FAA132000ED010800F7
:00000001FF
