:10200000000090310B284F34903120007F08F00001
:102010007008FF00090090310D28FC01E401E50182
:10202000E601E701E801E901EA01EB01EC01ED015C
:10203000EE012100AD01AE0120009031032090316E
:10204000EF00723084009D308500A03086000030A3
:1020500087000D309D313D2520009F319B2F2000B2
:10206000C90121002A082000BF003F08D600560AF7
:10207000860087010108063A031DDA285608860003
:1020800087010108803A031DDA285608023E8600BF
:102090008701403FBF00413FC0004008C1004108E8
:1020A000D200560886008701423FD3005208013A09
:1020B000031D74287830B0009530B1007830953128
:1020C0000A009031BF00C0013F08B2004008B300D1
:1020D0005608063E86008701403FB400413FB500E8
:1020E0009531A4259031CE2A20005208023A031DD2
:1020F000A5285308031980289D315C259031CE2AEC
:10210000200053086F3E860087010108BF003F088A
:10211000CE004E08B0009530B1004E0884009530D6
:102120008500023084070318850A003FB200013F92
:10213000B3005608063E86008701403FB400413F89
:10214000B5009531A4259031CE2A20005208033ADB
:10215000031DD6285430BF003F08F10053089E31BC
:10216000C326903172082000CD01CD077108CC0143
:10217000CC07CD1FBF289D315C259031CE2A200091
:102180005408B0009530B1004D08B301B3074C08B6
:10219000B201B2075608063E86008701403FB400F0
:1021A000413FB5009531A4259031CE2A9D315C2563
:1021B0009031CE2A2000560A860087010108053A90
:1021C000031DED28E701E70A560886008701423F14
:1021D000E6009D314A259031CE2A2000560A86001D
:1021E00087010108093A031D032956088600870163
:1021F000423FC2009D314A25903120004208BF0075
:102200003F08EE00CE2A560A860087010108083AE8
:10221000031D1E296E30B0000030B1000130B20045
:102220000030B3005608063E86008701403FB400E8
:10223000413FB5009531A4259031CE2A2000560AA1
:10224000860087018108031DA4295608860087019E
:1022500001081F390038031D4329C301C40143305D
:10226000B0000030B1000230B2000030B3005608B8
:10227000063E86008701403FB400413FB5009531DE
:10228000A4259031CE2A2000560886008701010837
:102290001F39023A031DA0295608043E8600870113
:1022A00001080F39BF003F08CF0002304F0203186A
:1022B0009C290530BF003F08F1004F089D31AC2537
:1022C0009031043EA03E8600870101082000C00036
:1022D0004008D0005608043E86008701403FBF00FA
:1022E000413FC000BF1B77295008013979295008A8
:1022F0000239BF00C0013F08C7004008C8004808B5
:1023000047040030031D0130BF003F08C500C6016F
:102310004530B0000030B1000230B2000030B300F0
:102320005608063E86008701403FB400413FB50095
:102330009531A4259031CE2A9D315C259031CE2A4D
:102340009D315C259031CE2A2000560A86008701F7
:1023500001080B3A031DB0299D314A259031CE2A40
:102360002000560A8600870101080A3A031DCD297C
:10237000CA014A30B0000030B1000130B200003074
:10238000B3005608063E86008701403FB400413F37
:10239000B5009531A4259031CE2A2000560A86003A
:1023A00087010108013A0319DC29560A86008701D2
:1023B0000108033A031DCC2ACB01CB0A560886003C
:1023C000870101081F39023A031DC12A5608023E3F
:1023D0008600870116000104031DC12A5608043E29
:1023E0008600870101080F39BF003F08D500560855
:1023F000043E8600870101088039BF003F08D100F4
:10240000023055020318C12A560A860087010108C6
:10241000033A031D352A51080319212A0530BF004C
:102420003F08F10055089D31AC259031043EA03E97
:10243000860087018114200055089E319526903131
:10244000BF2A05302000BF003F08F10055089D312C
:10245000AC259031043EA03E860087010114200087
:1024600055089D31CE259031BF2A2000510803190F
:10247000762A0530BF003F08F10055089D31AC2594
:102480009031033EA03E8600870101082000C00075
:102490005535C1000130C135FF3E031D4B2A413582
:1024A000053E203E86008701400881005535BF006B
:1024B0000130BF35FF3E031D592A3F35043E203E03
:1024C000860087018101F730BF000530C000400859
:1024D000F10055089D31AC259031043EA03E8600A8
:1024E000870120003F088105FD30AF2A0530BF007D
:1024F0003F08F10055089D31AC259031023EA03EC9
:102500008600870101082000C0005535C100023057
:10251000C135890B882A410A203E86008701400880
:1025200081008830BF005535C0000130C035FF3E06
:10253000031D962A4035203E860087013F08810012
:102540000530BF003F08F10055089D31AC259031A2
:10255000043EA03E860087010115FE302000BF002A
:102560000530C0004008F10055089D31AC25903180
:10257000043EA03E8600870120003F088105200020
:10258000CB01CB08031DC82A9D314A259031CE2AA4
:102590009D315C259031CE2AC901C903200049082C
:1025A00008003D0011109110920197018E1511162F
:1025B0001115901190119011901190019830F10027
:1025C0000E30F2000030F3000030F4001030F5005F
:1025D0000030F6009E31242692313D0018169811E5
:1025E0001815981418102000C401C40A02304402BF
:1025F0000318252B4408983EBF00C0010E30C03D93
:102600003F08C2004008C300420886004308870014
:10261000011642088600430887008115420886009B
:10262000430887000115420886004308870081148B
:10263000420886004308870001100130BF003F08B0
:10264000C40702304402031CFA2A3D009601200010
:10265000E701EE012100AC012000C4010230440278
:1026600003184B2B0430BF000530C0004008F100B8
:1026700044089D31AC259231043EA03E860087017E
:1026800020003F0881000130BF003F08C40702302E
:102690004402031C322B2030F1000030F2000030E5
:1026A000F3000030F4001030F5000030F6009E31E9
:1026B0002426923121002A089731AB2792317808DD
:1026C0002000A301A3077708A201A2070830BF00DA
:1026D0003F08A1008030BF003F08A00021002B0868
:1026E0009731AB27923178082000A701A707770818
:1026F000A601A6070830BF003F08A500A401C40139
:10270000C40A023044020318222C0530BF003F08DF
:10271000F10044089D31AC259231A03E860087012E
:1027200001089731AB27923120004435C0000130B9
:10273000C035FF3E031D982B4035023E203E8600EB
:1027400087017708C03F7808C13F0530BF003F08C8
:10275000F10044089D31AC259231023EA03E860036
:10276000870101082000C0004435C1000230C13596
:10277000890BB72B410A203E860087014008810063
:102780008830BF004435C0000130C035FF3E031D16
:10279000C52B4035203E860087013F08810005306B
:1027A000BF003F08F10044089D31AC259231013E45
:1027B000A03E8600870101089731AB2792312000A7
:1027C0004435C0000130C035FF3E031DE32B4035CA
:1027D000063E203E860087017708C03F7808C13F4B
:1027E0000530BF003F08F10044089D31AC2592310F
:1027F000033EA03E8600870101082000C00044354A
:10280000C1000130C135FF3E031D022C4135053E9C
:10281000203E86008701400881004435BF0001301A
:10282000BF35FF3E031D102C3F35043E203E860081
:10283000870181010130BF003F08C4070230440214
:10284000031C852B9731F72708003D00101C2D2C09
:102850009231D12294313D001010901E642C013031
:102860002000E1000030E2006208803AFF00803082
:102870007F02031D3D2C023061020318622C983048
:102880002000DA000E30DB0061085A07DC00620825
:102890005B3DDD005C08DE005D08DF005E08860051
:1028A0005F08870001100130E1070030E23D620857
:1028B000803AFF0080307F02031D602C02306102ED
:1028C000031C3F2C3D009012901D002D0F0C20008A
:1028D000DA00DA0C5A0C0F390038031D952C3D0034
:1028E0000F19952C2000200C890C0F39DA005A089A
:1028F000E00060080D3A031D812C9E31F8269431CA
:10290000912C20006008093A0319912C6008013AC3
:10291000031D8E2C973132279431912C9D315C25EB
:1029200094319D3152259431FE2C3D000F0C200036
:10293000DA00DA0C5A0C0F390038031DA62C3D00C2
:102940000F1DA62C963132269431FE2C3D000F0C23
:102950002000DA00DA0C5A0C0F39003A0319FE2C69
:102960003D000F0C2000DA00DA0C5A0C0F39DB00A6
:1029700002305B020318FE2C3D000F1DDF2C0530DA
:102980002000DA005A08F1003D000F0C2000DB00A7
:10299000DB0C5B0C0F399D31AC259431043EA03E1D
:1029A00086008701811CFE2C3D000F0C2000DA0000
:1029B000DA0C5A0C0F399E3195269431FE2C0530D5
:1029C0002000DA005A08F1003D000F0C2000DB0067
:1029D000DB0C5B0C0F399D31AC259431043EA03EDD
:1029E00086008701011CFE2C3D000F0C2000DA0040
:1029F000DA0C5A0C0F399D31CE2594313D009011DF
:102A0000101F072D9D31322594313D0010132000F9
:102A1000121D08001211080000340634FE3402347E
:102A2000FA34FE34FA34FA34FE34FA340234FE3422
:102A300006340234063406340234053401340934D1
:102A40000234A134013409340134A1340034053492
:102A5000093419340134293403341534003425344D
:102A6000013495340334753401348134023495349F
:102A700001347534053481340134053401340934AA
:102A80003034093431341534813425347F3475348D
:102A900008349534023481340634C034C0340934E7
:102AA00002342934003401340134003480343234A7
:102AB0000934043400340034013403340034023463
:102AC0000034093421340134013400340134223417
:102AD000323400340734053481340334083400348C
:102AE0000134003400340034003400340034003445
:102AF0001234013400340234003400340034083419
:102B0000D834043400340034033400340134023443
:102B1000003401340C3403346D3400346F34003429
:102B20007534003473340034653400340A340334AB
:102B300041340034633400346D340034653400347F
:102B400004340334093404340030200033020830E4
:102B500003193202031CB12D0830B8000030B9004F
:102B6000B72D3308B901B9073208B801B8073808DA
:102B7000B6003608BE003E08B600B7013508370279
:102B8000031DC42D34083602031CCD2D3508BB01AE
:102B9000BB073408BA01BA07D42D3E08B600B70106
:102BA0003608BA003708BB003A08B6003608BE003F
:102BB00035083302031DDE2D340832020030031CB9
:102BC0000130B6003608ED003108F201F207300896
:102BD000F101F1073E08B600B7013608F3003708E7
:102BE000F40021002B089E316A26953120003E0812
:102BF000B600B701360830072100AD0020003708C5
:102C0000313D2100AE00200033083502031D0A2E9D
:102C100032083402031C112E3308BD01BD073208EF
:102C2000152E3508BD01BD073408BC01BC073E08A0
:102C3000B600B701B609B709B60A0319B70A3C08C6
:102C40003607E4003D08373DE5002100AC152000C3
:102C50003E08B600B7013608F7003708F8009E3185
:102C6000432608002000670803193B2E66083D0034
:102C700096002000E701650864040319932E0030D4
:102C80006502083003196402031C4B2E0830B200A1
:102C90000030B300512E6508B301B3076408B201D8
:102CA000B2073208B0003008B40021002E08F2014B
:102CB000F2072D08F101F10720003408B000B1013E
:102CC0003008F3003108F40021002B089E316A26F9
:102CD000963120003408B000B1013008E402310818
:102CE000E53B3408B000B10130082100AD072000F9
:102CF00031082100AE3D200065086404031D892EC3
:102D00003408083A031D892E6D080319892EE8013D
:102D1000E80A3408B000B1013008F7003108F800C3
:102D20009E3143260800200068080319A32E0030B6
:102D3000F7000030F8009E31432696312000E8016C
:102D40009731F72708002000EB08031D08006908E9
:102D50000319B32E8001800A6A08B0003008810090
:102D600069089631B22E9731F72708002000CE006F
:102D70004E0886008701443FC9004E0A860087013D
:102D80000108063A031D302F4E088600870101080E
:102D9000813A031D302F4E08023E86008701403FD6
:102DA000C400413FC5004508C6004608CA00FF30C0
:102DB000CB00FF30CC004A08213A031DED2E4D30E8
:102DC000C4004408F10049089D319C2596317208E1
:102DD0002000CC01CC077108FE2E4A08223A031DC0
:102DE000002F4D30C4004408F10049089D3166258C
:102DF000963172082000CC01CC077108CB01CB07BB
:102E0000CC1F042FFF3008004E08063E86008701C5
:102E1000403FC400413FC50045084C02031D122F2E
:102E200044084B02031C1D2F4E08063E86008701F6
:102E3000403FC700413FC800232F4C08C801C807C6
:102E40004B08C701C7074808C001C0074708BF01B2
:102E5000BF07C101C2014D089E310726003008009E
:102E6000FF30080020002108FA007A08B2006B0841
:102E7000013A031D4A2F69080319472F8001800A70
:102E80006A08FA007A08810069089731462F97315D
:102E9000F727080020006C08031908003208FA0020
:102EA000FB0165087B02031D572F64087A02031C8F
:102EB000602F6508B101B1076408B001B007672F42
:102EC0003208FA00FB017A08B0007B08B100300834
:102ED000FA007A08B30021002A08F1000030F2005D
:102EE00020003308FA00FB017A08F3007B08F400A5
:102EF0006C089E316A26973120003308FA007A0860
:102F0000EC073308FA00FB017A08E4027B08E53B92
:102F100008303202031C902F65086404031D08006A
:102F2000320833020318A72F9D315C25973120000A
:102F300069080319A32F80016A08FA007A08810042
:102F400069089731A22F9731F727200008009D319B
:102F50004A25200008002000BA003A08BD000030D1
:102F6000BE0020303E02003003193D02031CBF2F7B
:102F70003E08F801F8073D08F701F70708003E088A
:102F8000B0003008BB003D08B0003008BC003C0871
:102F90008039B000B1013B08B200B301B235B30DC6
:102FA00030083207B4003108333DB5003508340429
:102FB0000030031D0130B600B7013608F1003708B4
:102FC000F2005030F3000030F4009D31EA2520007B
:102FD0003C087F397107B80072080318720AB900FB
:102FE0003808E03EF7001F30393DF80008002100A6
:102FF000AD01AE012000EC01E401E501E9010800AA
:103A5E0020006E0808000130F1007108FC07080014
:103A6E002000CF004F089631B6260800FE00120047
:103A7E001E00FE0B3E2D00340830F10071082000B0
:103A8E00A500A40108002000A401A501C830F10082
:103A9E007108A40008000830F10071082000A10090
:103AAE008030F1007108A00008000830F1007108A4
:103ABE002000A5008430F1007108A40008001D301C
:103ACE00F300710886008701730881003230F1001F
:103ADE000030F200080000340034003400340034AA
:103AEE00E034E834083408340034D034D8340034A8
:103AFE00F6000530F5007508F10076089D31AC250D
:103B0E00013EA03E8600870101080800F600053040
:103B1E00F5007508F10076089D31AC25043EA03EF7
:103B2E00860087010108023908006130F30073082E
:103B3E00F4007408F3007108860087017308810091
:103B4E000930F1000030F2000800F400F301741C9B
:103B5E00B42D7108F2007208F3070310F10D031073
:103B6E00F40CF408031DAE2D73080800F200723534
:103B7E00F1000130F135FF3E031DC12D7135043EBC
:103B8E00203E86008701010D010D01390800F3006A
:103B9E007335F1000230F135890BD22D710A203EBA
:103BAE008600870181018430F1007335F200013007
:103BBE00F235FF3E031DDF2D7235203E8600870154
:103BCE00710881000800F501F601711CF22D7308D1
:103BDE00F5077408F63D0130F335F40D890BF32D1E
:103BEE000130F236F10C890BF82D72087104031DA9
:103BFE00EC2D7608F201F2077508F101F1070800C5
:103C0E002000C3004108FB007B08E9004208FB00CE
:103C1E007B08EA004308B0009530B1004008B301BC
:103C2E00B3073F08B201B2074008B501B5073F0818
:103C3E00B401B4079531A42508007208F901F907FB
:103C4E007108F801F8070130F5020030F63BFF303D
:103C5E007606031D342EFF3075060319080073080F
:103C6E00F700780886007908870077088100013010
:103C7E00F8070030F93D2A2E00309D318D259E31FA
:103C8E000038031D080000302100AC190130F90086
:103C9E007908FA002000A4017A0803195C2E77082F
:103CAE00F9007908A500C830612E7708F900790867
:103CBE00A5008830F9007908A4000830F9007908C9
:103CCE002100AC060800F6007208F801F80771082A
:103CDE00F701F7077608F5007508F9000130F302D1
:103CEE000030F43BFF307406031D7F2EFF30730649
:103CFE000319080077088400780885000008F5008D
:103D0E00790886008701750881000130F7070030B9
:103D1E00F83D0130F5007508F907752EF8000530ED
:103D2E00F5007508F10078089D31AC259E31033EF3
:103D3E00A03E860087010108F6007835F7000130B5
:103D4E00F735FF3E031DA72E7735053E203E860034
:103D5E008701760881008430F5007835F600013051
:103D6E00F635FF3E031DB72E7635043E203E860007
:103D7E008701750881000800F400F408031DD32E96
:103D8E00A030F300710886008701730881000430AB
:103D9E00F1000030F20008007408013A031DE32E12
:103DAE009630F300710886008701730881000A308F
:103DBE00F1000030F20008007408023A031DF32EE1
:103DCE008A30F300710886008701730881000C3079
:103DDE00F1000030F2000800FF30F100FF30F20079
:103DEE00080021002A082000D7005708D9005908DA
:103DFE00860087010030811B0130EB009D31432589
:103E0E009E3120006508640403191B2F69080319ED
:103E1E00182F80016A08D7005708810069089F3162
:103E2E00172F9731F7279E312000590886008701FA
:103E3E00010E890C03390038031D2E2F90312F20CF
:103E4E009E312000D7005708D800D81F3A2F5908A6
:103E5E009D3137259E312000D7005708D800D81F36
:103E6E003A2F9D315C253D000E1208002000B10056
:103E7E006E080319080031089D318D259F310038D9
:103E8E0003194B2F2000080020003135F9000130B6
:103E9E00F935FF3E031D4F2F7935043E203EFA00C3
:103EAE007A08B2000530F9007908F10031089D3129
:103EBE00AC259F31043EA03E86008701003081195B
:103ECE000130FA007A082000B0003208860087011F
:103EDE008101300803197C2F7708F900320A860019
:103EEE00870179088100C830842F7708F900320ADB
:103EFE0086008701790881008830F9003208860033
:103F0E008701790881000830F9000530FA007A0837
:103F1E00F10031089D31AC25043EA03E860087019C
:103F2E0079088106200008002100AF019231D122CC
:103F3E009F3101309D317F259F312000E3006308C2
:103F4E002100B000943125249F319D312F259F31C2
:103F5E0000380319A92F01309D318D259F3100386E
:103F6E00031DA92F01309D31BD259F31003A031D40
:103F7E00A92F40307C02031CA92F0E302000E30035
:103F8E0063082100AF0530088600870181012F08E4
:103F9E000D3E95310A009F312000E3002100300ACA
:103FAE00860087012000630881000130E30063086A
:103FBE002100AF072F080D3E95310A009F312000DA
:103FCE00E30021003008023E8600870120006308CE
:103FDE0081000130E30063082100AF070330F700D2
:103FEE000030F80001309F313D279F31FC01A92F91
:00000001FF
