:06200000000090310B28E6
:10200800903120007F08F0007008FF00090090312F
:102018000D28FC01EC01ED01EE01EF01A330840075
:102028000030850025309731F127200096319F2E0A
:1020380020004208013A031D332840081F390038A0
:10204800031D33282100C01720004108033A031D4F
:1020580031282100B001B00A33282100B001200046
:102068004208031D080040081F39023A031D0800F2
:1020780044080F39003A0319080044080F39D800FA
:1020880002305802031808006E08203A031D0800A1
:102098002100C0172000C41B5E2844080F39AD3E3C
:1020A800860087010108D8005808DD0044080F3968
:1020B800AB3E6A2844080F396C3E86008701010848
:1020C800D8005808DD0044080F39A93E860087016A
:1020D8000108D8005808DC005C187728FB30D800C5
:1020E8005808DD0578285D15C41B80285D08D800D0
:1020F80044080F39AD3E85285D08D80044080F39DB
:102108006C3E86008701580881004108033A031D88
:10211800A6285D0886008701811F9E28C41B982871
:1021280044080F39AB3E9B2844080F39A93E860066
:10213800870181148430D8005D088600870158081B
:10214800810408000430D8005808DD065D088600C0
:102158008701811FCA287F30D8005D088600870163
:10216800580881055D088600870101170530D300EE
:102178000030D4005D08D8005808D5000130D600DA
:102188000030D7009E3105269031CF2820005D0809
:1021980086008701011704302000D8005808DD06A2
:1021A800DC18DB285D0886008701811FFE28C41B18
:1021B800E12844080F39AB3EE42844080F39A93E0A
:1021C8008600870181103B30D8005D0886008701B2
:1021D800580881050530D3000030D4005D08D800C8
:1021E8005808D5000130D6000030D7009E310526AA
:1021F800903106293B302000D8005D088600870111
:1022080058088105200044080F39983ED800D901A4
:102218000E30D93D5808DA005908DB00FE30D800E6
:102228005A0886005B0887005808810508002000C6
:10223800EE08031D2F293D008E01920116309100F2
:102248009F3097007B3092008E192C298E152829F3
:102258002000EE01EE0A6E08013A031D3F293D00F9
:102268008E1A3F2990019201121412160230200092
:10227800E3006308EE003D001019121D4C29FB30E5
:102288002000E30063083D0090059D3197259131BA
:102298003D008E1C52292000121108001018121C33
:1022A800622992310B22913104302000E300630847
:1022B800EE00FE30E30063083D009005101A121E80
:1022C8006E299D31AF259131EF302000E30063087E
:1022D8003D009005101F9129121F7F29733020009F
:1022E800D3000030D400D5010130D6000030D7002B
:1022F8009E3105269131BF302000E30063083D0080
:1023080090052100380803198B290130B802B80854
:10231800031D91299731682791313D00901A921E2B
:1023280098299D31E52591313D009018921CAB29E3
:10233800FF302000D3007F30D400D5010130D60013
:102348000030D7009E31052691313D0093010430BD
:1023580020006E020318B229121108003D00921DD8
:10236800082A2000E501012A0F082000E30063087D
:102378002100C500450C2000E300E30C630C0F3975
:10238800E40064082100BA00F7302000E300630885
:102398003D00900521004519D4293A08AB3ED729BC
:1023A80021003A08A93E860087010108013920006A
:1023B800E3000130E30601086306FE396306810085
:1023C8002100BA08031DEC29963133269131FC29E6
:1023D80072302000D3000030D400C530E300630819
:1023E800D5000030D6000030D7009E310526913147
:1023F80001302000E3006308E50704306502031894
:10240800082A3D009019B82920001211080021005F
:1024180012113D009301900198010E30F40099309B
:10242800F300F5017508031D292A7308860074084E
:10243800870081010130F3070030F43D0130F100DD
:102448007108F50775080319192A16303D0091001F
:102458009F3097007B309200F6010830760203180F
:102468004E2A7608F1000130F135FF3E031D382A67
:102478007135203E860087010030C03F0030C13FE3
:10248800C23FC33F0130F1007108F60708307602F9
:10249800031C352A3D000E1796010E120E133D003F
:1024A800901D602AF730F100710890052100C001E5
:1024B800A501A601A701532A0130F10071082100E6
:1024C800B6000130F1007108B700B201B301B101E3
:1024D800F6010230760203188D2A76086C3E8600D3
:1024E800870181017608AD3E860087018101760863
:1024F800A93E8600870181017608AB3E86008701E8
:1025080081010130F1007108F60702307602031CE0
:10251800712A2830F10071082000EC0016303D00C7
:1025280098004030F1000030F20071082000A2004D
:102538007208A3000830A1008430F1007108A000DF
:102548002100C3012000EE01080020006F0886006A
:102558008701413FF6007608F300F4017408210072
:102568002702031DB92A730826020318BF2A260862
:10257800F3007308F6000330A33E8600870176084F
:10258800F300F401F309F409F30A0319F40A403FCC
:102598007307A600413F743DA700F5017608750250
:1025A8000318EA2A7508483E860087010108F300E7
:1025B800230886008701730881000130F30073083F
:1025C800A3070130F3007308F507D22A0330A33EAE
:1025D800860087011600010403191B2B0830F3003D
:1025E8007C0A86008701730881004830F3000030B8
:1025F800F4007C08023E860087017308C03F740817
:10260800C13F20006F0886008701011B132BC830CB
:10261800F3007C0886008701730881000800883071
:10262800F3007C08860087017308810008000830E1
:10263800F3007C0A86008701730881004030F300AC
:102648000030F4007C08023E860087017308C03F12
:102658007408C13F8430F3007C0886008701730842
:1026680081002100280803193C2B280893313B2BB3
:10267800A513B408031D0800973168270800003423
:102688000634FE340234FA34FE34FA34FA34FE34B2
:10269800FA340234FE340634023406340634023482
:1026A800D434CA34BE348A3405340134093402348B
:1026B800A134013409340134A13400340534093417
:1026C80019340134293403341534003425340134E1
:1026D800953403347534013481340234953401342B
:1026E8007534053481340134053401340934303407
:1026F800093431341534813425347F347534083441
:102708009534023481340634C034C0340934023478
:102718002234003401340134003480343234093432
:1027280004340034003401340334013402340034F6
:102738000934213411340134003401342234323460
:10274800003407340534813403340334003401344D
:1027580012340134003402340034003400340834B4
:10276800D8340434003400340334003401340234DF
:10277800003401340C3403346D3400346F340034C5
:102788007534003473340034653400340A34033447
:1027980041340034633400346D340034653400341B
:1027A8000434033409340434200040081F39013A42
:1027B800031D08004408031D08004108063A0319D0
:1027C800FF2B0B2C21004308013A031D0B2C9C30D6
:1027D800BE009330BF000930F72B58302100BE00EF
:1027E8009330BF003230C1000030C200C030F10069
:1027F8007108C0000B2C20004308213A0319E62B6E
:10280800033A0319F12B013A03190B2C0B2C200066
:10281800400E890C0339013A031D0800472CC730C4
:102828002100BE000030BF000130C1000030C200EE
:10283800C130F1007108C00008008030F100710853
:102848002100C00020004308F10071082100C700E2
:102858000800C6302100BE000030BF000130C100B2
:102868000030C2008130F1007108C00008008030DB
:10287800F10071082100C00020004208F100710831
:102888002100C600080020004108013A03195C2C09
:10289800033A0319132C013A03192D2C0A3A031988
:1028A8005C2C033A0319212C013A03193B2C5C2CAC
:1028B80008002100C0170E302000DA009930D90036
:1028C800DB015B08031D782C590886005A0887002D
:1028D80081010130D9070030DA3D0130D8005808AD
:1028E800DB075B080319682C0030F1000030F200A8
:1028F8002030F3000030F40020309D31C825943199
:102908003D000E172000DC0102305C0203189E2CEB
:102918005C08A93E8600870181015C08AB3E860001
:10292800870181010130D8005808DC0702305C02B9
:10293800031C8C2C0030F1000030F2000130F30051
:102948000030F400C4309D31C82594313D000E1389
:1029580028302000D8005808EC002030D80058084B
:10296800EF006F08D8005808FC004208D800580843
:102978002100C300C308031DC72C10302000D80055
:102988005808EE00080001302000D3000030D400C1
:10299800C330D8005808D5000130D6000030D70021
:1029A8009E31052620302000D8005808EE00080087
:1029B8003D000E122100C01B132DA51FF02C023064
:1029C800F6007608B900B308031DEC2C9F315B278D
:1029D8002100B701B60108000830F6007C0A86001D
:1029E8008701760881004030F6000030F7007C0847
:1029F800023E860087017608C03F7708C13F8C30C9
:102A0800F6007C0886008701760881008430F6008D
:102A180020006C08860087017608810008002000E5
:102A2800C01F282D2100B901B90AB208031D1F2DA6
:102A38009F315B2794312100B701B601B408031D0B
:102A480008009731682708000230F6007608210050
:102A5800B9000830F6007C0A8600870176088100F4
:102A68004030F6000030F7007C08023E86008701FF
:102A78007608C03F7708C13F8430F6007C0886009E
:102A8800870176088100B701B601B408031D080064
:102A980097316827080020004008803A031D080085
:102AA800C030F10071082100C000B42DAC30210005
:102AB800BE009330BF001230C1000030C2000800D1
:102AC800573084009330850020004208840703189B
:102AD800850A003F2100BE009330BF003F08F20086
:102AE8003E08F10002307107840072080318720A68
:102AF80085000008F3007308C1003F08F2003E0893
:102B0800F10003307107840072080318720A850007
:102B18000008F3007308C2000800033020004202D6
:102B28000318AE2D543093310A0095314207933182
:102B38000A0095312100BE000030BF003E08840025
:102B48003F0885000008F100F2017108C100720811
:102B5800C20008002100C00108002100C0010800CF
:102B680020004308013A03195A2D033A0319642D2A
:102B7800013A0319912DB12D08000830F1007108B0
:102B8800F300003021004202083003194102031803
:102B9800DF2D4108F1007108F300BC08031DD72D93
:102BA800BC01BC0ADF2D3C08013A031DDF2D0230B1
:102BB800F1007108BC000330BE3E8600870173082F
:102BC800F100F201F109F209F10A0319F20A403F92
:102BD8007107C100413F723DC2007308F100200037
:102BE8006C0A86008701710881004830F10071087D
:102BF8002100BB00401C162E2F2E3E0884003F08E3
:102C080085000008F1003B088600870171088100F3
:102C18000130BE070030BF3D0130F1007108BB072D
:102C28000130F302F30803190800012E3E0884005E
:102C38003F0885000008F1003B08860087017108FD
:102C480081000130BE070030BF3D0130F10071083E
:102C5800BB070130F302F308031908001A2E2D30C0
:102C68002000E00060082100B8004508FD39031D78
:102C7800932E45363F392000E0000130E035FF3E15
:102C8800031D422E6035203EE1006108EF006F0809
:102C9800E0006008FC000430E0006008FC066F08F3
:102CA80086008701010C890C0F390D3A031D902EFF
:102CB800E201083062020318812E6F08023E860086
:102CC80087010108860087010108E0006208403E8C
:102CD80086008701600881006F08023E8600870130
:102CE8000130810741310318810A0130E000600892
:102CF800E20708306202031C612E4030E000003019
:102D0800E1006F08023E860087016008C03F610845
:102D1800C13F9E31892608009731C7270800FD303A
:102D2800210045052000E0006008043A031D080062
:102D38009731082708002000EB012100B5019231E6
:102D48000B22963191311B219631203020006E02E2
:102D5800031CA62E3D008E18A62E21003508031947
:102D6800C32E350886008701010D010D01392000A9
:102D7800E600E7016608E9006708EA00C62E2000B9
:102D8800E901EA016A086904031DA62E4030210002
:102D98003D02031CA62E0E302000E6006608EB0557
:102DA8002100A00120006B08443E93310A009631AF
:102DB800E60066082100A10001302000E600660850
:102DC800EB076B08443E93310A009631E60066082B
:102DD8002100A20001302000E6006608EB07F1019F
:102DE800F10AA030E6006608F2000330E700670841
:102DF800F30001309E31C82696312000E8006808AB
:102E08002100B500BD01A62E20006C0886008701B0
:102E18000030011B0130F6000430F4007408EC06A1
:102E28006E08083A031D252F42083D009600160833
:102E38000319202F1030212F0430F40074082000CB
:102E4800EE0021003908013A031D5D2F4830F400D7
:102E58000030F50020006C08023E860087017408E7
:102E6800C03F7508C13F9531C125973121003C0805
:102E7800023A031D482F8430F40020006C088600B5
:102E88008701740881000800F608031D542FC83014
:102E9800F40020006C08860087017408810008008F
:102EA8008830F40020006C088600870174088100CF
:102EB8000800A51F662F28080319652F28089731D1
:102EC800642FA513B90108002100B608031D0800E6
:102ED8000130F1007108B600B708031D0800013081
:102EE800F1007108B7003908023A031D882F200045
:102EF8006C0A860087018101C830F1006C088600E1
:102F0800870171088100080021003908013A031D72
:102F18000800AF010830F10020006F0A8600870121
:102F2800710881004030F1000030F2006F08023E65
:102F3800860087017108C03F7208C13F8430F100E4
:102F48006F0886008701710881002100AF01AF0A70
:102F58000830F1007C0A8600870171088100403042
:102F6800F1000030F2007C08023E860087017108FB
:102F7800C03F7208C13F8030F1007C08860087019D
:102F880071088100080021003908023A031DCF2F7B
:102F98009231A92208002100B901AF08031DEF2FC3
:102FA8000830F7007C0A86008701770881004030E6
:102FB800F7000030F8007C08023E86008701770899
:102FC800C03F7808C13F8C30F7007C088600870135
:102FD800770881000800AF01080064008001013112
:062FE800890BF22F0034FA
:103000009F31C92F9F31CC2F9F31FE2F9F31CC2F65
:103010009F31FE2F9F31B12F9F31B92F9F31E72F65
:103020009F31BF2F9F31BC2F9F31CF2F9F31DB2F7F
:043030009F31FE2F9F
:103B2E002100B10174302000D3000030D400D50143
:103B3E000030D6000030D7009E3105263D008E1095
:103B4E001211FB302000D80058083D0090050800E7
:103B5E003D001215EF302000D80058083D009005AA
:103B6E008E142100B101B10A75302000D30000304F
:103B7E00D400D5010030D6000030D7009E31052686
:103B8E000800F6007608F5007508F7000130F3021C
:103B9E000030F43BFF307406031DD72DFF30730643
:103BAE00031908007108F50077088600870175086B
:103BBE0081000130F5007508F707CD2D3D00181C6A
:103BCE00002E20006F08860087010108803A031D31
:103BDE00FE2D6C08860087010108843A031DFE2D18
:103BEE008C30F1006F0886008701710881003D005E
:103BFE001810DF30F10071089005080073302000B6
:103C0E0053065404031D112E0130FB007B082100C6
:103C1E00BD0708000130200053065404031D1F2E5B
:103C2E001A30FB007B08F80001309E312826080070
:103C3E000330200053065404031D08009331D8238B
:103C4E0008002000D200781D312EF10152089E315D
:103C5E004D269E31F81C392EF101F10A2000520832
:103C6E009E314D2620005208983EF900FA010E3082
:103C7E00FA3D7908D0007A08D1007808F90050088A
:103C8E00860051088700790881000800F600203070
:103C9E00F2007208F7007108F2000130F235890B5C
:103CAE00552E7608F3000130F335FF3E031D5B2ED3
:103CBE0073357207F4000130F435FF3E031D632E99
:103CCE007435F5007508F7077708860087018113AC
:103CDE00F108031D772E7708F2007608AD3E7B2E95
:103CEE007708F20076086C3E860087017208810024
:103CFE0077088600870101137708043E8600870146
:103D0E00011708002100BC01B401B201B301AF01DB
:103D1E00B9017F302000DF006C08860087015F0844
:103D2E0081050430DF005F08EC067F30DF006C0891
:103D3E00860087015F0881050430DF005F08EC060E
:103D4E007F30DF007C08860087015F088105210037
:103D5E00C001C101C201A501A601A7019F31A9277A
:103D6E009E3103302000D3000030D400D501003046
:103D7E00D6000030D7009E3105269E319431DC24CA
:103D8E000800F60071080319CF2E76086C3ED12E6E
:103D9E007608AD3E860087010108F4007408F7002E
:103DAE00F708031DDC2E003008007208F400003006
:103DBE00F5007708023E860087017408C03F75083B
:103DCE00C13F7308F400770A8600870174088100EA
:103DDE004030F4007708860087017408810588302A
:103DEE00F4007708860087017408810471080319AE
:103DFE00052F0430F40076086C3E092F0430F400D1
:103E0E007608AD3E860087017408810677080800A3
:103E1E002000C8010030C900422F2100C017210028
:103E2E003008013A031D4E2F2000C8144E2F2100DA
:103E3E00C0174E2F2100C0172000C41B2A2F440884
:103E4E000F39AD3E2D2F44080F396C3E8600870189
:103E5E000108F1007108F200720886008701811FC7
:103E6E004E2F720886008701011D4E2F0130F10082
:103E7E007108C8004E2F40081F39003A0319142F3D
:103E8E00013A03191E2F033A0319212F4E2F210039
:103E9E00C01F08004830BE000030BF004014023082
:103EAE00F1007108C10008002100B201B301390808
:103EBE00023A031D7D2F0830F4007C0A860087012C
:103ECE00740881004830F4000030F5007C08023E92
:103EDE00860087017408C03F7508C13FC830F400E2
:103EEE007C088600870174088100080042082000C3
:103EFE004702031D862F21004108200046020318A9
:103F0E00912F47082100C201C20720004608210058
:103F1E00C101C1079531C1259F314830F4000030F1
:103F2E00F50020006C08023E860087017408C03F31
:103F3E007508C13FC830F4006C088600870174080C
:103F4E00810008002000400E890C0339003A031D41
:103F5E000800F32F2100C01708302000DE005E0895
:103F6E00EE00080095314F25080094315D240800BD
:103F7E00C3302100BE000030BF004014C101C10A91
:103F8E00C01708009F310F27080090311C20080031
:103F9E0020004408C43E2100BE000030BF00401483
:103FAE00C101C10AC01708002100C0172000420835
:103FBE00DE004408C43E860087015E0881000800CA
:103FCE000230D3000030D400D5010030D6000030CE
:103FDE00D7009E31052608002000410884000D30D0
:103FEE0004020318080098310435003E82000800D0
:020000040001F9
:04000E000CCFCDDF67
:00000001FF
