:10200000000090310B280800903120007F08F0007C
:102010007008FF00090090310D28FC01A0308400F9
:102020000030850011309731FA279031413084001B
:102030009C308500B1308600003087000F309B3126
:10204000F22320009E31962E2000C90121003B087A
:102050002000BF003F08DC005C0A860087010630D4
:102060000106031DF3285C08860087018030010605
:10207000031DF3285C08023E86008701403FBF0035
:10208000413FC0004008C1004108D9005C088600FB
:102090008701423FDA005903031D69286430B0000C
:1020A0009830B10064308400983085000008BF008B
:1020B000C0013F08B2004008B3005C08063E86003D
:1020C0008701403FB400413FB5009F3177279031F1
:1020D000382B023020005906031D9D285A08031989
:1020E00075289C3110249031382B20005A35BE3E83
:1020F00086008701403FCC00413FCD004C08B00036
:102100004D08B1004D08C0004C08BF0002303F0729
:10211000840040080318400A8500003FB200013FD8
:10212000B3005C08063E86008701403FB400413F93
:10213000B5009F3177279031382B033020005906A6
:10214000031DCA285730BF003F08F1005A089D31CF
:102150006025903172082000CF007108CE00CF1F9B
:10216000B5289C3110249031382B20005708B0003E
:102170005808B1004F08B3004E08B2005C08063E94
:1021800086008701403FB400413FB5009F3177276B
:102190009031382B4B302000BF003F08F1005C0825
:1021A0009B31E123903172082000D1007108D000EA
:1021B000D11FDE289C3110249031382B20004B0891
:1021C000B0000030B1005108B3005008B2005C0804
:1021D000063E86008701403FB400413FB5009F3175
:1021E00077279031382B20005C0A86008701053064
:1021F0000106031D09292100A701A70A20005C0888
:1022000086008701423F2100A6009B31FF239031C9
:10221000382B20005C0A8600870109300106031D67
:1022200024295C0886008701423FD2005208903181
:10223000032090319B31FF23903120005208BF00D2
:102240003F082100B000382B20005C0A860087017F
:1022500008300106031D4029B030B0000030B10045
:102260000130B2000030B3005C08063E86008701F2
:10227000403FB400413FB5009F3177279031382B64
:1022800020005C0A860087010108031DCE295C0836
:102290008600870101081F39003A031D6B299B3115
:1022A000DE23903172082000C3007108C200423062
:1022B000B0000030B1000230B2000030B3005C0862
:1022C000063E86008701403FB400413FB5009F3184
:1022D00077279031382B20005C08860087010108A1
:1022E0001F39023A031DCA295C08043E8600870193
:1022F00001080F39BF003F08D30002305302031812
:10230000C6290530BF003F08F10053089C317024F6
:102310009031043EB13E8600870101082000C000D4
:102320004008D4005C08043E86008701403FBF009F
:10233000413FC000BF1B9F2954080139A1295408FF
:102340000239BF00C0013F08C7004008C800470865
:1023500048040319AD290130AE290030BF003F0801
:10236000C400C5014430B0000030B1000230B200FA
:102370000030B3005C08063E86008701403FB40091
:10238000413FB5009F3177279031382B9C31102485
:102390009031382B9C3110249031382B20005C0A6E
:1023A000860087010B300106031DF1295C088600B9
:1023B0008701423FF1005C08043E86008701010866
:1023C0009B31D92390312000BF003F08C600C61FB3
:1023D000ED299C3110249031382B9B31FF23903113
:1023E000382B20005C0A860087010A300106031D95
:1023F000202A5C08043E8600870101089B31D72310
:1024000090312000BF003F08D500D51F0B2A9C311A
:1024100010249031382B55302000B0000030B1002E
:102420000130B2000030B3005C08063E8600870130
:10243000403FB400413FB5009F3177279031382BA2
:1024400020005C0A86008701010303192E2A5C0A1A
:102450008600870103300106031D362BCA01CA0A14
:102460005C088600870101081F39023A031D2B2BE7
:102470005C08023E8600870116000104031D2B2B19
:102480005C08043E8600870101080F39BF003F0841
:10249000DB005C08043E8600870101088039BF002C
:1024A0003F08D60002305B0203182B2B5C0A860023
:1024B000870103300106031D872A56080319732A72
:1024C0000530BF003F08F1005B089C31702490315B
:1024D000043EB13E86008701811420005B089D31D7
:1024E00032259031132B05302000BF003F08F1004A
:1024F0005B089C3170249031043EB13E8600870118
:10250000011420005B089C31EB249031132B200038
:1025100056080319C82A0530BF003F08F1005B08C0
:102520009C3170249031033EB13E86008701010842
:102530002000C0005B35C1000130C135FF3E031DE6
:102540009D2A4135053E203E8600870140088100D6
:102550005B35BF000130BF35FF3E031DAB2A3F3561
:10256000043E203E860087018101F730BF00053020
:10257000C0004008F1005B089C3170249031043E9B
:10258000B13E8600870120003F088105FD30032B06
:102590000530BF003F08F1005B089C31702490318A
:1025A000023EB13E8600870101082000C0005B3575
:1025B000C1000130C135FF3E031DDA2A4135013E1D
:1025C000203E86008701400881008830BF005B35CF
:1025D000C0000130C035FF3E031DEA2A4035203ED1
:1025E000860087013F0881000530BF003F08F100E9
:1025F0005B089C3170249031043EB13E8600870117
:102600000115FE302000BF000530C0004008F10079
:102610005B089C3170249031043EB13E86008701F6
:1026200020003F08810520005C0A860087010330F6
:102630000106031D1D2B01301E2B0030BF003F087B
:10264000F1005C08043E8600870101089B31CC2321
:1026500090312000CA014A08031D322B9B31FF2311
:102660009031382B9C3110249031382BC901C9038B
:102670002000490808002000E7006708860087015D
:10268000443FE600670A8600870106300106031D05
:10269000B32B67088600870181300106031DB32B29
:1026A0006708023E86008701403FC600413FC700E1
:1026B0004708C8004808DC00FF30E400FF30E500B0
:1026C00021305C06031D712B6230C6004608F10004
:1026D00066089C315024933172082000E50071088F
:1026E000812B22305C06031D822B6230C600460817
:1026F000F10066089C316024933172082000E500E7
:102700007108E400E51F862BFF3008006708063ECD
:1027100086008701403FC600413FC7004708650269
:10272000031D942B46086402031C9F2B6708063E7A
:1027300086008701403FD600413FD700A32B6508A4
:10274000D7006408D6006208BF006308C0005708BD
:10275000C2005608C1000030C300C400C5019C314E
:10276000CF2400300800FF302000E000FF30E100FF
:10277000670A860087010103031D282C670886006D
:102780008701A1300106031D282C6708023E860040
:102790008701403FC600413FC7004708C8004808BE
:1027A000CB00670886008701423FCC004B08C6007B
:1027B0004608F1004C08C7004708F2005E30C80028
:1027C0004808F3005A30C9004908F4005F30CA00D5
:1027D0004A08F50066089C3199249331720820005C
:1027E000E1007108E000E11FF72BFF3008006708E7
:1027F000063E86008701403FC600413FC7004708AC
:102800006102031D052C46086002031C102C67089A
:10281000063E86008701403FD800413FD900142C76
:102820006108D9006008D8005E08BF000030C00011
:102830005908C2005808C1005A08C3005B08C40008
:102840005F08C6004608C5009C31CF240030080050
:102850002000670A8600870109300106031D592CF4
:1028600067088600870121300106031D592C67087F
:10287000023E86008701403FC600413FC70047082F
:10288000C8004808CD00670886008701423FCE0097
:102890004D08C6004608F1004E08C7004708F20080
:1028A00066089B31D5232000C8004808CF004F0898
:1028B0000800670A8600870102300106031D882C84
:1028C000670886008701A1300106031D882C670870
:1028D00086008701423FD0005008C6004608F1003C
:1028E00066089B31CD2393312000C7004708D100F3
:1028F0005130BF000030C0000130C1000030C200C4
:102900000030C300C400C5019C31CF240030080052
:102910002000670A860087010A300106031DB92CD2
:1029200067088600870121300106031DB92C67085E
:10293000023E86008701403FC600413FC70047086E
:10294000C8004808D200670886008701423FD300CC
:102950005308C6004608F1005208C7004708F200B5
:1029600066089B31D1232000C8004808D4005408D1
:102970000800670A8600870103300106031DE32C67
:10298000670886008701A1300106031DE32C660855
:102990009B31CF2393312000C6004608DD00DD1FA8
:1029A000D32CFF3008005D30BF000030C000013084
:1029B000C1000030C2000030C300C400C5019C311A
:1029C000CF24003008002000670A860087010B3002
:1029D0000106031D002D67088600870121300106CE
:1029E000031D002D670886008701423FF10066083D
:1029F0009B31D3232000C6004608D50055080800A7
:102A0000FF3008003D0011109110920197018E15C2
:102A1000111611159011901190119011900198308C
:102A2000F1000E30F2000030F300F4001030F50039
:102A30000030F6009C31812495313D001816981124
:102A40001815981418102000C101C10A0230410263
:102A50000318552D4108983EF900FA010E30FA3D51
:102A60007908BF007A08C0003F0886004008870048
:102A700001163F0886004008870081153F08860040
:102A80004008870001153F08860040088700811430
:102A90003F0886004008870001100130F9007908DE
:102AA000C10702304102031C2A2D3D00960121007E
:102AB000A701B001BD012000C1010230410203188D
:102AC0007A2D0430F9000530FA007A08F100410847
:102AD0009C3170249531043EB13E8600870179080F
:102AE00081000130F90079082000C107023041025D
:102AF000031C612D2030F1000030F2000030F300A3
:102B0000F4001030F5000030F6009C31812495313E
:102B100021003B089D31EB25953178082000A3006A
:102B20007708A2000830F9007908A1008030F90088
:102B30007908A00021003C089D31EB2595317808EB
:102B40002000A7007708A6000830F9007908A50042
:102B5000A401C101C10A0230410203184E2E053002
:102B6000F9007908F10041089C3170249531B13E9B
:102B70008600870101089D31EB2595312000413504
:102B8000FA000130FA35FF3E031DC22D7A35023EB0
:102B9000203E860087017708C03F7808C13F053096
:102BA000F9007908F10041089C3170249531023E0A
:102BB000B13E860087010108FA0020004135FB0084
:102BC0000130FB35FF3E031DE12D7B35013E203EEC
:102BD000860087017A0881008830F9004135FA00C3
:102BE0000130FA35FF3E031DF12D7A35203E860077
:102BF0008701790881000530F9007908F100410862
:102C00009C3170249531013EB13E86008701010858
:102C10009D31EB25953120004135FA000130FA3520
:102C2000FF3E031D0F2E7A35063E203E86008701AB
:102C30007708C03F7808C13F0530F9007908F100F6
:102C400041089C3170249531033EB13E86008701D6
:102C50000108FA0020004135FB000130FB35FF3E42
:102C6000031D2E2E7B35053E203E860087017A0807
:102C700081004135F9000130F935FF3E031D3C2E3E
:102C80007935043E203E8600870181010130F9003C
:102C90007908C10702304102031CAF2D9C31072483
:102CA00008003D00101C5C2E9B31CA2396319531E3
:102CB000022596313D001010901E9E2E01302100FD
:102CC000C3000030C4004408803A2000EC0080308B
:102CD0006C02031D6E2E02302100430203189C2E4D
:102CE00098302000EC000E30ED0021004308200059
:102CF0006C07EE002100440820006D3DEF006E08D7
:102D00002100C00020006F082100C100400886009B
:102D10004108870001100130C3070030C43D44085A
:102D2000803A2000EC0080306C02031D9A2E0230A5
:102D300021004302031C702E3D009012901D502F65
:102D40000F0C2000EC00EC0C6C0C0F39003A031D4A
:102D5000CF2E3D000F19CF2E2000200C890C0F39EB
:102D6000EC006C082100C2000D304206031DBC2E91
:102D70009D31A0259631CB2E093021004206031942
:102D8000CB2E4203031DC82E9F3100279631CB2E38
:102D90009C31102496319C311A2496314E2F3D00DF
:102DA0000F0C2000EC00EC0C6C0C0F39003A031DEA
:102DB000E02E3D000F1DE02E97315C2796314E2FFF
:102DC0003D000F0C2000EC00EC0C6C0C0F39003AAD
:102DD00003194E2F3D000F0C2000EC00EC0C6C0C86
:102DE0000F39ED0002306D0203184E2F3D000F1D0C
:102DF000242F05302000EC006C08F1003D000F0C82
:102E00002000ED00ED0C6D0C0F399C3170249631D3
:102E1000043EB13E86008701811C192F3D000F0C36
:102E20002000EC00EC0C6C0C0F399D3132259631F2
:102E30004E2F3D000F0C2000EC00EC0C6C0C0F39F9
:102E40009B31C82396314E2F05302000EC006C08D2
:102E5000F1003D000F0C2000ED00ED0C6D0C0F3962
:102E60009C3170249631043EB13E86008701011CDE
:102E7000442F3D000F0C2000EC00EC0C6C0C0F39C3
:102E80009C31EB2496314E2F3D000F0C2000EC00BE
:102E9000EC0C6C0C0F399B31C92396313D0090111D
:102EA000101F572F9B31E62396313D001013200051
:102EB000121D080012110800210027080319652FB0
:102EC00026083D0096002100A701200821040319CF
:102ED000C22F00302102083003192002031C762F74
:102EE00008302000B2000030B3007E2F21002108FE
:102EF0002000B300210020082000B2003208B000FA
:102F00003008B40021003C08860087012100240815
:102F100084002508850020003408B00012001E003F
:102F2000B00B8E2F20003408B000B1013008210012
:102F3000A002200031082100A13B20003408B0008D
:102F4000B10130082100A407200031082100A53D6F
:102F500020082104031DB72F083020003406031D6C
:102F6000B72F21002B080319B72FA801A80A2000AA
:102F70003408B000B1013008F7003108F8009D3185
:102F800009250800210028080319D12F0030F70077
:102F9000F8009D31092597312100A8019C310724B3
:102FA000080021002908031D080022082304031932
:102FB000E62FF101F10A7C082000B0003008F20091
:102FC000210023088A0022080A0097319C31072437
:102FD0000800F2007235F1000130F135FF3E031DAB
:102FE000ED2F7135043E203E86008701010D010D55
:102FF00001390800640080010131890BFB2F003486
:103000000634FE340234FA34FE34FA34FA34FE3430
:10301000FA340234FE340634023406340634023400
:103020000534013409340234A13401340934013443
:10303000A1340034053409341934013429340334FB
:103040001534003425340134953403347534013497
:1030500081340234953401347534053481340334B9
:1030600005340134093430340934313415348134B1
:1030700025347F3475340834953402348134063471
:10308000C034C034093402342234003401340134F1
:1030900002348034323409340434003400340134CE
:1030A0000334003400340034093421340134013451
:1030B000003401342234323400340734053481348E
:1030C000033408340034013412340134003402343F
:1030D0000034003400340834D8340434003400346C
:1030E0000134003401340234003401340C3403342C
:1030F0006D3400346F34003475340034733400346C
:10310000653400340A340334413400346334003409
:103110006D34003465340034043403340934043429
:103790000800080008000800080000300800013098
:1037A0000800FF300800FF300800FF30080000303C
:1037B000080000300800210030080800F101F20183
:1037C0000800FF30F100FF30F20008000130F10086
:1037D00071082100AC0708002000E8006808933158
:1037E0003B230800FE0012001E00FE0BF32B0034EA
:1037F0000830F10071082000A500A4010800200095
:10380000A401A501C830F1007108A400080021003E
:10381000A401A501AA01A001A101A201A301080020
:103820000830F10071082000A5008430F100710813
:10383000A40008000830F10071082000A1008030C9
:10384000F1007108A0000800F6000530F5007508C9
:10385000F10076089C317024013EB13E860087015C
:1038600001080800F6000530F5007508F10076083B
:103870009C317024043EB13E860087010108023964
:10388000080000340034003400340034E034E834FC
:10389000083408340034D034D834003442349834F6
:1038A0005430F4009830F5007108860087017408E0
:1038B000C03F7508C13F0930F1000030F200080038
:1038C0001030F3009830F400710886008701730807
:1038D000C03F7408C13F3230F1000030F2000800F0
:1038E000F400F301741C782C7108F2007208F307DD
:1038F0000310F10D0310F40C7408031D722C7308EF
:1039000008007108F7007208F8000130F502003075
:10391000F63B750A0319760A031908007708860032
:1039200078088700730881000130F7070030F83D00
:10393000852CAD30F600730886008701760881007B
:10394000CB30F6001B30F70074088600870176083C
:10395000C03F7708C13F75088600870181010330A9
:10396000F1000030F2000800F501F601711CBC2CDA
:103970007308F5077408F63D0130F335F40D890B33
:10398000BD2C0130F236F10C890BC22C7108720487
:10399000031DB62C7608F2007508F100080020001F
:1039A00043082100A200200044082100A3002000B9
:1039B0004508FB007B08FC003F08B0004008B10050
:1039C0004208B3004108B2004208B5004108B40003
:1039D0009F3177270800F3007335F1000130F1358E
:1039E000FF3E031DEF2C7135013E203E860087010E
:1039F00081018430F1007335F2000130F235FF3E71
:103A0000031DFE2C7235203E86008701710881005F
:103A1000080000309C3132249D31003A031D08001B
:103A20002100BD1D152D0130162D0030F90079083B
:103A3000FA002000A4017A080319242D7708F90060
:103A40007908A500C830292D7708F9007908A50064
:103A50008830F9007908A4000830F90079082100BD
:103A6000BD060800F8000530F5007508F10078087B
:103A70009C3170249D31033EB13E860087010108D0
:103A8000F6007835F7000130F735FF3E031D442D71
:103A90007735053E203E8600870176088100843018
:103AA000F5007835F6000130F635FF3E031D542D44
:103AB0007635043E203E86008701750881000800A7
:103AC000F5007508031D742D8C30F3009830F40058
:103AD0007108860087017308C03F7408C13F043035
:103AE000F1000030F20008007503031D872D8230BD
:103AF000F3009830F4007108860087017308C03F16
:103B00007408C13F0A30F1000030F20008000230B2
:103B10007506031D9B2D7630F3009830F400710874
:103B2000860087017308C03F7408C13F0C30F10064
:103B30000030F2000800FF30F100FF30F200080012
:103B400021003B082000E9006908EB006B088600B3
:103B500087010030811B01302100A9009B31F8232F
:103B60009D312100200821040319C92D22082304B6
:103B70000319C62DF1017C082000E9006908F20054
:103B8000210023088A0022080A009D319C31072465
:103B90009D3120006B0886008701010E890C0339D6
:103BA000003A031DDC2D903124209D312000E900D6
:103BB0006908EA00EA1FE82D6B089B31EC239D3170
:103BC0002000E9006908EA00EA1FE82D9C31102472
:103BD0003D000E1208002000BC003C08BD00003073
:103BE000BE0020303E02003003193D02031CFD2DB3
:103BF0003E08F8003D08F70008003E08B000300815
:103C0000BA003D08B0003008BB003B088039B00066
:103C1000B1013A08B200B301B235B30D3008320732
:103C2000B4003108333DB5003408350403191A2EA9
:103C300001301B2E0030B600B7013608F1003708FE
:103C4000F2005030F3000030F4009C31B424200026
:103C50003B087F397107B80072080318720AB9006F
:103C60003808E03EF7001F30393DF800080020001A
:103C7000B1002100300803190800200031089C31F0
:103C800032249E31003A031D080020003135F9002E
:103C90000130F935FF3E031D492E7935043E203EA3
:103CA000FA007A08B2000530F9007908F10031080D
:103CB0009C3170249E31043EB13E86008701811DF7
:103CC000632E0130642E0030FA007A082000B00024
:103CD000320886008701810130080319782E7708A1
:103CE000F900320A8600870179088100C830802EE9
:103CF0007708F900320A8600870179088100883048
:103D0000F900320886008701790881000830F9003F
:103D10000530FA007A08F10031089C317024043E25
:103D2000B13E860087017908810608002100C6019E
:103D3000953102259E3101309C3124249E31210091
:103D4000C5004508C700963151269E319B31DB23C3
:103D50009E31003A0319A32E01309C3132249E314A
:103D6000003A031DA32E01309731E9279E31003A16
:103D7000031DA32E0E302100C5004508C6054708C7
:103D800086008701810140302C02031CEE2EAC011D
:103D90004608003E840098300318013E8500000864
:103DA000C500470A86008701450881000130C5002B
:103DB0004508C6074608003E840098300318013EB7
:103DC00085000008C5004708023E860087014508B7
:103DD00081000130C5004508C607F72E470A860056
:103DE000870181014708023E860087018101033077
:103DF000F7000030F80001309E3137269E31A32EA7
:103E000020002108F3007308F70021002903031D97
:103E10001B2F220823040319182FF101F10A7C0833
:103E2000F3007308F20023088A0022080A009F3179
:103E30009C310724080021002A080319080077088C
:103E4000F300F40121087402031D282F20087302D7
:103E5000031C2F2F2108F6002008F500362F7708C5
:103E6000F300F4017308F5007408F6007508F30018
:103E70007308F8002A088600870121003B088400A7
:103E800085017808F30012001E00F30B432F780819
:103E9000F30073082100AA077808F300F4017308FF
:103EA000A0027408A13B08307702031C5B2F200896
:103EB0002104031D0800770878020318742F9C3131
:103EC00010249F312100220823040319712FF101CE
:103ED0007C08F3007308F20023088A0022080A0015
:103EE0009F319C31072408009B31FF2308000030DC
:103EF00020003302083003193202031C842F0830DB
:103F0000B8000030B900882F3308B9003208B80073
:103F10003808B6003608BE003E08B600B7013508BE
:103F20003702031D952F34083602031C9C2F3508D9
:103F3000BB003408BA00A32F3E08B600B70136080C
:103F4000BA003708BB003A08B6003608BE0035088C
:103F50003302031DAD2F340832020318B12F013094
:103F6000B22F0030B60036082100AB003C088600B6
:103F70008701200030088400310885003E08B60023
:103F800012001E00B60BC02F20003E08B600B7017D
:103F9000360830072100A40020003708313D2100F9
:103FA000A500200033083502031DD82F3208340243
:103FB000031CDE2F3308BD003208E12F3508BD0099
:103FC0003408BC003E08B600B701B609B709B60A06
:103FD0000319B70A3C0836072100A00020003D085D
:103FE000373D2100A100BD1520003E08B600B701F5
:0E3FF0003608F7003708F8009D310925080053
:00000001FF
