:10200000000090310B280800903120007F08F0007C
:102010007008FF00090090310D28FC01EA01EB0176
:10202000A03084000030850010309C3114249031A1
:10203000813084009C308500B030860000308700FD
:102040000F309C310E2420009631DD2E2000C90176
:1020500021003A082000BF003F08DC005C0A86002F
:10206000870106300106031DF5285C0886008701FC
:1020700080300106031DF5285C08023E86008701BA
:10208000403FBF00413FC0004008C1004108D900A7
:102090005C0886008701423FDA005903031D6B2864
:1020A0007930B0009830B1007930840098308500E4
:1020B0000008BF00C0013F08B2004008B3005C0840
:1020C000063E86008701403FB400413FB5009E3187
:1020D000EB2690313A2B023020005906031D9F2831
:1020E0005A08031977289C31332490313A2B200069
:1020F0005A35BD3E86008701403FCC00413FCD00B0
:102100004C08B0004D08B1004D08C0004C08BF009D
:1021100002303F07840040080318400A8500003F52
:10212000B200013FB3005C08063E86008701403FD5
:10213000B400413FB5009E31EB2690313A2B03307D
:1021400020005906031DCC285730BF003F08F1007E
:102150005A089D318325903172082000CF00710804
:10216000CE00CF1FB7289C31332490313A2B20006A
:102170005708B0005808B1004F08B3004E08B2002D
:102180005C08063E86008701403FB400413FB50031
:102190009E31EB2690313A2B4B302000BF003F0898
:1021A000F1005C089C310324903172082000D100BA
:1021B0007108D000D11FE0289C31332490313A2B94
:1021C00020004B08B0000030B1005108B3005008A7
:1021D000B2005C08063E86008701403FB400413FE4
:1021E000B5009E31EB2690313A2B20005C0A860028
:1021F000870105300106031D0B292100A701A70A4D
:1022000020005C0886008701423F2100A6009C3127
:10221000212490313A2B20005C0A86008701093086
:102220000106031D26295C0886008701423FD20073
:1022300052089031032090319C31212490312000AC
:102240005208BF003F082100AE003A2B20005C0A74
:102250008600870108300106031D4229AE30B00018
:102260000030B1000130B2000030B3005C08063E1F
:1022700086008701403FB400413FB5009E31EB2608
:1022800090313A2B20005C0A860087010108031D6B
:10229000D0295C088600870101081F39003A031D18
:1022A0006D299731FD27903172082000C300710815
:1022B000C2004230B0000030B1000230B200003045
:1022C000B3005C08063E86008701403FB400413FF2
:1022D000B5009E31EB2690313A2B20005C08860039
:1022E000870101081F39023A031DCC295C08043E0E
:1022F0008600870101080F39BF003F08D300023074
:1023000053020318C8290530BF003F08F1005308E5
:102310009C31B0249031043EB03E86008701010814
:102320002000C0004008D4005C08043E86008701FD
:10233000403FBF00413FC000BF1BA12954080139E5
:10234000A32954080239BF00C0013F08C700400854
:10235000C800470848040319AF290130B0290030EC
:10236000BF003F08C400C5014430B0000030B100D8
:102370000230B2000030B3005C08063E86008701E0
:10238000403FB400413FB5009E31EB2690313A2BDF
:102390009C31332490313A2B9C31332490313A2BA9
:1023A00020005C0A860087010B300106031DF3291B
:1023B0005C0886008701423FF1005C08043E86000D
:1023C000870101089B31FE2390312000BF003F08A8
:1023D000C600C61FEF299C31332490313A2B9C3123
:1023E000212490313A2B20005C0A860087010A30B4
:1023F0000106031D222A5C08043E860087010108AD
:102400009B31FC2390312000BF003F08D500D51F31
:102410000D2A9C31332490313A2B55302000B000E6
:102420000030B1000130B2000030B3005C08063E5D
:1024300086008701403FB400413FB5009E31EB2646
:1024400090313A2B20005C0A8600870101030319B2
:10245000302A5C0A8600870103300106031D382BF1
:10246000CA01CA0A5C088600870101081F39023ABE
:10247000031D2D2B5C08023E860087011600010417
:10248000031D2D2B5C08043E8600870101080F39CF
:10249000BF003F08DB005C08043E8600870101089E
:1024A0008039BF003F08D60002305B0203182D2B95
:1024B0005C0A8600870103300106031D892A56083D
:1024C0000319752A0530BF003F08F1005B089C31F5
:1024D000B0249031043EB03E860087018114200074
:1024E0005B089D31AF259031152B05302000BF00D2
:1024F0003F08F1005B089C31B0249031043EB03EAF
:1025000086008701011420005B089D313C25903135
:10251000152B200056080319CA2A0530BF003F08B2
:10252000F1005B089C31B0249031033EB03E860040
:10253000870101082000C0005B35C1000130C135B2
:10254000FF3E031D9F2A4135053E203E8600870140
:10255000400881005B35BF000130BF35FF3E031DE1
:10256000AD2A3F35043E203E860087018101F730C9
:10257000BF000530C0004008F1005B089C31B0246A
:102580009031043EB03E8600870120003F0881055F
:10259000FD30052B0530BF003F08F1005B089C3182
:1025A000B0249031023EB03E860087010108200031
:1025B000C0005B35C1000130C135FF3E031DDC2A80
:1025C0004135013E203E8600870140088100883069
:1025D000BF005B35C0000130C035FF3E031DEC2A53
:1025E0004035203E860087013F0881000530BF004E
:1025F0003F08F1005B089C31B0249031043EB03EAE
:10260000860087010115FE302000BF000530C000A4
:102610004008F1005B089C31B0249031043EB03E8C
:102620008600870120003F08810520005C0A8600A3
:10263000870103300106031D1F2B0130202B0030C2
:10264000BF003F08F1005C08043E860087010108D6
:102650009B31F32390312000CA014A08031D342B1B
:102660009C31212490313A2B9C31332490313A2BE8
:10267000C901C9032000490808002000DB005B08ED
:1026800086008701443FDA005B0A86008701063036
:102690000106031DB52B5B0886008701813001060A
:1026A000031DB52B5B08023E86008701403FC60034
:1026B000413FC7004708C8004808D400FF30D60093
:1026C000FF30D70021305406031D732B5830C6004D
:1026D0004608F1005A089C3190249331720820007A
:1026E000D7007108832B22305406031D842B5830E9
:1026F000C6004608F1005A089C31A02493317208A4
:102700002000D7007108D600D71F882BFF300800A3
:102710005B08063E86008701403FC600413FC70078
:1027200047085702031D962B46085602031CA12B8F
:102730005B08063E86008701403FD200413FD30040
:10274000A52B5708D3005608D2005808BF005908D7
:10275000C0005308C2005208C1000030C300C400CA
:10276000C5019C31D7240030080020005B0A860098
:10277000870109300106031DE62B5B0886008701EF
:1027800021300106031DE62B5B08023E860087010F
:10279000403FC600413FC7004708C8004808C9007D
:1027A0005B0886008701423FCA004908C600460808
:1027B000F8004A08C7004708F9005A089C31552418
:1027C0002000C8004808CB004B0808005B0A8600C0
:1027D000870102300106031D152C5B088600870166
:1027E000A1300106031D152C5B0886008701423FBE
:1027F000CC004C08C6004608F1005A089B31F4236F
:1028000093312000C7004708CD004D30BF00003095
:10281000C0000130C1000030C2000030C300C4005D
:10282000C5019C31D7240030080020005B0A8600D7
:1028300087010A300106031D462C5B0886008701CC
:1028400021300106031D462C5B08023E86008701ED
:10285000403FC600413FC7004708C8004808CE00B7
:102860005B0886008701423FCF004F08C60046083C
:10287000F1004E08C7004708F2005A089B31F823C0
:102880002000C8004808D000500808005B0A8600F5
:10289000870103300106031D702C5B088600870149
:1028A000A1300106031D702C5A089B31F623933189
:1028B0002000C6004608D500D51F602CFF30080058
:1028C0005530BF000030C0000130C1000030C200F0
:1028D0000030C300C400C5019C31D724003008007B
:1028E00020005B0A860087010B300106031D8D2C3A
:1028F0005B088600870121300106031D8D2C5B08D3
:1029000086008701423FF1005A089B31FA232000DC
:10291000C6004608D10051080800FF3008003D00FD
:1029200011109110920197018E1511161115901129
:1029300090119011901190019830F1000E30F2003A
:102940000030F300F4001030F5000030F6009C3148
:10295000EF2494313D00181698111815981418108A
:102960002000C101C10A023041020318E22C4108D3
:10297000983EF900FA010E30FA3D7908BF007A0856
:10298000C0003F0886004008870001163F08860007
:102990004008870081153F08860040088700011520
:1029A0003F0886004008870081143F0886004008E1
:1029B000870001100130F9007908C1070230410297
:1029C000031CB72C3D0096012100A701AE01BC01FC
:1029D0002000C101023041020318072D0430F90024
:1029E0000530FA007A08F10041089C31B024943196
:1029F000043EB03E86008701790881000130F9006D
:102A000079082000C10702304102031CEE2C20305F
:102A1000F1000030F2000030F300F4001030F50057
:102A20000030F6009C31EF24943121003A089E31A9
:102A30002726943178082000A3007708A2000830E8
:102A4000F9007908A1008030F9007908A000210080
:102A50003B089E312726943178082000A70077088C
:102A6000A6000830F9007908A500A401C101C10A37
:102A7000023041020318DB2D0530F9007908F1001E
:102A800041089C31B0249431B03E86008701010892
:102A90009E312726943120004135FA000130FA3565
:102AA000FF3E031D4F2D7A35023E203E86008701F2
:102AB0007708C03F7808C13F0530F9007908F10078
:102AC00041089C31B0249431023EB03E860087011B
:102AD0000108FA0020004135FB000130FB35FF3EC4
:102AE000031D6E2D7B35013E203E860087017A084E
:102AF00081008830F9004135FA000130FA35FF3E97
:102B0000031D7E2D7A35203E8600870179088100DD
:102B10000530F9007908F10041089C31B024943166
:102B2000013EB03E8600870101089E312726943180
:102B300020004135FA000130FA35FF3E031D9C2D7F
:102B40007A35063E203E860087017708C03F780828
:102B5000C13F0530F9007908F10041089C31B024EB
:102B60009431033EB03E860087010108FA00200040
:102B70004135FB000130FB35FF3E031DBB2D7B358E
:102B8000053E203E860087017A0881004135F90024
:102B90000130F935FF3E031DC92D7935043E203E35
:102BA0008600870181010130F9007908C1070230F0
:102BB0004102031C3C2D9C31292408003D00101CBF
:102BC000E92D9B31F223953194318F2495313D00CD
:102BD0001010901E202E01302000E7000030E80089
:102BE0006808803AE00080306002031DF92D023051
:102BF000670203181E2E98302000E0000E30E1001E
:102C000067086007E2006808613DE3006208E400CD
:102C10006308E5006408860065088700011001303C
:102C2000E7070030E83D6808803AE0008030600245
:102C3000031D1C2E02306702031CFB2D3D00901269
:102C4000901DD12E0F0C2000E000E00C600C0F391D
:102C5000003A031D502E3D000F19502E2000200C6D
:102C6000890C0F39E0006008E6000D306606031D90
:102C70003D2E9D31DD2595314C2E09302000660614
:102C800003194C2E6603031D492E9E317326953180
:102C90004C2E9C31332495319C313D249531CF2EDF
:102CA0003D000F0C2000E000E00C600C0F39003AF2
:102CB000031D612E3D000F1D612E9F31732795313D
:102CC000CF2E3D000F0C2000E000E00C600C0F390F
:102CD000003A0319CF2E3D000F0C2000E000E00C5D
:102CE000600C0F39E100023061020318CF2E3D0065
:102CF0000F1DA52E05302000E0006008F1003D000A
:102D00000F0C2000E100E10C610C0F399C31B02464
:102D10009531043EB03E86008701811C9A2E3D000D
:102D20000F0C2000E000E00C600C0F399D31AF2546
:102D30009531CF2E3D000F0C2000E000E00C600C20
:102D40000F399B31F0239531CF2E05302000E00064
:102D50006008F1003D000F0C2000E100E10C610C67
:102D60000F399C31B0249531043EB03E8600870176
:102D7000011CC52E3D000F0C2000E000E00C600C93
:102D80000F399D313C259531CF2E3D000F0C200091
:102D9000E000E00C600C0F399B31F12395313D00D0
:102DA0009011101FD82E9C31722495313D001013C4
:102DB0002000121D0800121108002100C101EE3090
:102DC000BF000230C000C2019513083024008C00FF
:102DD00094318F24963101309C3147249631200064
:102DE000E90069082100C3009531DE2596319C3148
:102DF00000249631003A0319F42E21002C080319FF
:102E00002E2F4208031D4203031D2D2F20008C1D71
:102E1000162F21003F0840040319132F0130BF0271
:102E20000030C03B2D2FC201C20A2D2F02302100DD
:102E30004002EE3003193F020318232F0130BF0771
:102E40000030C03D2D2F4203031D2D2F02302000E6
:102E5000E90069082100C200C101AC0101309C31C8
:102E600063249631003A031DF42E01309731EC278C
:102E70009631003A031DF42E023021004206031D54
:102E8000F42E4308860087018101430A86008701EA
:102E9000810104304106031D542FC2014308023E44
:102EA0008600870181016B2F4108003E8400983025
:102EB0000318013E850000082000E90021004308B6
:102EC000023E860087012000690881000130E90088
:102ED00069082100C1074308033E8600870181017C
:102EE0004308043E8600870181014308053E8600B1
:102EF000870181014308063E86008701810143085E
:102F0000073E8600870181010830F7000030F80095
:102F1000013097318D279631F42E2000B100210029
:102F20002E0803190800200031089C3163249731D2
:102F3000003A031D080020003135F9000130F93551
:102F4000FF3E031D9F2F7935043E203EFA007A088C
:102F5000B2000530F9007908F10031089C31B02445
:102F60009731043EB03E86008701811DB92F0130A4
:102F7000BA2F0030FA007A082000B000320886002C
:102F80008701810130080319CE2F7708F900320A32
:102F90008600870179088100C830D62F7708F900AC
:102FA000320A86008701790881008830F9003208EA
:102FB00086008701790881000830F9000530FA00A1
:102FC0007A08F10031089C31B024043EB03E8600FE
:102FD0008701790881060800F2007235F10001309E
:102FE000F135FF3E031DF02F7135043E203E860073
:102FF0008701010D010D01390800F101F2010800FE
:1030000004340534063407340534013409340634F5
:10301000A1340134053407341934E0342934E73459
:1030200015340034253401347534013495340834B2
:1030300081340234953401347534083481340134D8
:1030400095340334753401340534083419340134AB
:103050002934033491340234953401347534053401
:103060009134013495340634753408341534003401
:103070002634FF34003405340734193400342A343C
:10308000FF34003481340034C03409340234223433
:1030900000340134013401348034323409340434CE
:1030A0000034003401340334013401340034093471
:1030B00021341034013400340134223441340034DA
:1030C00007340534813403340834003401341234B5
:1030D00003346B34003465340034793400346234A2
:1030E00000346F340034613400347234003464349A
:1030F000003412340134113401340034003400340B
:103100000834D834043455340034013400340034E5
:0E31100001340034013404340334093404342F
:1037E0000800080008000800003008000130080048
:1037F000FF300800FF3008000030080000300800EB
:1038000021002E080800FF30F100FF30F200080010
:103810002000DC005C0893313D230800FE0012000C
:103820001E00FE0B0F2C0034640080010131890B57
:10383000152C00340830F10071082000A500A40107
:1038400008002000A401A501C830F1007108A400FF
:1038500008002100A201A301AA01A001A1012000EA
:10386000EA01EB0108000830F10071082000A50012
:103870008430F1007108A40008000830F1007108DC
:103880002000A1008030F1007108A0000800F600BF
:103890000530F5007508F10076089C31B024013E32
:1038A000B03E86008701010808000130F1000030B9
:1038B000F2000730F3001D30F400F501AF309C3109
:1038C000C12400300800F6000530F5007508F1004D
:1038D00076089C31B024043EB03E86008701010882
:1038E000023908002100AC01AC0A2B1D0800240A93
:1038F0000319250A031908000130A4070030A53D6B
:10390000080000340034003400340034E034E8347B
:10391000083408340034D034D83400344534983472
:103920005730F4009830F50071088600870174085C
:10393000C03F7508C13F0930F1000030F2000800B7
:103940000430F3009830F400710886008701730892
:10395000C03F7408C13F4130F1000030F200080060
:10396000F400F301741CB82C7108F2007208F3071C
:103970000310F10D0310F40C7408031DB22C73082E
:103980000800F7009C31292473082000EA0074081D
:10399000EB007708F60076082100AA007208A10063
:1039A0007108A0007508F6007608FC0008002000E9
:1039B0004308EA004408EB004508FB007B08FC00D4
:1039C0003F08B0004008B1004208B3004108B2000F
:1039D0004208B5004108B4009E31EB26080071088A
:1039E000F7007208F8000130F5020030F63B750A66
:1039F0000319760A031908007708860078088700FB
:103A0000730881000130F7070030F83DF32C2100E6
:103A10002F082B0603190800033025022130031953
:103A20002402031C1A2D04302502B030031924028D
:103A3000031C1714A401A5012F08F3007308AB00A1
:103A40000800F501F601711C292D7308F5077408AB
:103A5000F63D0130F335F40D890B2A2D0130F23695
:103A6000F10C890B2F2D71087204031D232D76088C
:103A7000F2007508F1000800F3007335F100013021
:103A8000F135FF3E031D402D7135013E203E86007D
:103A9000870181018430F1007335F2000130F23585
:103AA000FF3E031D4F2D7235203E860087017108B1
:103AB0008100080000309C3163249D31003A031DD1
:103AC00008002100BC1D662D0130672D0030F90073
:103AD0007908FA002000A4017A080319752D7708E7
:103AE000F9007908A500C8307A2D7708F90079081F
:103AF000A5008830F9007908A4000830F900790899
:103B00002100BC060800F5007508031D972D8B30B9
:103B1000F3009830F4007108860087017308C03FF5
:103B20007408C13F0430F1000030F2000800750352
:103B3000031DAA2D6730F3009830F4007108860049
:103B400087017308C03F7408C13F1230F100003094
:103B5000F2000800FF30F100FF30F2000800F8002A
:103B60000530F5007508F10078089C31B0249D31CE
:103B7000033EB03E860087010108F6007835F70065
:103B80000130F735FF3E031DC12D7735053E203E40
:103B900086008701760881008430F5007835F600CC
:103BA0000130F635FF3E031DD12D7635043E203E13
:103BB0008600870175088100080021003A0820006E
:103BC000DD005D08DF005F08860087010030811B93
:103BD00001302100A9009C311A249D3121002008C8
:103BE00021040319052E20006A086B040319022E14
:103BF000F1017C08DD005D08F2006B088A006A08AC
:103C00000A009E319C3129249D3120005F088600E6
:103C10008701010E890C0339003A031D182E9031DB
:103C200026209D312000DD005D08DE00DE1F242EF1
:103C30005F089C3108249D312000DD005D08DE0016
:103C4000DE1F242E9C3133243D000E12080020007C
:103C5000BB003B08BD000030BE0020303E020030FB
:103C600003193D02031C392E3E08F8003D08F700F9
:103C700008003E08B0003008BA003D08B000300827
:103C8000BC003C088039B000B1013A08B200B30171
:103C9000B235B30D30083207B4003108333DB500FA
:103CA000340835040319562E0130572E0030B60063
:103CB000B7013608F1003708F2005030F300003049
:103CC000F4009D31212520003C087F397107B800A0
:103CD00072080318720AB9003808E03EF7001F3076
:103CE000393DF800080020002108F4007408F800AD
:103CF00021002903031D8F2E20006A086B0403197D
:103D00008C2EF101F10A7C08F4007408F2006B08B3
:103D10008A006A080A009E319C312924080021008B
:103D20002A08031908007808F400F5012108750233
:103D3000031D9C2E20087402031CA32E2108F700EB
:103D40002008F600AA2E7808F400F5017408F600A1
:103D50007508F7007608F4007408F9002A08860050
:103D6000870121003A08840085017908F4001200D7
:103D70001E00F40BB72E7908F40074082100AA077E
:103D80007908F400F5017408A0027508A13B083019
:103D90007802031CCF2E20082104031D0800780898
:103DA00079020318E82E9C3133249E3120006A08E2
:103DB0006B040319E52EF1017C08F4007408F2008D
:103DC0006B088A006A080A009E319C312924080089
:103DD0009C312124080000302000330208300319F0
:103DE0003202031CF82E0830B8000030B900FC2E57
:103DF0003308B9003208B8003808B6003608BE00EB
:103E00003E08B600B70135083702031D092F3408F4
:103E10003602031C102F3508BB003408BA00172FD8
:103E20003E08B600B7013608BA003708BB003A08AA
:103E3000B6003608BE0035083302031D212F3408B2
:103E400032020318252F0130262F0030B600360825
:103E50002100AD003B088600870120003008840067
:103E6000310885003E08B60012001E00B60B342F44
:103E700020003E08B600B701360830072100A20036
:103E800020003708313D2100A3002000330835020F
:103E9000031D4C2F32083402031C522F3308BD007F
:103EA0003208552F3508BD003408BC003E08B60066
:103EB000B701B609B709B60A0319B70A3C083607AD
:103EC0002100A00020003D08373D2100A100BC15C5
:103ED00020003E08B600B7013608F7003708F800A2
:103EE0009D315A2508002100270803197C2F260838
:103EF0003D0096002100A701200821040319D92FB5
:103F000000302102083003192002031C8D2F0830D5
:103F10002000B2000030B300952F210021082000BE
:103F2000B300210020082000B2003208B0003008A1
:103F3000B40021003B08860087012100220884008C
:103F40002308850020003408B00012001E00B00BCA
:103F5000A52F20003408B000B10130082100A002D4
:103F6000200031082100A13B20003408B000B1013D
:103F700030082100A207200031082100A33D2008BD
:103F80002104031DCE2F083020003406031DCE2F40
:103F900021002D080319CE2FA801A80A20003408FB
:103FA000B000B1013008F7003108F8009D315A2502
:103FB0000800210028080319E82F0030F700F80056
:103FC0009D315A259F312100A8019C3129240800E8
:103FD00021002908031D080020006A086B0403194A
:103FE000FC2FF101F10A7C08B0003008F2006B08E8
:0E3FF0008A006A080A009F319C3129240800CB
:00000001FF
