:10200000000090310B280800903120007F08F0007C
:102010007008FF0009009B31112B0034CF34553478
:102020008934123409340234433400340234013424
:102030000034C03432340934043400340034013400
:1020400002340234013400340534243400341034B2
:102050000134043424340234023405342434063484
:10206000003401340534243401340034013407349D
:102070000534813403340A3400340134093404341F
:102080000134003402340A3400340034003407349C
:10209000053402340234403400340034073405344B
:1020A00082340234403400340034343403344D3448
:1020B00000346934003463340034723400346F34D3
:1020C00000346334003468340034693400347034CC
:1020D0000034203400345434003465340034633424
:1020E0000034683400346E3400346F3400346C349F
:1020F00000346F34003467340034793400342034D1
:102100000034493400346E340034633400342E34E7
:10211000003434340334433400344434003443341E
:1021200000342034003452340034533400342D341D
:102130000034323400343334003432340034203448
:102140000034453400346D340034753400346C345C
:1021500000346134003474340034693400346F3432
:1021600000346E3400342034003444340034653498
:1021700000346D3400346F340034123401340034D0
:1021800002340234003400340834D83404340A34BD
:102190000034003401340134023400340134043496
:1021A00003340934043421005208023A031DDB28A9
:1021B0009331CE2308002100D201BE08031DFC2864
:1021C00008302000EB007C0A860087016B08810044
:1021D0005030EB000030EC007C08023E86008701A6
:1021E0006B08C03F6C08C13F8C30EB007C08860058
:1021F00087016B08810008002100BE01080008006B
:102200009131820702299C314B2C20005208013A5F
:10221000031D1C2950081F390038031D1C292100EB
:10222000DB1720005108033A031D1A292100C501BC
:10223000C50A1C292100C50120005208031D080001
:1022400050081F39023A031D080054080F39003A9C
:102250000319080054080F39EB0003306B02031810
:10226000080021004A08203A031D0800DB1720005F
:10227000D41B492954080F39B33E86008701010851
:10228000EB006B082100E500200054080F39AD3E3B
:102290005829200054080F39B03E860087010108F4
:1022A000EB006B082100E500200054080F39AA3E1E
:1022B000860087010108EB006B082100E400641828
:1022C0006829FB302000EB006B082100E505692937
:1022D00065152000D41B7429210065082000EB003F
:1022E00054080F39B33E7B29210065082000EB001C
:1022F00054080F39B03E860087016B0881005108F1
:10230000033A031DA1292100650886008701811F6A
:1023100096292000D41B902954080F39AD3E9329EB
:1023200054080F39AA3E86008701811484302000AA
:10233000EB00210065088600870120006B088104FE
:1023400008000430EB006B082100E50665088600F4
:102350008701811FCD297F302000EB002100650817
:102360008600870120006B08810521006508860032
:102370008701011705302000E6000030E70021004A
:1023800065082000EB006B08E8000130E900003030
:10239000EA009C310C249131D22921006508860085
:1023A0008701011704302000EB006B082100E506CF
:1023B000E418DF29650886008701811F072A2000AD
:1023C000D41BE62954080F39AD3EE92954080F39CA
:1023D000AA3E8600870181103B30EB002100650892
:1023E0008600870120006B0881050530E60000307B
:1023F000E700210065082000EB006B08E8000130D1
:10240000E9000030EA009C310C249131112A3B3064
:102410002000EB00210065088600870120006B0882
:102420008105200054080F39983EEB00EC010E3076
:10243000EC3D6B082100E20020006C082100E30065
:10244000FE302000EB002100620886006308870050
:1024500020006B08810508002100CA08031D402ADE
:102460003D008E019201163091009F3097007B3025
:1024700092008E193D2A8E15392A2100CA01CA0AF6
:102480004A08013A031D502A3D008E1A502A900135
:1024900092011214121602302100EB006B08CA00E0
:1024A0003D001019121D5D2AFB302100EB006B0866
:1024B0003D0090059A31A72292313D008E1C632A7F
:1024C0002000121108001018121C732A9431722473
:1024D000923104302100EB006B08CA00FE30EB00A3
:1024E0006B083D009005101A121E7F2A9A31BD22FA
:1024F0009231EF302100EB006B083D009005101F7A
:10250000A22A121F902A73302000E6000030E70054
:10251000E8010130E9000030EA009C310C249231DE
:10252000BF302100EB006B083D00900521004D08F5
:1025300003199C2A0130CD02CD08031DA22A9E3129
:10254000702692313D00901A921EA92A9A31F122EA
:1025500092313D009018921CBC2AFF302000E6000A
:102560007F30E700E8010130E9000030EA009C31EB
:102570000C2492313D009301043021004A020318DB
:10258000C42A2000121108003D00921D152B2100C5
:10259000ED010E2B0F082100EB006B08E100610C30
:1025A000EB00EB0C6B0C0F39EC006C08D400F7302F
:1025B000EB006B083D00900521006119E22A5408E8
:1025C000AD3EE42A5408AA3E86008701010801397D
:1025D000EB000130EB0601086B06FE396B0681004B
:1025E000D408031DF72A9F3191279231092B7230AD
:1025F0002000E6000030E700E1302100EB006B082E
:102600002000E8000030E9000030EA009C310C2492
:10261000923101302100EB006B08ED0704306D02B0
:102620000318152B3D009019CA2A2000121108002A
:1026300021003F0803192A2B3F0886008701010D5E
:10264000010D0139F800F90178082000E00079084F
:10265000E1002D2B2000E001E10161086004031D71
:10266000080021005008033A0319D001D0080319CB
:1026700008005008023A031D4D2BF101F10AF20146
:10268000F30102309C318B24F80078082100BF0050
:102690000330F8007808D00008005008013A031D04
:1026A000080041305102031C572B4030592B2100A8
:1026B0005108F80078082000E3006303FF3A210086
:1026C0005107F8007808D1002030F8007808BA00E7
:1026D00020006308F8007808E2002100CE08031902
:1026E0008A2BA72B21003C088600013087000108B7
:1026F000F8003A088600023087007808810001302F
:10270000F8007808BA070130F8007808BC070130F3
:102710002000E2022000E2080319AB2B722B2100FB
:102720003C088600013087000108F8003A0886005E
:1027300002308700780881000130F8007808BA0775
:102740000130F8007808BC0701302000E2022000C8
:10275000E208031D8F2B2100D108031DBB2B200095
:102760006308403A031DB62B0230B72B0330F80044
:1027700078082100D000F101F10A2030F800780833
:10278000F20020006308F9007908F30002309C3160
:102790008B24FA007A082100BF00080021005608A7
:1027A00086008701413F2000EA006A08FA00FB0129
:1027B0007B0821002402031DDF2B7A082302031863
:1027C000E62B2308FA007A082000EA000330A03E36
:1027D0008600870120006A08FA00FB01FA09FB095C
:1027E000FA0A0319FB0A403F7A072100A300413F80
:1027F0007B3DA4002000E9016A0869020318172C38
:102800006908583E860087010108FA002100200867
:102810008600210887007A0881000130A007003077
:10282000A13D0130FA007A082000E907FC2B0330B3
:10283000A03E86008701160001040319482C0830C9
:10284000FA007C0A860087017A0881005830FA0075
:102850000030FB007C08023E860087017A08C03FFA
:102860007B08C13F2100560886008701011B402CD0
:10287000C830FA007C08860087017A0881000800C9
:102880008830FA007C08860087017A0881000800F9
:102890000830FA007C0A860087017A0881005030EF
:1028A000FA000030FB007C08023E860087017A08AF
:1028B000C03F7B08C13F8430FA007C088600870156
:1028C0007A0881002100250803196A2C2508913116
:1028D000002193312100A213C908031D08009E3175
:1028E00070260800210012113D009301900198010B
:1028F0000E30F4009930F300F50102307502031830
:10290000922C730886007408870081010130F30758
:102910000030F43D0130F1007108F5070230750216
:10292000031C812C16303D0091009F3097007B30B6
:102930009200F6010C3076020318B72C7608F100ED
:102940000130F135FF3E031DA12C7135203E86007C
:1029500087010030C03F0030C13FC23FC33F01305C
:10296000F1007108F6070C307602031C9E2C3D0026
:102970000E1796010E120E133D00901DC92CF73054
:10298000F100710890052100DB01A201A301A4015F
:10299000BC2C0130F10071082100CB000130F100A6
:1029A0007108CC00C701C801C601F60103307602E8
:1029B0000318F62C7608B03E860087018101760860
:1029C000B33E8600870181017608AA3E8600870112
:1029D00081017608AD3E8600870181010130F1005A
:1029E0007108F60703307602031CDA2C2830F10058
:1029F00071082100B00016303D0098005030F10001
:102A00000030F20071082000A2007208A300083014
:102A1000A1008430F1007108A0002100E001CA018A
:102A200008002100DB170E302000EC009930EB008D
:102A3000ED0102306D0203182E2D6B0886006C0824
:102A4000870081010130EB070030EC3D0130FB00D5
:102A50007B08ED0702306D02031C1D2D0030F100D4
:102A60000030F2003030F3000030F40020309A31B2
:102A7000D42295313D000E172000EE0103306E0286
:102A80000318542D6E08AA3E8600870181016E0846
:102A9000AD3E8600870181010130FB007B08EE0717
:102AA00003306E02031C422D0030F1000030F200B2
:102AB0000230F3000030F400DE309A31D422953138
:102AC0003D000E132830FB007B082100B0002030B1
:102AD000FB007B08D6005608FB007B08FC002000AA
:102AE0005208FB007B082100E000E008031D7D2D5B
:102AF0001030FB007B08CA00080001302000E6000F
:102B00000030E700E030FB007B08E8000130E9001E
:102B10000030EA009C310C242030FB007B082100AF
:102B2000CA000800210037083604031D9B2D103011
:102B3000B6002730B7000130B6020030B73B3D0089
:102B40008E1CB92D210037083604031D0800003003
:102B500022000E1D0130F100F10DF10D0E0871067D
:102B6000FB3971068E000E1DB72D8E1508008E11D3
:102B700008002100CA08031DC12D22000E118E116C
:102B8000080021004A08013A031DCA2D22000E1533
:102B90008E15080021004A08023A031DD32D220099
:102BA0000E158E11080021004A08043A031DDC2D81
:102BB00022000E118E15080021004A08103A031D4C
:102BC000F32D37083604031D0800003022000E1DC7
:102BD0000130F100F10DF10D0E087106FB3971069F
:102BE0008E008E11080021004A08203A031D0800BB
:102BF00037083604031D0800003022000E1D013086
:102C0000F100F10DF10D0E087106FB3971068E0011
:102C10000E1D0C2E8E1108008E1508009531922580
:102C20009631203021004A02031C08003D008E1816
:102C300008002100C308031D312E40302000E400AD
:102C40006408F80020309E31182696312000E500F7
:102C500065082100C10041080319312EC301C30AD0
:102C6000C401430803194B2E23009E1C4B2E210048
:102C70004408203E86000330870001089731FB2777
:102C8000963101302000E40064082100C4074408A4
:102C900041060319C3012000911E6C2E3F30210014
:102CA000420203186C2E9A31722296312000E40001
:102CB00021004208A03E8600013087002000640801
:102CC00081000130E40064082100C2074208A03EF0
:102CD00086000130870081012100D008031D7E2E6F
:102CE000420803197E2E42082000E4006408F10027
:102CF000A0309A31822296312100C20193311823EB
:102D0000080020005008803A031D0800C030F10080
:102D100071082100DB00E72EBD302100D900903082
:102D2000DA001230DC000030DD00080011308400D1
:102D3000903085002000520884070318850A003F60
:102D40002100D9009030DA005A08F2005908F10049
:102D500002307107840072080318720A85000008A7
:102D6000F3007308DC005A08F2005908F100033040
:102D70007107840072080318720A85000008F300C6
:102D80007308DD0008000330200052020318E12E12
:102D90000E30840090308500520884070318850A9D
:102DA000003F2100D9009030DA00590884005A0809
:102DB00085000008F100F2017108DC007208DD00F6
:102DC00008002100DB0108002100DB0108002000D1
:102DD0005308013A03198C2E033A0319962E013A2F
:102DE0000319C32EE42E08003D000E122100DB1B48
:102DF0002A2FA21F082F0230F6007608D200C8083A
:102E0000031D042F9C31D2242100CC01CB010800EA
:102E10000830F6007C0A8600870176088100503071
:102E2000F6000030F7007C08023E86008701760835
:102E3000C03F7708C13F8C30F6007C0886008701D0
:102E4000760881008430F600300886008701760815
:102E5000810008002000D01F3F2F2100D201D20A9C
:102E6000C708031D362F9C31D22496312100CC0196
:102E7000CB01C908031D08009E31702608000230EE
:102E8000F60076082100D2000830F6007C0A8600A1
:102E90008701760881005030F6000030F7007C088A
:102EA000023E860087017608C03F7708C13F843024
:102EB000F6007C088600870176088100CC01CB01F2
:102EC000C908031D08009E31702608000830F10073
:102ED0007108F300003021005D02083003195C0224
:102EE0000318842F5C08F1007108F300D808031D53
:102EF0007C2FD801D80A842F5808013A031D842F4B
:102F00000230F1007108D8000330D93E86008701F5
:102F10007308F100F201F109F209F10A0319F20A4A
:102F2000403F7107DC00413F723DDD007308F10056
:102F3000300A86008701710881005830F10071085D
:102F4000D7005B1CB92FD22F590884005A0885007E
:102F50000008F100570886008701710881000130E0
:102F6000D9070030DA3D0130F1007108D707013090
:102F7000F302F30803190800A42F590884005A0823
:102F800085000008F100570886008701710881005C
:102F90000130D9070030DA3D0130F1007108D70760
:102FA0000130F302F30803190800BD2F9A3194226F
:102FB0009731F401403074020318EC2F7408A03EDE
:102FC00086000130870081010130F3007308F407A7
:102FD00040307402031CDE2F2100C201C101D50163
:102FE000F030F300730822008E05F030F300730810
:102FF00021008E050800F100710823009A000800E6
:103000009D31E22D9D31E52D9E31172E9D31E52D0F
:103010009E31172E9D31C92D9D31D22D9E31002E0E
:103020009D31D82D9D31D52D9D31E82D9D31F42D2B
:043030009E31172E88
:1034A2000800080008009F312D2708009B3159238E
:1034B2000800640080010131890B5B2A003423007B
:1034C2008E019731D6279A319431722408009A31AD
:1034D20060229A3192312C229A3196310E269A31FB
:1034E2006B2A23009D1C7C2A1D121908F100710809
:1034F200F2001D16802A1908F1007108F200720804
:103502000800F3002100D008031D08007308F20030
:103512007208BC007108F2007208D100CE01CE0A16
:10352200D001D00A080021008E160E12243023008A
:103532009E0090309D0071309B0002309C0008304C
:103542009F001908F1007108F20008002100C6016D
:1035520074302000E6000030E700E8010030E900A6
:103562000030EA009C310C243D008E101211FB3019
:10357200FB007B08900508003D001215EF30FB00B0
:103582007B0890058E142100C601C60A7530200002
:10359200E6000030E700E8010030E9000030EA0010
:1035A2009C310C240800F6007608F5007508F70037
:1035B2000130F3020030F43BFF307406031DE32AAE
:1035C200FF307306031908007108F50077088600BA
:1035D2008701750881000130F5007508F707D92ABF
:1035E2003D00181C0C2B210056088600870101089B
:1035F200803A031D0A2B3008860087010108843AAD
:10360200031D0A2B8C30F1005608860087017108D1
:1036120081003D001810DF30F100710890050800AC
:10362200FC01A03084000030850042309A315A22D9
:103632009B31313084000130850008309A315A22A2
:103642009B31A03084000130850040309A315A22EB
:103652009B31203084000330850040309A315A2259
:1036620020009A31682A2000E200781D3D2BF101EA
:1036720062089B3193239B31F81C452BF101F10A1F
:10368200200062089B31932320006208983EF900D3
:10369200FA010E30FA3D7908E0007A08E100780874
:1036A200F900600886006108870079088100080037
:1036B20000302200A3000030A2004B30A1000030F5
:1036C200A000A401A50108302000E3006308220045
:1036D200A6002100CF011A302000E3006308F800A1
:1036E20001309B3134239B311E302000E3006308FC
:1036F200F80002309B3134239B31F101A0302000CD
:10370200E3006308F2004030E4006408F300023092
:103712009C318B242000E50065082100C000BF0118
:10372200D0010800F6002030F2007208F70071089C
:10373200F2000130F235890B9B2B7608F300013041
:10374200F335FF3E031DA12B73357207F4000130E0
:10375200F435FF3E031DA92B7435F5007508F707F4
:103762007708860087018113F108031DBD2B7708B6
:10377200F2007608B33EC12B7708F2007608B03E1D
:10378200860087017208810077088600870101138D
:103792007708043E86008701011708002100D8013E
:1037A200C901C701C801BE01D2017F30E60030085D
:1037B20086008701660881050430E6006608B006C7
:1037C2007F30E600300886008701660881050430F4
:1037D200E6006608B0067F30E6007C0886008701B6
:1037E20066088105DB01DC01DD01A201A301A40160
:1037F2009D31C1259B3103302000E6000030E700F7
:10380200E8010030E9000030EA009C310C249B31D1
:103812009631F4260800222C9A31532208009A315C
:10382200512208009A31522208009A315722080088
:103832009031FF2008009A31542208009031032071
:10384200080020006708003A03192B2C7F3A03195D
:10385200452C4A2C6608013A0319162C033A03191F
:10386200192C013A03191C2C063A03194A2C773AEF
:1038720003194A2C013A03190D2C073A0319132C88
:10388200013A0319102C4A2C6608FF3A03191F2C1F
:103892004A2C0800003022002A02031D5A2C013053
:1038A2002902031D5A2CC2302802031D5A2C013052
:1038B2002702031808002A08A3002908A2002808E2
:1038C200A1002708A0002308F4002208F300210821
:1038D200F2002008F1000030F800B730F7001B308A
:1038E200F6000030F5009D316E25FF307107200093
:1038F200E500FF30723DE600FF30733DE700FF3028
:10390200743DE800650823009B0020006608230040
:103912009C000800F60071080319922C7608B03E4C
:10392200942C7608B33E860087010108F4007408DF
:10393200F700F708031D9F2C003008007208F400FE
:103942000230F5007708023E860087017408C03F06
:103952007508C13F7308F400770A8600870174086E
:1039620081004030F40077088600870174088105E1
:103972008830F40077088600870174088104710892
:103982000319C82C0430F4007608B03ECC2C043065
:10399200F4007608B33E8600870174088106770832
:1039A20008002100C701C8015208023A031DF42C85
:1039B2000830F4007C0A86008701740881005830C0
:1039C200F4000030F5007C08023E8600870174088E
:1039D200C03F7508C13FC830F4007C0886008701EB
:1039E2007408810008005D0820005702031DFD2CA9
:1039F20021005C08200056020318082D57082100F8
:103A0200DD01DD07200056082100DC01DC079731CB
:103A120066279C315830F4000030F5002100300850
:103A2200023E860087017408C03F7508C13FC83056
:103A3200F400300886008701740881000800200025
:103A4200D8010030D900552D2100DB172000581471
:103A520021004508013A031D612D2000D814612D73
:103A62002100DB17612D2100DB172000D41B3D2D27
:103A720054080F39B33E402D54080F39B03E86002A
:103A820087010108F1007108F200720886008701BF
:103A9200811F612D720886008701011D612D013091
:103AA200F1007108D800612D50081F39003A03193E
:103AB200252D013A0319312D033A0319342D612DB5
:103AC2002100DB1F08005830D9000030DA005B14F7
:103AD2000230F1007108DC00080000302000E30031
:103AE2000030E2000030E1000030E00074087304AE
:103AF200720471040319B82DE401E40AF41B8D2D3C
:103B02000130F135F20DF30DF40D890B822D0130E8
:103B1200F9007908E4077F2D0130E035E10DE20D6F
:103B2200E30D890B8E2D74087802031DA22D7308F4
:103B32007702031DA22D72087602031DA22D7108C1
:103B42007502031CAD2D7108F5027208F63B73086D
:103B5200F73B7408F83B60140130F436F30CF20CB6
:103B6200F10C890BAE2D0130E402031D8D2D63088B
:103B7200F4006208F3006108F2006008F100080036
:103B82002000500E890C0339003A031D08000C2E48
:103B92002100DB1708302000EF006F082100CA0067
:103BA2000800963181260800953111250800E03081
:103BB2002100D9000030DA005B14DC01DC0ADB17DB
:103BC20008009D31202508009131052108002000C0
:103BD2005408DE3E2100D9000030DA005B14DC011B
:103BE200DC0ADB1708002100DB1720005208EF0077
:103BF2005408DE3E860087016F088100080002300B
:103C0200E6000030E700E8010030E9000030EA0099
:103C12009C310C2408002000510884000D3004025D
:103C22000318080098310435003E82000800200085
:103C3200E0002100CF01400803192D2E4008860024
:103C42008701010D010D0139F900FA0179082000FF
:103C5200E1007A08E200302E2000E101E201620870
:103C62006104031D6D2E2100400A86008701780839
:103C720001020318412E400886008701413FF800E7
:103C8200CF0178084F0203185D2E4F08A03E860030
:103C9200023087000108F9004F0820006007FA008F
:103CA2007A08860003308700790881000130F90024
:103CB20079082100CF07422EF101A030F9007908DE
:103CC200F2004030FA007A08F30002309C318B2473
:103CD200FB007B082100C00021004F0808002100E2
:103CE200CB08031D08000130F1007108CB00CC089D
:103CF200031D08000130F1007108CC005208023A9D
:103D0200031D8F2E300A860087018101C830F10021
:103D12003008860087017108810008005208013AC4
:103D2200031D0800BE010830F100560A8600870113
:103D3200710881005030F1000030F2005608023E56
:103D4200860087017108C03F7208C13F8430F100CC
:103D520056088600870171088100BE01BE0A08303C
:103D6200F1007C0A86008701710881005030F10061
:103D72000030F2007C08023E860087017108C03FD5
:103D82007208C13F8030F1007C088600870171080B
:103D92008100080021003008860087010030011BE5
:103DA20001302000E9000430FA007A082100B00650
:103DB2004A08083A031DEB2E200052083D009600E7
:103DC20016080319E62E1030E72E0430FA007A089E
:103DD2002100CA005208013A031D212F5830FA006F
:103DE2000030FB003008023E860087017A08C03F9F
:103DF2007B08C13F973166279E3121005808023A5D
:103E0200031D0B2F8430FA003008860087017A08E0
:103E1200810008002000E908031D182FC830FA00AD
:103E220021003008860087017A0881000800883066
:103E3200FA0021003008860087017A088100080014
:103E4200A21F2B2F25080319292F250891310021A4
:103E52002100A213D2010800200050081F39013AA4
:103E6200031D0800500E890C0339013A031D080096
:103E7200540803197E2F5408013A031D08007E2FAF
:103E820031302100D9000130DA000830DC00003086
:103E9200DD005B14DB17080031302100D90001304E
:103EA200DA00DB170800200057082100A401A4074C
:103EB200200056082100A301A3072730A0000130EB
:103EC200A1000130F1007108A500A21708002030FE
:103ED2002100D9000130DA000730DC000030DD00BB
:103EE200C130F1007108DB00080020005208F10027
:103EF20071082100D300DB17080020005108003AA6
:103F02000319412F013A03194D2F213A0319542F56
:103F1200013A0319682F033A0319762F902F0800EC
:103F22002D302100E7006708CD006108FD39031D2F
:103F3200F42F61363F39E7000130E735FF3E031DBC
:103F42009E2F6735203EE8006808D6005608E70035
:103F52006708FC000430E7006708FC065608860084
:103F62008701010C890C0F390D3A031DF12FEA016B
:103F720008306A020318E22F5608023E86008701C3
:103F8200403FE700413FE800670886006808870075
:103F92000108E9006A08503E86008701690881002D
:103FA2005608023E8600870101308107413103181D
:103FB200810A0130E7006708EA0708306A02031C39
:103FC200BD2F5030E7000030E8005608023E860060
:103FD20087016708C03F6808C13F9B31CF230800B3
:103FE2009031D3200800FD3021006105E700670809
:0C3FF200043A031D08009E31CB26080095
:020000040001F9
:04000E00C2CF4FFF0F
:00000001FF
