:10200000000090310E280800903120007F08EF007A
:102010009D319F2520006F08FF0009009A31452A55
:10202000003418340334493400346E3400347434CA
:102030000034653400347234003466340034613462
:1020400000346334003465340034203400343134D7
:1020500000340534013409340234A1340134093424
:102060000134A134003405340934193401342934DD
:102070000334153400342534013495340334753475
:10208000013481340234953401347534053481349B
:10209000033405340134093430340934313415340F
:1020A000813425347F3475340834953402348134D6
:1020B0000634C034C034303403345334003469340B
:1020C0000034673400346E340034613400346C34CE
:1020D00000342034003431340034313400342034BE
:1020E0000034533400346F340034663400347434B4
:1020F0000034773400346134003472340034653491
:102100000034203400344C3400344C340034433434
:1021100000342E34003409340234293400340134BC
:10212000013402348034323409340434003400344D
:1021300002340334003400340234093421340134CD
:10214000013400340134223432340034073405348D
:102150008134033408340034013407340534013445
:1021600003340834003401341E340334553400344D
:102170005334003442340034203400344D340034BD
:102180006F340034753400347334003465340034F3
:102190002034003444340034653400346D34003469
:1021A0006F3400341234013400340234003400340B
:1021B00000340834A034A034033400340134003433
:1021C0000134023400340134043403340934043457
:1021D0003030F500720886008701750881000130F3
:1021E000F500730886008701750881007408860071
:1021F000870181010330F0000030F1000800080081
:10220000002991318207032998316A282000C701EB
:1022100021004C082000BD003D08D800580A860067
:1022200087010108063A031DDA295808860087014C
:102230000108803A031DDA295808023E860087010A
:10224000403FBD00413FBE003E08BF003F08D400F4
:10225000580886008701423FD5005408013A031D03
:102260004B29D230B0009030B100D23090310A000A
:102270009131BD00BE013D08B2003E08B3005808D0
:10228000063E86008701403FB400413FB5009731CC
:102290005D279131242C20005408023A031D7C292B
:1022A000550803195729983195209131242C200085
:1022B0005508CF3E860087010108BD003D08CE00CD
:1022C0004E08B0009030B1004E0884009030850078
:1022D000023084070318850A003FB200013FB300B3
:1022E0005808063E86008701403FB400413FB500D4
:1022F00097315D279131242C20005408033A031DA7
:10230000AD295630BD003D08F00055089A31A02295
:10231000913171082000CA01CA077008C901C907B4
:10232000CA1F9629983195209131242C20005608F7
:10233000B0009030B1004A08B301B3074908B201B8
:10234000B2075808063E86008701403FB400413F6F
:10235000B50097315D279131242C4D302000BD0010
:102360003D08F0005808983185209131710820000F
:10237000CC01CC077008CB01CB07CC1FC329983107
:1023800095209131242C20004D08B0000030B10080
:102390004C08B301B3074B08B201B2075808063E18
:1023A00086008701403FB400413FB50097315D276B
:1023B0009131242C2000580A860087010108053A33
:1023C000031DF0292200AD01AD0A20005808860047
:1023D0008701423F2200AC009831A9209131242C82
:1023E0002000580A860087010108093A031D0B2ABC
:1023F000580886008701423FCF004F089831682077
:1024000091319831A920913120004F08BD003D083D
:102410002100CB00242C2000580A860087010108E7
:10242000083A031D272ACB30B0000030B10001303C
:10243000B2000030B3005808063E86008701403FD6
:10244000B400413FB50097315D279131242C200025
:10245000580A860087018108031DB62A580886009D
:10246000870101081F390038031D542A98317B2049
:10247000913171082000C101C1077008C001C00777
:102480004030B0000030B1000230B2000030B30084
:102490005808063E86008701403FB400413FB50022
:1024A00097315D279131242C200058088600870140
:1024B00001081F39023A031DB22A5808043E86005B
:1024C000870101080F39BD003D08D00002305002DD
:1024D0000318AE2A0530BD003D08F00050089831C1
:1024E000F9209131043E203E86000130870001082A
:1024F0002000BE003E08D1005808043E8600870137
:10250000403FBD00413FBE00BD1B892A5108013933
:102510008B2A51080239BD00BE013D08C4003E08A7
:10252000C500450844040030031D0130BD003D08CE
:10253000C200C3014230B0000030B1000230B2002E
:102540000030B3005808063E86008701403FB400C3
:10255000413FB50097315D279131242C983195206A
:102560009131242C983195209131242C2000580A47
:102570008600870101080B3A031DD92A58088600F6
:102580008701423FF0005808043E86008701010899
:1025900098316D2091312000BD003D08C600C61F56
:1025A000D52A983195209131242C9831A920913148
:1025B000242C2000580A8600870101080A3A031DCE
:1025C000082B5808043E86008701010898316F20C7
:1025D00091312000BD003D08D300D31FF32A98316C
:1025E00095209131242C53302000B0000030B100F0
:1025F0000130B2000030B3005808063E8600870163
:10260000403FB400413FB50097315D279131242C04
:102610002000580A860087010108013A0319172B88
:10262000580A860087010108033A031D222CC801BD
:10263000C80A58088600870101081F39023A031D9D
:10264000172C5808023E8600870116000104031D5E
:10265000172C5808043E8600870101080F39BD0079
:102660003D08D7005808043E8600870101088039DC
:10267000BD003D08D200023057020318172C580A3B
:10268000860087010108033A031D722B52080319C3
:102690005D2B0530BD003D08F00057089831F9204A
:1026A0009131043E203E86000130870081142000D5
:1026B00057089A3171229131012C05302000BD005C
:1026C0003D08F00057089831F9209131043E203E32
:1026D00086000130870001142000570899314021FD
:1026E0009131012C200052080319B52B0530BD0093
:1026F0003D08F00057089831F9209131033E203E03
:1027000086000130870001082000BE005735BF0059
:102710000130BF35FF3E031D892B3F35053E203E6E
:10272000860087013E0881005735BD000130BD3568
:10273000FF3E031D972B3D35043E203E860087015A
:102740008101F730BD000530BE003E08F00057089B
:102750009831F9209131043E203E860001308700F7
:1027600020003D088105FD30F02B0530BD003D08FF
:10277000F00057089831F9209131023E203E860042
:102780000130870001082000BE005735BF0002302D
:10279000BF35890BC82B3F0A203E860087013E08C3
:1027A00081008830BD005735BE000130BE35FF3E88
:1027B000031DD62B3E35203E860087013D08810053
:1027C0000530BD003D08F00057089831F9209131DF
:1027D000043E203E8600013087000115FE302000B7
:1027E000BD000530BE003E08F00057089831F920C2
:1027F0009131043E203E86000130870020003D08D4
:1028000081052000580A860087010108033A00303C
:1028100003190130BD003D08F0005808043E860051
:10282000870101089831692091312000C801C8084A
:10283000031D1E2C9831A9209131242C983195200C
:102840009131242CC701C70320004708080020004D
:10285000E200620886008701443FE100620A8600C8
:1028600087010108063A031DA42C6208860087012F
:102870000108813A031DA42C6208023E86008701EC
:10288000403FC300413FC4004408C5004508D7008D
:10289000FF30DE00FF30DF005708213A031D5E2CB9
:1028A0006030C3004308F00061089831E92094319A
:1028B00071082000DF01DF0770086F2C5708223AEB
:1028C000031D712C6030C3004308F000610898318B
:1028D000CD20943171082000DF01DF077008DE0190
:1028E000DE07DF1F752CFF3008006208063E8600F9
:1028F0008701403FC300413FC40044085F02031DFD
:10290000832C43085E02031C8E2C6208063E860060
:102910008701403FC800413FC900942C5F08C901AE
:10292000C9075E08C801C8076008BD009030BE0036
:102930004908C001C0074808BF01BF07C101C20163
:102940009931F82100300800FF302000DC00FF3012
:10295000DD00620A860087010108013A031D202D6F
:102960006208860087010108A13A031D202D620834
:10297000023E86008701403FC300413FC400440837
:10298000C5004508CC00620886008701423FCD00A3
:102990004C08C3004308F0004D08C4004408F1008F
:1029A0005830C5004508F2005930C6004608F3000B
:1029B0005A30C7004708F40061089031E82094318C
:1029C00071082000DD01DD077008DC01DC07DD1F78
:1029D000EB2CFF3008006208063E86008701403F6E
:1029E000C300413FC40044085D02031DF92C4308A5
:1029F0005C02031C042D6208063E86008701403FEE
:102A0000CA00413FCB000A2D5D08CB01CB075C0813
:102A1000CA01CA075808BD000130BE004B08C001FA
:102A2000C0074A08BF01BF075908C3004308C100D7
:102A30005A08C4004408C2009931F8210030080047
:102A40002000620A860087010108093A031D512D02
:102A50006208860087010108213A031D512D620892
:102A6000023E86008701403FC300413FC400440846
:102A7000C5004508CE00620886008701423FCF00AE
:102A80004E08C3004308F0004F08C4004408F1009A
:102A90006108983171202000C5004508D000500819
:102AA0000800620A860087010108023A031D7E2D94
:102AB0006208860087010108A13A031D7E2D620885
:102AC00086008701423FD1005108C3004308F0004F
:102AD00061089831732094312000C4004408D60066
:102AE0005630BD000030BE000130BF000030C000D5
:102AF000C101C2019931F821003008002000620AAA
:102B00008600870101080A3A031DAF2D620886007E
:102B100087010108213A031DAF2D6208023E86009D
:102B20008701403FC300413FC4004408C500450839
:102B3000D200620886008701423FD3005308C300D9
:102B40004308F0005208C4004408F10061089831BD
:102B500075202000C5004508D40054080800620A0A
:102B6000860087010108033A031DD72D62088600FD
:102B700087010108A13A031DD72D610898317720FC
:102B800094312000C3004308DB00DB1FC92DFF3058
:102B900008005B30BD000030BE000130BF000030D7
:102BA000C000C101C2019931F821003008002000A5
:102BB000620A8600870101080B3A031DF42D6208A2
:102BC000860087010108213A031DF42D6208860062
:102BD0008701423FF0006108983179202000C3004E
:102BE0004308D50055080800FF3008003D001110CB
:102BF0009110920197018E151116111590119011D7
:102C0000901190119001921592161214121798308B
:102C10002100A0000E30A1000030A2000030A3006F
:102C20001030A4000030A5009931B62195313D0047
:102C3000181698111815981418102100BC01BC0A18
:102C400002303C0203184F2E3C08983EB700B801F2
:102C50000E30B83D3708BA003808BB003A08860085
:102C60003B08870001163A0886003B08870081155B
:102C70003A0886003B08870001153A0886003B08A1
:102C8000870081143A0886003B0887000110013054
:102C9000B7003708BC0702303C02031C242E3D005D
:102CA00096012200AD012100CB01CE01BC01023012
:102CB0003C020318752E0430B7000530B800380800
:102CC000A0003C0899310A219531043E203E86003F
:102CD000013087002100370881000130B700370834
:102CE000BC0702303C02031C5B2E2030A0000030E9
:102CF000A1000030A2000030A3001030A40000307A
:102D0000A5009931B621953121004C089B317323E0
:102D10009531210027082000A301A30721002608E0
:102D20002000A201A2070830A10080302100B700D6
:102D300037082000A00021004D089B3173239531F6
:102D4000210027082000A701A7072100260820004E
:102D5000A601A6070830A5000030A4002100BC0190
:102D6000BC0A02303C020318582F0530B700370860
:102D7000A0003C0899310A219531203E860001309F
:102D8000870001089B317323953121003C35B80041
:102D90000130B835FF3E031DC92E3835023E203EB6
:102DA000860087012608C03F2708C13F0530B700CD
:102DB0003708A0003C0899310A219531023E203E97
:102DC00086000130870001082100B8003C35B900B9
:102DD0000230B935890BE92E390A203E8600870179
:102DE000380881008830B7003C35B8000130B8356C
:102DF000FF3E031DF72E3835203E86008701370839
:102E000081000530B7003708A0003C0899310A213D
:102E100095312100B800380A203E86000130870035
:102E200001089B317323953121003C35B9000130F5
:102E3000B935FF3E031D182F3935063E203E86006A
:102E400087012608C03F2708C13F0530B700370873
:102E5000A0003C0899310A219531033E203E8600AE
:102E60000130870001082100B8003C35B90001306D
:102E7000B935FF3E031D382F3935053E203E86000B
:102E80008701380881003C35B7000130B735FF3E77
:102E9000031D462F3735043E203E86008701810101
:102EA0000130B7003708BC0702303C02031CB52EC6
:102EB0009831BA202100121508000030200033029A
:102EC000083003193202031C6A2F0830B6000030A4
:102ED000B700702F3308B701B7073208B601B6073D
:102EE0003608FA007A08BC003C08FA00FB013508F5
:102EF0007B02031D7D2F34087A02031C862F3508C0
:102F0000B901B9073408B801B8078D2F3C08FA0099
:102F1000FB017A08B8007B08B9003808FA007A0883
:102F2000BC0035083302031D972F340832020030ED
:102F3000031C0130FA007A082200AF00200031089B
:102F4000F101F1073008F001F0073C08FA00FB013D
:102F50007A08F2007B08F30021004D089A311A220A
:102F6000973120003C08FA00FB017A083007220064
:102F7000AA007B082000313D2200AB00200033086E
:102F80003502031DC52F32083402031CCC2F330831
:102F9000BB01BB073208D02F3508BB01BB07340883
:102FA000BA01BA073C08FA00FB01FA09FB09FA0A60
:102FB0000319FB0A3A087A072100C50020003B08E4
:102FC0007B3D2100C600CE1520003C08FA00FB0125
:102FD0007A08F6007B08F7009931D6210800210015
:102FE000A5000530A4002408A000250899310A2175
:102FF000043E203E860001308700010802390800A7
:1030D0000800080008000800080000300800003060
:1030E0000800FF30080000300800FF300800013001
:1030F0000800FF300800F001F101080021004B0832
:103100000800D034D83400348B34FF30F000FF3066
:10311000F1000800FD007D089431272408000830E4
:103120002000A5000030A400080008302000A50001
:103130008430A4000800FE0012001E00FE0B9C2834
:10314000003408302000A1008030F0007008A0009A
:10315000080000302000A4000030A500C830A40002
:1031600008002200AA01AB012100CA01C501C60165
:10317000C70108002200AA01AB012100CA01C50154
:10318000C601C701080000340034003400340034A4
:10319000E034E8340834083400342930F200700890
:1031A00086008701720881003230F0000030F100A3
:1031B0000800F5000530F4007408F0007508983137
:1031C000F920043E203E86000130870001080239C4
:1031D00008009D30F2007208F3007308F2007008D6
:1031E00086008701720881000930F0000030F1008C
:1031F0000800F200F301721C01297008F100710847
:10320000F3070310F00D0310F20CF208031DFB2866
:10321000730808002100A300A201231C1329200821
:10322000A1002108A2070310A00D0310A30CA308FE
:10323000031D0D29220808002100A6000530A40066
:103240002408A000260899310A212100A500250A9A
:10325000203E860001308700010808002100A100FF
:103260002135A0000130A035FF3E031D3329203554
:10327000043E203E86008701010D010D0139080042
:10328000F2007235F0000230F035890B4429700AE3
:10329000203E8600870181018430F0007235F10004
:1032A0000130F135FF3E031D51297135203E860066
:1032B0008701700881000800F401F501701C642981
:1032C0007208F4077308F53D0130F235F30D890BF0
:1032D00065290130F136F00C890B6A2971087004F8
:1032E000031D5E297508F101F1077408F001F0076C
:1032F00008002100A401A501201C82292208A4079E
:103300002308A53D0130A235A30D890B8329013087
:10331000A136A00C890B882921082004031D7C29D3
:103320002508A101A1072408A001A0070800710831
:10333000F801F8077008F701F7070130F4020030D0
:10334000F53BFF307506031DA729FF3074060319EE
:1033500008007208F600770886007808870076086B
:1033600081000130F7070030F83D9D292100210838
:10337000A801A8072008A701A7070130A402003070
:10338000A53BFF302506031DC729FF30240603197E
:1033900008002208A60027088600280887002608BB
:1033A00081000130A7070030A83DBD2900309831C9
:1033B000D92099310038031D080000302100CE19B2
:1033C0000130F8007808F90000302000A4007908E6
:1033D0000319EE297608A500C830F1297608A50062
:1033E0008830A4000830F80078082100CE060800D4
:1033F00020004108FC007C082100C7002000420892
:10340000FC007C082100C80020003E08B101B10783
:103410003D08B001B0074008B301B3073F08B2014F
:10342000B2074008B501B5073F08B401B4079731AA
:103430005D270800F5007108F701F7077008F6012D
:10344000F6077508F4007408F8000130F202003045
:10345000F33BFF307306031D2F2AFF30720603195A
:10346000080076088400770885000008F4007808D2
:1034700086008701740881000130F6070030F73DAF
:103480000130F4007408F807252A2100C501C6019F
:10349000C701C801C901CA01CB012200AA01AB01C1
:1034A000AC01AD01AE01AF01B001B101B20181309B
:1034B000840098308500CC308600003087000430CE
:1034C00098319B209A31C330840098308500203099
:1034D0008600013087000A3098319B2020009C3103
:1034E0001D2CF7000530F4007408F00077089831BF
:1034F000F9209A31033E203E860001308700010802
:10350000F5007735F6000130F635FF3E031D842ABD
:103510007635053E203E860087017508810084309F
:10352000F4007735F5000130F535FF3E031D942A90
:103530007535043E203E860087017408810008002E
:10354000F300F308031DB02AE430F200700886008F
:103550008701720881000430F0000030F10008009B
:103560007308013A031DC02A5B30F2007008860020
:103570008701720881003030F0000030F10008004F
:103580007308023A031DD02AB430F2007008860096
:103590008701720881001E30F0000030F100080041
:1035A0007308033A031DD92AFF30F000FF30F10001
:1035B0000800FF30F000FF30F100080021004C0847
:1035C0002000E3006308E5006508860087010030FD
:1035D000811B01302100C90098318F209A312100D0
:1035E000460845040319052B47080319022BF0016F
:1035F00048082000E3006308F100210047089131EA
:1036000001219A319831B1209A3120006508860055
:103610008701010E890C03390038031D182B9131E5
:1036200006219A312000E3006308E400E41F242B04
:10363000650898318A209A312000E3006308E4008D
:10364000E41F242B983195203D000E120800F8004D
:103650007808FB000030FC0020307C0200300319A9
:103660007B02031C3A2B7C08F701F7077B08F60165
:10367000F60708007C082000B0003008F9007B083D
:10368000B0003008FA007A088039B000B10179083A
:10369000B200B301B235B30D30083207B4003108BF
:1036A000333DB500350834040030031D0130B60049
:1036B000B7013608F0003708F1005030F200003052
:1036C000F30099315C217A087F3970072000B80037
:1036D00071080318710AB9003808E03EF6001F307F
:1036E000393DF70008002100B2003208B500003073
:1036F000B60020303602003003193502031C872B38
:103700003608A701A7073508A601A607080036084E
:10371000A8002808B3003508A8002808B400340819
:103720008039A800A9013308AA00AB01AA35AB0D66
:1037300028082A07AC0029082B3DAD002D082C04D1
:103740000030031D0130AE00AF012E08A0002F088D
:10375000A1005030A2000030A3009931792121004E
:1037600034087F392007B00021080318210AB1006E
:103770003008E03EA6001F30313DA70008002100C0
:10378000AB004B08031908002B089731EF279B313A
:103790000038031D080021002B35A8000130A83592
:1037A000FF3E031DCF2B2835043E203EA9002908EB
:1037B000AC000530A8002808A0002B0899310A2188
:1037C0009B31043E203E8600013087000030811985
:1037D00001302100A9002908AA002C0886008701D1
:1037E00081012A080319FD2B2608A8002C0A86004F
:1037F000870128088100C830052C2608A8002C0A5B
:1038000086008701280881008830A8002C088600DF
:103810008701280881000830A8000530A900290880
:10382000A0002B0899310A21043E203E8600013079
:10383000870021002808810608000B178B17953197
:10384000F6259C3164302100BD003D08C1000730E1
:10385000BD003D08C200C301C30A98317E209C31DF
:10386000003A03192D2C01309731EF279C31003895
:10387000031D2D2C013099312E219C310038031D60
:103880002D2C013099311C219C312100BD003D08B7
:10389000C40044088600870181010130C202031D73
:1038A000572C4308BF00C001BF1BC003592CBF01E8
:1038B000C0013F08BD00440A860087013D08810021
:1038C0004408023E8600870181010330A6000030D3
:1038D000A70001309B31BF239C312100C208031D8A
:1038E0002D2C0130C102031D852C6430BD003D0824
:1038F000C1004308BD003D08A000FF3099310A21F6
:103900009C312100BE003E08C3000730BD003D08C9
:10391000C2002D2C20002108F9007908B2002100F6
:103920004908013A031DA42C47080319A12CF001F2
:10393000F00A4808F9007908F1004708913101219F
:103940009C319831B120080021004A080319080071
:1039500020003208F900FA01210046087A02031D0E
:10396000B32C45087902031CBF2C46082000B10186
:10397000B107210045082000B001B007C72C200086
:103980003208F900FA017908B0007A08B10030086D
:10399000F9007908B30021004C08F0000030F10074
:1039A00020003308F900FA017908F2007A08F300E0
:1039B00021004A089A311A229C3120003308F9006C
:1039C00079082100CA0720003308F900FA017908B4
:1039D0002100C5027A08C63B083020003202031CD1
:1039E000F62C210046084504031D0800200032087B
:1039F000330203180E2D983195209C312100470881
:103A000003190B2DF0014808F9007908F100470867
:103A1000913101219C319831B12008009831A920C1
:103A2000080022002D0803191A2D2C083D009600CD
:103A30002200AD0121004608450403197B2D00300A
:103A40004602083003194502031C2C2D08302000C3
:103A5000B0000030B100362D210046082000B10131
:103A6000B107210045082000B001B0073008FA0076
:103A70007A08B20022002B08F101F1072A08F001B0
:103A8000F00720003208FA00FB017A08F2007B08F8
:103A9000F30021004D089A311A229D31200032088E
:103AA000FA00FB017A082100C5027B08C63B200012
:103AB0003208FA00FB017A082200AA077B08AB3D16
:103AC000210046084504031D702D20003208083AE5
:103AD000031D702D22002F080319702DAE01AE0AB0
:103AE00020003208FA00FB017A08F6007B08F70094
:103AF0009931D621080022002E0803198B2D0030A1
:103B0000F6000030F7009931D6219D312200AE0138
:103B10009831B12008002100C908031D080047089A
:103B200003199C2DF001F00A4808FA007A08F10008
:103B30004708913101219D319831B12008003D00A5
:103B4000101CAA2D98316B209D319E31A1269D31EC
:103B50003D001010901EE12D01302000EC000030DF
:103B6000ED006D08803AFF0080307F02031DBA2D02
:103B700002306C020318DF2D98302000E6000E3072
:103B8000E7006C086607E8006D08673DE900680813
:103B9000EA006908EB006A0886006B0887000110DC
:103BA0000130EC070030ED3D6D08803AFF008030B9
:103BB0007F02031DDD2D02306C02031CBC2D3D0075
:103BC0009012901D952E0F0C2000E600E60C660C5E
:103BD0000F390038031D122E3D000F19122E200040
:103BE000200C890C0F39E6006608EE006E080D3ACD
:103BF000031DFE2D9A31DE229D310E2E20006E080F
:103C0000093A03190E2E6E08013A031D0B2E9C3142
:103C10008A249D310E2E983195209D319831A12016
:103C20009D31932E3D000F0C2000E600E60C660C43
:103C30000F390038031D232E3D000F1D232E9D310B
:103C400011259D31932E3D000F0C2000E600E60C5F
:103C5000660C0F39003A0319932E3D000F0C20001B
:103C6000E600E60C660C0F39E70002306702031825
:103C7000932E3D000F1D682E05302000E6006608DB
:103C8000F0003D000F0C2000E700E70C670C0F3937
:103C90009831F9209D31043E203E86000130870096
:103CA000811C5D2E3D000F0C2000E600E60C660C2A
:103CB0000F399A3171229D31932E3D000F0C200057
:103CC000E600E60C660C0F3998316C209D31932E7E
:103CD00005302000E6006608F0003D000F0C2000D3
:103CE000E700E70C670C0F399831F9209D31043E4D
:103CF000203E860001308700011C892E3D000F0CFC
:103D00002000E600E60C660C0F39993140219D3108
:103D1000932E3D000F0C2000E600E60C660C0F39D8
:103D2000903103209D313D009011101F9C2E903149
:103D3000FF209D313D0010132000121D08001211BC
:103D400008003D0011109110920197018E15111677
:103D500011159011901190119011900192159216D9
:103D6000121412179830F0000E30F1000030F200FB
:103D70000030F3001030F4000030F5009931972145
:103D80009E313D001816981118159814181020002F
:103D9000BF01BF0A02303F020318F92E3F08983EC8
:103DA000BA00BB010E30BB3D3A08BD003B08BE0067
:103DB0003D0886003E08870001163D0886003E0843
:103DC000870081153D0886003E08870001153D08E3
:103DD00086003E08870081143D0886003E08870063
:103DE00001100130BA003A08BF0702303F02031C3D
:103DF000CE2E3D0096012200AD012100CB01CE0167
:103E00002000BF0102303F020318202F0430BA0007
:103E10000530BB003B08F0003F089831F9209E3187
:103E2000043E203E86000130870020003A088100D1
:103E30000130BA003A08BF0702303F02031C062FC8
:103E40002030F0000030F1000030F2000030F300CC
:103E50001030F4000030F500993197219E31210097
:103E60004C089B3127239E3177082000A301A3072C
:103E70007608A201A2070830A1008030BA003A08F3
:103E8000A00021004D089B3127239E317708200098
:103E9000A701A7077608A601A6070830A5000030ED
:103EA000A400BF01BF0A02303F020318FA2F0530F9
:103EB000BA003A08F0003F089831F9209E31203EC0
:103EC00086000130870001089B3127239E312000A6
:103ED0003F35BB000130BB35FF3E031D6B2F3B352B
:103EE000023E203E860087017608C03F7708C13F2A
:103EF0000530BA003A08F0003F089831F9209E31A9
:103F0000023E203E86000130870001082000BB00F1
:103F10003F35BC000230BC35890B8B2F3C0A203E5C
:103F2000860087013B0881008830BA003F35BB001E
:103F30000130BB35FF3E031D992F3B35203E8600E7
:103F400087013A0881000530BA003A08F0003F08BE
:103F50009831F9209E312000BB003B0A203E8600AC
:103F60000130870001089B3127239E3120003F3517
:103F7000BC000130BC35FF3E031DBA2F3C35063E68
:103F8000203E860087017608C03F7708C13F053094
:103F9000BA003A08F0003F089831F9209E31033EFC
:103FA000203E86000130870001082000BB003F351D
:103FB000BC000130BC35FF3E031DDA2F3C35053E09
:103FC000203E860087013B0881003F35BA00013062
:103FD000BA35FF3E031DE82F3A35043E203E8600E9
:103FE000870181010130BA003A08BF0702303F0261
:0E3FF000031C572F9831B12021001215080034
:00000001FF
