:10000000000080310E280800803120007F08F000B9
:100010009031042870082000FF0009002000030828
:10002000A00080311328FC01EF012100C201C301AF
:10003000C401C501C601C701C801C901CA01CB017C
:10004000CC01843084008A308500A03086000030E6
:1000500087000030FF0014308A31152220008331E0
:100060008E2B2000C90121002F082000DB01DB07B7
:1000700021002E082000DA01DA075A0886005B0802
:10008000870041310108063A031D1A295A088600E3
:100090005B0887000108803A031D1A295A08860068
:1000A0005B0887004231403FBF00413FC00040082D
:1000B000C1004108D7005A0886005B08870042311A
:1000C0000108BF003F08D8005708013A031D8328E4
:1000D0005C30B0008830B1005C3088310A0080317B
:1000E000BF00C0013F08B2004008B3005A088600B4
:1000F0005B0887004631403FB400413FB5008E3178
:100100006A2680318B2B20005708023A031DB52840
:10011000580803198F288931F52180318B2B200055
:100120005808B33E860087010108BF003F08D00091
:100130005008B0008830B100500884008830850035
:10014000023084070318850A003FB200013FB30064
:100150005A0886005B0887004631403FB400413FA3
:10016000B5008E316A2680318B2B20005708033A68
:10017000031DE7285630BF003F08F10058088B31B7
:100180002C23803172082000CC01CC077108CB01F0
:10019000CB07CC1FCF288931F52180318B2B200054
:1001A0005608B0008830B1004C08B301B3074B08C3
:1001B000B201B2075A0886005B0887004631403F0B
:1001C000B400413FB5008E316A2680318B2B200070
:1001D0005B08F201F2075A08F101F1074F30BF0046
:1001E0003F08F3008731FA27803172082000CE01E2
:1001F000CE077108CD01CD07CE1F02298931F52127
:1002000080318B2B20004F08B0000030B1004E0829
:10021000B301B3074D08B201B2075A0886005B0864
:1002200087004631403FB400413FB5008E316A2619
:1002300080318B2B20005A0886005B0887004131F3
:100240000108053A031D36292100C701C70A20000D
:100250005A0886005B08870042310108BF003F084A
:100260002100C6008931DA2180318B2B20005A0809
:1002700086005B08870041310108093A031D5729B0
:100280005A0886005B08870042310108BF003F081A
:10029000D10051088931C52180318931DA2180317D
:1002A00020005108BF003F082100CC008B2B20000C
:1002B0005A0886005B08870041310108083A031D8F
:1002C0007629CC30B0000030B1000130B2000030EF
:1002D000B3005A0886005B0887004631403FB400EF
:1002E000413FB5008E316A2680318B2B20005A08A1
:1002F00086005B08870041318108031D0C2A5A08DB
:1003000086005B08870001081F390038031DA729F4
:100310008931CD21803172082000C301C3077108E3
:10032000C201C2074230B0000030B1000230B2005A
:100330000030B3005A0886005B0887004631403F12
:10034000B400413FB5008E316A2680318B2B2000EE
:100350005A0886005B08870001081F39023A031D0E
:10036000082A5A0886005B088700443101080F39C3
:10037000BF003F08D200023052020318042A07309F
:10038000BF003F08F10052088A3150228031063EFA
:10039000A03E8600870101082000C0004008D3006D
:1003A0005A0886005B0887004431403FBF00413F48
:1003B000C000BF1BDE2953080139E0295308023968
:1003C000BF00C0013F08C6004008C70047084604F8
:1003D0000030031D0130BF003F08C400C501443098
:1003E000B0000030B1000230B2000030B3005A0853
:1003F00086005B0887004631403FB400413FB500AE
:100400008E316A2680318B2B8931F52180318B2BFF
:100410008931F52180318B2B20005A0886005B083A
:100420008700413101080B3A031D362A5A0886001D
:100430005B08870042310108BF003F08F1005A08FD
:1004400086005B088700443101088931C921803169
:100450002000C0004008C800C81F322A8931F52199
:1004600080318B2B8931DA2180318B2B20005A0887
:1004700086005B088700413101080A3A031D692A9A
:100480005A0886005B088700443101088931CB2176
:1004900080312000BF003F08D500D51F532A893185
:1004A000F52180318B2B55302000B0000030B10099
:1004B0000130B2000030B3005A0886005B088700A4
:1004C0004631403FB400413FB5008E316A2680314D
:1004D0008B2B20005A0886005B08870041310108F9
:1004E000013A03197C2A5A0886005B0887004131CB
:1004F0000108033A031D892BCA01CA0A5A0886005B
:100500005B08870001081F39023A031D7E2B5A0839
:1005100086005B088700423116000104031D7E2B14
:100520005A0886005B088700443101080F39BF0074
:100530003F08D9005A0886005B088700443101084B
:100540008039BF003F08D4000230590203187E2BC7
:100550005A0886005B08870041310108033A031DF1
:10056000DB2A54080319C72A0730BF003F08F100EF
:1005700059088A3150228031063EA03E860087010C
:100580008114200059088B31A5238031652B073059
:100590002000BF003F08F10059088A315022803105
:1005A000063EA03E860087010114200059088A31CA
:1005B00098228031652B2000540803191C2B07302A
:1005C000BF003F08F10059088A3150228031053EB2
:1005D000A03E8600870101082000C0005935C100F7
:1005E0000130C135FF3E031DF12A4135053E203E55
:1005F00086008701400881005935BF000130BF35B2
:10060000FF3E031DFF2A3F35043E203E8600870142
:100610008101F730BF000730C0004008F1005908E1
:100620008A3150228031063EA03E8600870120009C
:100630003F088105FD30552B0730BF003F08F10012
:1006400059088A3150228031043EA03E860087013D
:1006500001082000C0005935C1000230C135890BA6
:100660002E2B410A203E86008701400881008830F9
:10067000BF005935C0000130C035FF3E031D3C2B83
:100680004035203E860087013F0881000730BF00CB
:100690003F08F10059088A3150228031063EA03EC1
:1006A000860087010115FE302000BF000730C00022
:1006B0004008F10059088A3150228031063EA03EA0
:1006C0008600870120003F08810520005A08860027
:1006D0005B08870041310108033A003003190130FB
:1006E000BF003F08F1005A0886005B0887004431CC
:1006F00001088931C62180312000CA01CA08031DC2
:10070000852B8931DA2180318B2B8931F52180319C
:100710008B2BC901C903200049080800210095134B
:10072000083024008C0021009801FC3099009030A2
:1007300027009B002100B501B801B901BF011030AD
:100740002000E90069082100BC003C082300920059
:1007500021003F082300910015131514000000002C
:10076000230014082000E900EA0169082100B6000E
:1007700020006A082100B7000830B635B70D890B94
:10078000BD2B230013082000E900EA0169082100BD
:10079000B60720006A082100B73D01302000E900BB
:1007A00069082100BF07BF08031DE82B01302000A6
:1007B000E90069082100BC0739083706031DE22B50
:1007C00038083606031935153C08203A0319302C31
:1007D000BD010E303D020318A52B01303605200067
:1007E000E9000030210037052000EA000130210037
:1007F00038052000EB000030210039052000EC0016
:1008000069086B06ED006A086C06EE006E086D0460
:1008100003191E2C210039082000EA0021003808A5
:100820002000E900EA36E90CB13069062100B80081
:10083000233020006A062100B900242C0130210059
:10084000B936B80C890B202C0130B736B60C890BA1
:10085000252C01302000E90069082100BD07E92BA3
:1008600020008C1D3B2C2100351D3B2C2000201E20
:100870003B2C210035142100951724008C01210008
:10088000351C442C903100288631122683310130EA
:100890008A317222833176082100BB01BB077508BB
:1008A000BA01BA078F31002783318931D0218331D2
:1008B00000380319522C01308A312122833100384B
:1008C000031D522C01308A3161228331003A031D0D
:1008D000522C01308A314022833100380319522CC6
:1008E000C0302000E9006908F50001308B310D238C
:1008F00083312000EA006A082100B400BE014008EC
:1009000086004108870001082000E90021003E0818
:100910002000EA00EB016A0821003A072000EC0001
:100920006B0821003B3D2000ED006C0886006D083F
:100930008700690881000130E90069082100BE07CD
:100940004008860041088700413101082000E90085
:1009500021003E082000EA00EB016A0821003A0766
:100960002000EC006B0821003B3D2000ED006C08EE
:1009700086006D088700690881000130E900690878
:100980002100BE0740088600410887004231010867
:100990002000E90021003E082000EA00EB016A087F
:1009A00021003A072000EC006B0821003B3D2000AD
:1009B000ED006C0886006D08870069088100013031
:1009C000E90069082100BE07400886004108870049
:1009D000413101082000E90069082100BC004008FD
:1009E000860041088700423101082000E9006908BB
:1009F0002100BF004008860041088700003001192F
:100A000001302000E900E90EE90DE90D2300150889
:100A100020006906BF39690623009500E72D2100F3
:100A20003C082300920021003F0823009100151488
:100A300000000000230014082000E90021003E0807
:100A40002000EA00EB016A0821003A072000EC00D0
:100A50006B0821003B3D2000ED006C0886006D080E
:100A60008700690881000130E90069082100BE079C
:100A7000230013082000E90021003E082000EA00BE
:100A8000EB016A0821003A072000EC006B08210006
:100A90003B3D2000ED006C0886006D08870069086A
:100AA00081000130E90069082100BE070130200003
:100AB000E90069082100BF07BF08031D652D01304B
:100AC0002000E90069082100BC0723303E0203181A
:100AD000002E0F2D3C082300920021003F08230028
:100AE00091001516151555309600AA3096009514EC
:100AF00000000000E42D21003C08230092002100AA
:100B00003F0823009100151295161515033020009B
:100B1000E90069082100BD0021003D082000E9002E
:100B2000EA01690821004007860020006A082100C8
:100B3000413D870001082300940001302000E900B6
:100B400069082100BD073D082000E900EA016908A5
:100B500021004007860020006A082100413D8700EF
:100B600001082300930001302000E90069082100FA
:100B7000BD0723303D020318C02D2300151FC22DD1
:100B80002300951255309600AA3096009514000067
:100B90000000233021003D020318E42D2300151B23
:100BA000E42D01302000E90069082100BF07BF08DB
:100BB000031DE02D01302000E90069082100BC0779
:100BC0003F08230091008C2D23001511002E2100D9
:100BD00040088600410887000108803A03190F2D5C
:100BE000013A03196A2D033A03197B2D063A0319BA
:100BF0000F2D013A03196A2D033A03197B2D002E9C
:100C000021003E082000E900EA016908F7006A08AF
:100C1000F80001308C317224833101308C31D224C0
:100C20008331522C3D0011109110920197018E15C5
:100C3000111611159011901190119011900198308A
:100C4000F1000E30F2000030F3000030F4001030FC
:100C5000F5000030F6008A31EE2286313D0018168C
:100C600098111815981418102000C301C30A0230F7
:100C700043020318662E4308983EBE00BF010E30A3
:100C8000BF3D3E08C1003F08C2004108860042083F
:100C90008700011641088600420887008115410837
:100CA0008600420887000115410886004208870037
:100CB0008114410886004208870001100130BE00FF
:100CC0003E08C30702304302031C3B2E3D00960141
:100CD0002100C701CC01B2012000C3010230430250
:100CE00003188B2E0430BE000730BF003F08F10010
:100CF00043088A3150228631063EA03E8600870195
:100D000020003E0881000130BE003E08C3070230CB
:100D10004302031C722E2030F1000030F20000303C
:100D2000F3000030F4001030F5000030F6008A3196
:100D3000EE22863121002F08F801F8072E08F7016E
:100D4000F7078B31D323863178082000A301A3074E
:100D50007708A201A2070830BE003E08A10080303B
:100D6000BE003E08A00021003108F801F807300855
:100D7000F701F7078B31D323863178082000A701CC
:100D8000A7077708A601A6070830BE003E08A50001
:100D9000A401C301C30A023043020318722F0730B3
:100DA000BE003E08F10043088A3150228631A03E41
:100DB00086008701403FF700413FF8008B31D32385
:100DC000863120004335BF000130BF35FF3E031D93
:100DD000E52E3F35023E203E860087017708C03F62
:100DE0007808C13F0730BE003E08F10043088A3151
:100DF00050228631043EA03E860087010108200073
:100E0000BF004335C0000230C035890B042F400AB3
:100E1000203E860087013F0881008830BE004335B0
:100E2000BF000130BF35FF3E031D122F3F35203E6E
:100E3000860087013E0881000730BE003E08F100B1
:100E400043088A3150228631023EA03E8600870147
:100E5000403FF700413FF8008B31D323863120001B
:100E60004335BF000130BF35FF3E031D332F3F35F3
:100E7000063E203E860087017708C03F7808C13FC4
:100E80000730BE003E08F10043088A315022863107
:100E9000053EA03E8600870101082000BF004335C3
:100EA000C0000130C035FF3E031D522F4035053EC6
:100EB000203E860087013F0881004335BE00013097
:100EC000BE35FF3E031D602F3E35043E203E8600AA
:100ED000870181010130BE003E08C3070230430292
:100EE000031CCF2E8931E22108002000450886002E
:100EF0004608870044310108C7004708CC00450870
:100F000086004608870041310108063A031DF82F84
:100F100045088600460887000108813A031DF82F1E
:100F200045088600460887004231403FC700413FE0
:100F3000C8004808C9004908CD00FF30CE00FF3086
:100F4000CF004D08213A031DB32F5030C70047088A
:100F5000F1004C088A313022873172082000CF011D
:100F6000CF077108C42F4D08223A031DC62F5030F9
:100F7000C7004708F1004C088A31092287317208FE
:100F80002000CF01CF077108CE01CE07CF1FCA2F97
:100F9000FF30080045088600460887004631403F7C
:100FA000C700413FC80048084F02031DD92F47081A
:100FB0004E02031CE52F450886004608870046318F
:100FC000403FCA00413FCB00EB2F4F08CB01CB077E
:100FD0004E08CA01CA074B08C001C0074A08BF0132
:100FE000BF07C101C20150088A31D1220030080078
:100FF000FF300800FF30F100FF30F2000800080069
:10100000003409340234293400340134013400340A
:10101000803432340934043400340034023403346C
:1010200000340034003409342134013401340034F4
:10103000013422341C340034073405348134033441
:10104000403400340134073405340134033440346F
:101050000034013406340034FF3409340134A1343F
:101060000134193401342934403415340134253421
:1010700040347534083495344034813400341934A4
:1010800001342934403491340034C03416340334EC
:10109000623400346F3400346F34003474340034FC
:1010A0006C3400346F340034613400346434003400
:1010B00065340034723400341234013400340234A4
:1010C000003400340034083450341D349D3460340E
:1010D0000534013400340134003401340434033461
:0410E0000934043497
:10138A0008000800080008000030080000300800C3
:10139A00F101F201080021004C0808000830F100B0
:1013AA0071082000A500A40108002000A401A501DD
:1013BA00C830F1007108A40008002100C401C50169
:1013CA00CA01C201C3012000EF0108000830F10080
:1013DA0071082000A1008030F1007108A000080007
:1013EA000830F10071082000A5008430F10071086E
:1013FA00A400080020005208C601C6075108C5010A
:10140A00C5078731752708002A30F300710886005E
:10141A008701730881001C30F1000030F2000800D7
:10142A00FE0012001E000130FE020030FF3B7F0862
:10143A007E0403190034162AF6000730F5007508F1
:10144A00F10076088A315022063EA03E86008701C6
:10145A000108023908001330F3007308F400740815
:10146A00F300710886008701730881000930F100D2
:10147A000030F2000800F2007235F1000130F13557
:10148A00FF3E031D442A7135203E86008701003045
:10149A00811F01300800F400F301741C582A7108F6
:1014AA00F2007208F3070310F10D0310F40CF408AC
:1014BA00031D522A73080800F2007235F100013048
:1014CA00F135FF3E031D652A7135043E203E860034
:1014DA008701010D010D01390800F8000730F700F6
:1014EA007708F10078088A3150228A31023EA03EFC
:1014FA0086008701403FF500413FF60008000034AE
:10150A000034003400340034003400349034203481
:10151A00D034203440344034003480342034883489
:10152A00203400340134F3007335F1000230F13510
:10153A00890B9C2A710A203E86008701810184302A
:10154A00F1007335F2000130F235FF3E031DA92A7E
:10155A007235203E86008701710881000800F50176
:10156A00F601711CBC2A7308F5077408F63D0130B0
:10157A00F335F40D890BBD2A0130F236F10C890BD3
:10158A00C22A72087104031DB62A7608F201F2070C
:10159A007508F101F10708002000C4004108C300E2
:1015AA004308EF004208C3004308FC004408B000A7
:1015BA008830B1004008B301B3073F08B201B2074F
:1015CA004008B501B5073F08B401B4078E316A2651
:1015DA0008007208F901F9077108F801F8070130E3
:1015EA00F5020030F63BFF307606031DFE2AFF3077
:1015FA007506031908007308F70078088600790849
:10160A008700770881000130F8070030F93DF42A95
:10161A00F7000730F6007608F10077088A31502281
:10162A008B31A03E86008701750884008501403F02
:10163A00803F413F813F7735F6000230F635890B0E
:10164A00232B760A203E8600870101080800F40051
:10165A00F408031D3C2B6E30F300710886008701E5
:10166A00730881000430F1000030F20008007408A9
:10167A00013A031D4C2B4630F3007108860087019E
:10168A00730881001630F1000030F2000800FF30C4
:10169A00F100FF30F200080000308A3121228B313C
:1016AA000038031D080000302100B2190130F9008A
:1016BA007908FA002000A4017A0803196A2B77082E
:1016CA00F9007908A500C8306F2B7708F900790866
:1016DA00A5008830F9007908A4000830F9007908D3
:1016EA002100B20608007408FB01FB077308FA011F
:1016FA00FA077208F901F9077108F801F8070130C9
:10170A00F5020030F63BFF307606031D8E2BFF30C4
:10171A007506031908007A0884007B08850000080A
:10172A00F700780886007908870077088100013079
:10173A00FA070030FB3D0130F8070030F93D842BF1
:10174A00F8000730F5007508F10078088A31502250
:10175A008B31053EA03E860087010108F6007835E8
:10176A00F7000130F735FF3E031DB72B7735053EED
:10177A00203E86008701760881008430F50078359E
:10178A00F6000130F635FF3E031DC72B7635043EC1
:10179A00203E86008701750881000800780820002D
:1017AA00BD01BD077708BC01BC0720303D020030EF
:1017BA0003193C02031CE82B3D08F801F8073C0812
:1017CA00F701F70708003D08B0003008BA003C08E6
:1017DA00B0003008BB003B088039B000B1013A08BC
:1017EA00B200B301B235B30D30083207B400310884
:1017FA00333DB500350834040030031D0130B6000E
:10180A00B7013608F1003708F2005030F300003013
:10181A00F4008A31B42220003B087F397107B800EE
:10182A0072080318720AB9003808E03EF7001F3040
:10183A00393DF800080021002F082000DF01DF07EA
:10184A0021002E082000DE01DE075E0886005F0800
:10185A0087000030811B01302100C9008931D32162
:10186A008C3121004308420403194A2C20006F08D6
:10187A000319472C80017C08DC005C0881006F0892
:10188A008C31462C8931E2218C3120005E08860099
:10189A005F088700010E890C03390038031D5E2C8E
:1018AA00803131208C312000DC005C08DD00DD1F36
:1018BA006F2C5F08D201D2075E08D101D1078931A6
:1018CA00FF218C312000DC005C08DD00DD1F6F2C5D
:1018DA008931F5213D000E1208002000B1002100D7
:1018EA004C0803190800200031088A3121228C3162
:1018FA0000380319822C2100080020003135F90034
:10190A000130F935FF3E031D862C7935043E203E11
:10191A00FA007A08B2000730F9007908F1003108B4
:10192A008A3150228C31063EA03E86008701003063
:10193A0081190130FA007A082000B00032088600C6
:10194A008701810130080319B32C7708F900320A9C
:10195A008600870179088100C830BB2C7708F90016
:10196A00320A86008701790881008830F900320836
:10197A0086008701790881000830F9000730FA00EB
:10198A007A08F10031088A315022063EA03E8600CC
:10199A0087017908810621000800F9000730F5005F
:1019AA007508F10079088A3150228C31063EA03E32
:1019BA0086008701003001190130F6007608F80028
:1019CA00780803190C2D0730F5007508F10079081D
:1019DA008A3150228C31043EA03E860087010108DC
:1019EA00F6007935F7000230F735890BF92C770ABA
:1019FA00203E8600870176088100C830F5007935D7
:101A0A00F6000130F635FF3E031D072D2F2D073056
:101A1A00F5007508F10079088A3150228C31043EAC
:101A2A00A03E860087010108F6007935F7000230EA
:101A3A00F735890B1D2D770A203E86008701760827
:101A4A0081008830F5007935F6000130F635FF3E21
:101A5A00031D2B2D7635203E8600870175088100EF
:101A6A000430F5000730F6007608F10079088A316B
:101A7A005022063EA03E86008701750881060800AE
:101A8A0020002108B0003008B40021004908013ABA
:101A9A00031D5F2D20006F0803195C2D8001800A49
:101AAA007C08B000300881006F088D315B2D8931C8
:101ABA00E221080021004A0803190800200034081E
:101ACA00B000B1012100430820003102031D712D2D
:101ADA002100420820003002031C7E2D2100430809
:101AEA002000B301B307210042082000B201B20767
:101AFA00852D3408B000B1013008B2003108B300B6
:101B0A003208B0003008B50021004A08F100003060
:101B1A00F2002F08F401F4072E08F301F30720005E
:101B2A003508B000B1013008F5003108F6008B31F4
:101B3A0078238D3120003508B00030082100CA070B
:101B4A0020003508B000B10130082100C20220008F
:101B5A0031082100C33B083020003402031CBA2D8F
:101B6A00210043084204031D0800200034083502FE
:101B7A000318D22D8931F5218D3120006F08031900
:101B8A00CE2D80017C08B000300881006F088D31AD
:101B9A00CD2D8931E221210008008931DA21210085
:101BAA000800210047080319DF2D46083D0096006A
:101BBA002100C701430842040319462E003043029C
:101BCA00083003194202031CF02D08302000B2002D
:101BDA000030B300FA2D210043082000B301B307F7
:101BEA00210042082000B201B2073208B0003008D2
:101BFA00B40021003108F201F2073008F101F107BF
:101C0A004508F401F4074408F301F30720003408F7
:101C1A00B000B1013008F5003108F6008B317823A5
:101C2A008D3120003408B000B10130082100C20211
:101C3A00200031082100C33B20003408B000B10164
:101C4A0030082100C407200031082100C53D43089F
:101C5A004204031D3B2E20003408083A031D3B2E84
:101C6A0021004B0803193B2EC801C80A200034087A
:101C7A00B000B1013008F7003108F8008B31512368
:101C8A000800210048080319562E0030F7000030DA
:101C9A00F8008B3151238D312100C8018931E221AD
:101CAA0008002100C908031D080020006F08031955
:101CBA00672E8001800A7C08B000300881006F0816
:101CCA008E31662E8931E22108000030200033026D
:101CDA00083003193202031C772E0830B80000308E
:101CEA00B9007D2E3308B901B9073208B801B8071F
:101CFA003808B6003608BE003E08B600B7013508F7
:101D0A003702031D8A2E34083602031C932E350827
:101D1A00BB01BB073408BA01BA079A2E3E08B600BF
:101D2A00B7013608BA003708BB003A08B6003608C9
:101D3A00BE0035083302031DA42E340832020030D7
:101D4A00031C0130B60036082100CB003108F2012D
:101D5A00F2073008F101F10720003108F401F40715
:101D6A003008F301F3073E08B600B7013608F5005C
:101D7A003708F6008B3178238E3120003E08B600F2
:101D8A00B701360830072100C40020003708313D6A
:101D9A002100C500200033083502031DD62E320863
:101DAA003402031CDD2E3308BD01BD073208E12EC3
:101DBA003508BD01BD073408BC01BC073E08B600A2
:101DCA00B701B609B709B60A0319B70A3C083607B4
:101DDA002100C20020003D08373D2100C300B21592
:101DEA0020003E08B600B7013608F7003708F800A9
:101DFA008B31512308003D00101C0B2F8931C7215C
:101E0A008F31863112268F313D001010901E422FDD
:101E1A0001302000E7000030E8006808803AFF003F
:101E2A0080307F02031D1B2F023067020318402FE8
:101E3A0098302000E0000E30E10067086007E200F9
:101E4A006808613DE3006208E4006308E50064088D
:101E5A0086006508870001100130E7070030E83D79
:101E6A006808803AFF0080307F02031D3E2F02304F
:101E7A006702031C1D2F3D009012901DF42F0F0CBA
:101E8A002000E000E00C600C0F390038031D732FAE
:101E9A003D000F19732F2000200C890C0F39E00028
:101EAA006008E60066080D3A031D5F2F8C31202476
:101EBA008F316F2F20006608093A03196F2F6608C1
:101ECA00013A031D6C2F8D3145258F316F2F8931D2
:101EDA00F5218F318931EB218F31F22F3D000F0C23
:101EEA002000E000E00C600C0F390038031D842F3D
:101EFA003D000F1D842F8D31D6258F31F22F3D00E5
:101F0A000F0C2000E000E00C600C0F39003A0319B6
:101F1A00F22F3D000F0C2000E000E00C600C0F399E
:101F2A00E100023061020318F22F3D000F1DC82F95
:101F3A0007302000E0006008F1003D000F0C20008F
:101F4A00E100E10C610C0F398A3150228F31063ED3
:101F5A00A03E86008701811CBD2F3D000F0C20008A
:101F6A00E000E00C600C0F398B31A5238F31F22F82
:101F7A003D000F0C2000E000E00C600C0F398931A5
:101F8A00C8218F31F22F07302000E0006008F100ED
:101F9A003D000F0C2000E100E10C610C0F398A3181
:101FAA0050228F31063EA03E86008701011CE82F91
:101FBA003D000F0C2000E000E00C600C0F398A3164
:101FCA0098228F31F22F3D000F0C2000E000E00C28
:101FDA00600C0F39803103208F313D009011101FA2
:101FEA00FB2F8731FF278F313D0010132000121D70
:061FFA00080012110800AE
:020000040001F9
:04000E000CCFCDDF67
:00000001FF
