:06200000000090310B28E6
:10200800903120007F08F0007008FF00090090312F
:102018000D28FC01ED01EE01EF012100B401B5012D
:10202800B601B701B801B901BA01BB01BC01EA3078
:10203800840097308500A03086000030870000308B
:10204800FF0014309C316C2420009F318C2F20001D
:10205800C90121002F082000D701D70721002E0829
:102068002000D601D6075608860057088700413158
:102078000108063A031DE528560886005708870018
:102088000108803A031DE52856088600570887008E
:102098004231403FBF00413FC0004008C1004108F5
:1020A800D200560886005708870042310108BF0051
:1020B8003F08D3005208013A031D7D28BC30B00008
:1020C8009730B100BC3097310A009031BF00C00191
:1020D8003F08B2004008B30056088600570887003A
:1020E8004631403FB400413FB50095314C25903111
:1020F800042B20005208023A031DAF285308031985
:1021080089289C314C249031042B20005308B33E7D
:10211800860087010108BF003F08CE004E08B000C6
:102128009730B1004E08840097308500023084074C
:102138000318850A003FB200013FB3005608860025
:10214800570887004631403FB400413FB5009531FC
:102158004C259031042B20005208033A031DE12836
:102168005430BF003F08F10053089D31E6259031F7
:1021780072082000CD01CD077108CC01CC07CD1F16
:10218800C9289C314C249031042B20005408B000FD
:102198009730B1004D08B301B3074C08B201B2073C
:1021A80056088600570887004631403FB400413F33
:1021B800B50095314C259031042B9C314C2490313D
:1021C800042B200056088600570887004131010873
:1021D800053A031D01292100B701B70A2000560856
:1021E80086005708870042310108BF003F082100D8
:1021F800B6009C3131249031042B2000560886000B
:102208005708870041310108093A031D1E2956085D
:1022180086005708870042310108BF003F08C80000
:102228009C313124903120004808BF003F0821002C
:10223800BC00042B2000560886005708870041314F
:102248000108083A031D3D29BC30B0000030B10038
:102258000130B2000030B3005608860057088700E6
:102268004631403FB400413FB50095314C2590318F
:10227800042B200056088600570887004131810842
:10228800031DCB29560886005708870001081F3907
:102298000038031D6629C201C3014230B000003076
:1022A800B1000230B2000030B3005608860057086B
:1022B80087004631403FB400413FB50095314C2579
:1022C8009031042B20005608860057088700010823
:1022D8001F39023A031DC729560886005708870088
:1022E800443101080F39BF003F08CF0002304F02C8
:1022F8000318C3290730BF003F08F1004F089C317D
:10230800A7249031063EA03E8600870101082000E0
:10231800C0004008D000560886005708870044319E
:10232800403FBF00413FC000BF1B9D2950080139F5
:102338009F2950080239BF00C0013F08C600400865
:10234800C700470846040030031D0130BF003F089E
:10235800C400C5014430B0000030B1000230B20002
:102368000030B30056088600570887004631403FC2
:10237800B400413FB50095314C259031042B9C3178
:102388004C249031042B9C314C249031042B200098
:102398005608860057088700413101080B3A031D8B
:1023A800D9299C3131249031042B2000560886000D
:1023B80057088700413101080A3A031DF929CA0163
:1023C8004A30B0000030B1000130B2000030B30034
:1023D80056088600570887004631403FB400413F01
:1023E800B50095314C259031042B20005608860005
:1023F8005708870041310108013A03190C2A560889
:1024080086005708870041310108033A031D022B53
:10241800CB01CB0A560886005708870001081F39E8
:10242800023A031DF72A56088600570887004231EA
:1024380016000104031DF72A56088600570887006E
:10244800443101080F39BF003F08D50056088600FF
:1024580057088700443101088039BF003F08D10080
:10246800023055020318F72A5608860057088700D5
:1024780041310108033A031D6B2A51080319572AF1
:102488000730BF003F08F10055089C31A724903160
:10249800063EA03E860087018114200055089D3124
:1024A800B8259031F52A07302000BF003F08F10019
:1024B80055089C31A7249031063EA03E860087012E
:1024C8000114200055089C31EF249031F52A200092
:1024D80051080319AC2A0730BF003F08F10055081E
:1024E8009C31A7249031053EA03E86008701010853
:1024F8002000C0005535C1000130C135FF3E031D25
:10250800812A4135053E203E86008701400881002A
:102518005535BF000130BF35FF3E031D8F2A3F35BB
:10252800043E203E860087018101F730BF00073056
:10253800C0004008F10055089C31A7249031063EA0
:10254800A03E8600870120003F088105FD30E52A6E
:102558000730BF003F08F10055089C31A72490318F
:10256800043EA03E8600870101082000C0005535C2
:10257800C1000230C135890BBE2A410A203E8600BF
:102588008701400881008830BF005535C000013000
:10259800C035FF3E031DCC2A4035203E860087010A
:1025A8003F0881000730BF003F08F10055089C3103
:1025B800A7249031063EA03E860087010115FE3013
:1025C8002000BF000730C0004008F10055089C31CA
:1025D800A7249031063EA03E8600870120003F08D0
:1025E80081052000CB01CB08031DFE2A9C31312434
:1025F8009031042B9C314C249031042BC901C90320
:102608002000490808003D0011109110920197011F
:102618008E151116111590119011901190119001AD
:102628009830F1000E30F2000030F3000030F40072
:102638001030F5000030F6009D31452593313D00FE
:10264800181698111815981418102000C301C30AF9
:102658000230430203185B2B4308983EBE00BF01BB
:102668000E30BF3D3E08C1003F08C2004108860049
:102678004208870001164108860042088700811534
:102688004108860042088700011541088600420873
:102698008700811441088600420887000110013034
:1026A800BE003E08C30702304302031C302B3D0026
:1026B80096012100B701BC01B2012000C30102301C
:1026C80043020318802B0430BE000730BF003F08C8
:1026D800F10043089C31A7249331063EA03E8600B2
:1026E800870120003E0881000130BE003E08C30774
:1026F80002304302031C672B2030F1000030F20047
:102708000030F3000030F4001030F5000030F6001F
:102718009D314525933121002F08F801F8072E082F
:10272800F701F7079E311B26933178082000A30193
:10273800A3077708A201A2070830BE003E08A1003F
:102748008030BE003E08A00021003108F801F807DB
:102758003008F701F7079E311B26933178082000CF
:10276800A701A7077708A601A6070830BE003E08FC
:10277800A500A401C301C30A023043020318672C51
:102788000730BE003E08F10043089C31A72493316E
:10279800A03E86008701403FF700413FF8009E3188
:1027A8001B26933120004335BF000130BF35FF3E63
:1027B800031DDA2B3F35023E203E8600870177084D
:1027C800C03F7808C13F0730BE003E08F10043080B
:1027D8009C31A7249331043EA03E8600870101085E
:1027E8002000BF004335C0000230C035890BF92BEB
:1027F800400A203E860087013F0881008830BE00DD
:102808004335BF000130BF35FF3E031D072C3F3560
:10281800203E860087013E0881000730BE003E0842
:10282800F10043089C31A7249331023EA03E860064
:102838008701403FF700413FF8009E311B26933146
:1028480020004335BF000130BF35FF3E031D282C53
:102858003F35063E203E860087017708C03F78084E
:10286800C13F0730BE003E08F10043089C31A72451
:102878009331053EA03E8600870101082000BF0075
:102888004335C0000130C035FF3E031D472C40359D
:10289800053E203E860087013F0881004335BE0083
:1028A8000130BE35FF3E031D552C3E35043E203E0B
:1028B8008600870181010130BE003E08C30702304F
:1028C8004302031CC42B9C31392408003D00101C12
:1028D800722C9331072394313D001010901EA92CBF
:1028E80001302000E3000030E4006408803AFF0073
:1028F80080307F02031D822C023063020318A72C4C
:1029080098302000DC000E30DD0063085C07DE0034
:1029180064085D3DDF005E08E0005F08E1006008D4
:1029280086006108870001100130E3070030E43DAC
:102938006408803AFF0080307F02031DA52C023016
:102948006302031C842C3D009012901D452D0F0C32
:102958002000DC00DC0C5C0C0F390038031DDA2C7D
:102968003D000F19DA2C2000200C890C0F39DC00EF
:102978005C08E20062080D3A031DC62C9E316826E9
:102988009431D62C20006208093A0319D62C620823
:10299800013A031DD32C96316C269431D62C9C31E8
:1029A8004C2494319C3142249431432D3D000F0C2A
:1029B8002000DC00DC0C5C0C0F390038031DEB2C0C
:1029C8003D000F1DEB2C9531E0259431432D3D0042
:1029D8000F0C2000DC00DC0C5C0C0F39003A0319EA
:1029E800432D3D000F0C2000DC00DC0C5C0C0F3983
:1029F800DD0002305D020318432D3D000F1D242D1C
:102A080007302000DC005C08F1003D000F0C2000BE
:102A1800DD00DD0C5D0C0F399C31A7249431063E96
:102A2800A03E86008701811C432D3D000F0C20002D
:102A3800DC00DC0C5C0C0F399D31B8259431432D3A
:102A480007302000DC005C08F1003D000F0C20007E
:102A5800DD00DD0C5D0C0F399C31A7249431063E56
:102A6800A03E86008701011C432D3D000F0C20006D
:102A7800DC00DC0C5C0C0F399C31EF2494313D00F8
:102A88009011101B10132000121D080012110800CD
:102A9800003020003302083003193202031C592D7C
:102AA8000830B8000030B9005F2D3308B901B90704
:102AB8003208B801B8073808B6003608BE003E0824
:102AC800B600B70135083702031D6C2D34083602ED
:102AD800031C752D3508BB01BB073408BA01BA07BA
:102AE8007C2D3E08B600B7013608BA003708BB008F
:102AF8003A08B6003608BE0035083302031D862D95
:102B0800340832020030031C0130B60036082100B8
:102B1800BB003108F201F2073008F101F10720008B
:102B28003108F401F4073008F301F3073E08B60052
:102B3800B7013608F5003708F6009D318B25953129
:102B480020003E08B600B701360830072100B4005F
:102B580020003708313D2100B50020003308350238
:102B6800031DB82D32083402031CBF2D3308BD01E4
:102B7800BD073208C32D3508BD01BD073408BC01A7
:102B8800BC073E08B600B701B609B709B60A03196B
:102B9800B70A3C083607ED003D08373DEE00210036
:102BA800B21520003E08B600B7013608F70037080E
:102BB800F8009D3164250800210037080319E92D24
:102BC80036083D0096002100B70120006E086D040C
:102BD8000319482E00306E02083003196D02031CD9
:102BE800FA2D0830B2000030B300002E6E08B30191
:102BF800B3076D08B201B2073208B0003008B4005C
:102C080021003108F201F2073008F101F107350817
:102C1800F401F4073408F301F30720003408B00086
:102C2800B1013008F5003108F6009D318B2595314A
:102C380020003408B000B1013008ED023108EE3B45
:102C48003408B000B10130082100B4072000310871
:102C58002100B53D20006E086D04031D3D2E34088B
:102C6800083A031D3D2E21003B0803193D2EB801EB
:102C7800B80A20003408B000B1013008F700310864
:102C8800F8009D3164250800210038080319582EE2
:102C98000030F7000030F8009D316425953121009F
:102CA800B8019C31392408002100B908031D080027
:102CB80020006F080319692E8001800A7C08B00083
:102CC800300881006F089631682E9C31392408003D
:102CD80020002108B0003008B40021003908013A6A
:102CE800031D862E20006F080319832E8001800A99
:102CF8007C08B000300881006F089631822E9C3124
:102D08003924080021003A08031908002000340873
:102D1800B000B1016E083102031D942E6D08300217
:102D2800031C9D2E6E08B301B3076D08B201B207EC
:102D3800A42E3408B000B1013008B2003108B30045
:102D48003208B0003008B50021003A08F100003020
:102D5800F2002F08F401F4072E08F301F30720000E
:102D68003508B000B1013008F5003108F6009D3192
:102D78008B25963120003508B00030082100BA07AD
:102D880020003508B000B1013008ED023108EE3BF3
:102D980008303402031CD62E6E086D040319D62E93
:102DA80021000800340835020318ED2E9C314C240C
:102DB800963120006F080319E92E80017C08B000C5
:102DC800300881006F089631E82E9C3139242100A3
:102DD80008009C31312421000800200045088600A5
:102DE8004608870044310108C7004708CC00450859
:102DF80086004608870041310108063A031D742FF2
:102E080045088600460887000108813A031D742F8B
:102E180045088600460887004231403FC700413FC9
:102E2800C8004808C9004908CD00FF30CE00FF306F
:102E3800CF004D08213A031D2F2F5030C7004708F7
:102E4800F1004C089C318724963172082000CF018C
:102E5800CF077108402F4D08223A031D422F5030EA
:102E6800C7004708F1004C089C316024963172086D
:102E78002000CF01CF077108CE01CE07CF1F462F04
:102E8800FF30080045088600460887004631403F65
:102E9800C700413FC80048084F02031D552F470887
:102EA8004E02031C612F45088600460887004631FC
:102EB800403FCA00413FCB00672F4F08CB01CB07EB
:102EC8004E08CA01CA074B08C001C0074A08BF011B
:102ED800BF07C101C20150089D31282500300800F4
:102EE800FF30080000340934023429340034013436
:102EF800013400348034323409340434003400346A
:102F080002340334003400340034093421340134E9
:102F180001340034013422341C34003407340534BD
:102F28008134033440340034013407340534013427
:102F3800033440340034013406340034FF34093497
:102F48000134A1340134193401342934403415349E
:102F58000134253440347534083495344034813490
:102F68000034193401342934403491340034C034E5
:102F7800123401340034023400340034003408348C
:102F8800D83404343F340034033400340134023478
:102F9800003401340E34033463340034753400349F
:102FA80073340034743400346F3400346D340034B6
:102FB8000A34033441340034633400346D3400344B
:102FC80065340034043403340934043400340034E0
:102FD8000034003400340034003490342034D034C9
:102FE8002034403440340034803420348834203451
:042FF80000347734F6
:10384E0021003C0808000830F10071082000A50096
:10385E00A40108002000A401A501C830F1007108E0
:10386E00A40008002100B401B501BA012000ED0149
:10387E00EE01EF0108000830F10071082000A100F0
:10388E008030F1007108A00008000830F1007108C6
:10389E002000A5008430F1007108A400080020006B
:1038AE005208C601C6075108C501C5079631F12653
:1038BE000800A030F30071088600870173088100AC
:1038CE001C30F1000030F2000800FE0012001E0055
:1038DE000130FE020030FF3B7F087E0403190034E6
:1038EE006D2CF6000730F5007508F10076089C3156
:1038FE00A724063EA03E8600870101080239080073
:10390E008930F3007308F4007408F3007108860020
:10391E008701730881000930F1000030F2000800C1
:10392E00F2007235F1000130F135FF3E031D9B2C84
:10393E007135203E860087010030811F013008005E
:10394E00F400F301741CAF2C7108F2007208F30737
:10395E000310F10D0310F40CF408031DA92C7308C9
:10396E000800F2007235F1000130F135FF3E031D03
:10397E00BC2C7135043E203E86008701010D010DE1
:10398E0001390800F8000730F7007708F1007808D1
:10399E009C31A7249C31023EA03E86008701403F09
:1039AE00F500413FF6000800F7000730F6007608F4
:1039BE00F10077089C31A7249C31A03E8600870138
:1039CE00750884008501403F803F413F813F0800DC
:1039DE00F3007335F1000230F135890BF32C710AC7
:1039EE00203E8600870181018430F1007335F2009C
:1039FE000130F235FF3E031D002D7235203E86004C
:103A0E008701710881000800F501F601711C132D64
:103A1E007308F5077408F63D0130F335F40D890B84
:103A2E00142D0130F236F10C890B192D7208710428
:103A3E00031D0D2D7608F201F2077508F101F1074D
:103A4E0008002000C4004108C3004308EF004208EC
:103A5E00C3004308FC004408B0009730B100400892
:103A6E00B301B3073F08B201B2074008B501B5076D
:103A7E003F08B401B40795314C2508007208F901CE
:103A8E00F9077108F801F8070130F5020030F63B2E
:103A9E00FF307606031D552DFF30750603190800FD
:103AAE007308F70078088600790887007708810088
:103ABE000130F8070030F93D4B2D00309C31782451
:103ACE009D310038031D080000302100B21901306D
:103ADE00F9007908FA002000A4017A0803197D2D57
:103AEE007708F9007908A500C830822D7708F9000B
:103AFE007908A5008830F9007908A4000830F9008B
:103B0E0079082100B20608007408FB01FB07730850
:103B1E00FA01FA077208F901F9077108F801F807B6
:103B2E000130F5020030F63BFF307606031DA12D65
:103B3E00FF307506031908007A0884007B0885009B
:103B4E000008F7007808860079088700770881005A
:103B5E000130FA070030FB3D0130F8070030F93D27
:103B6E00972DF8000730F5007508F10078089C31A4
:103B7E00A7249D31053EA03E860087010108F60070
:103B8E007835F7000130F735FF3E031DCA2D773526
:103B9E00053E203E86008701760881008430F500C0
:103BAE007835F6000130F635FF3E031DDA2D7635F9
:103BBE00043E203E86008701750881000800F4004F
:103BCE00F408031DF62DE630F30071088600870118
:103BDE00730881000430F1000030F2000800740810
:103BEE00013A031D062EDC30F300710886008701B2
:103BFE00730881000A30F1000030F20008007408EA
:103C0E00023A031D162ECE30F3007108860087018E
:103C1E00730881000E30F1000030F2000800FF3012
:103C2E00F100FF30F200080078082000BD01BD074A
:103C3E007708BC01BC0720303D02003003193C025E
:103C4E00031C302E3D08F801F8073C08F701F70772
:103C5E0008003D08B0003008BA003C08B00030083B
:103C6E00BB003B088039B000B1013A08B200B30185
:103C7E00B235B30D30083207B4003108333DB5000C
:103C8E00350834040030031D0130B600B701360884
:103C9E00F1003708F2005030F3000030F4009D318F
:103CAE000B2520003B087F397107B80072080318F6
:103CBE00720AB9003808E03EF7001F30393DF800AF
:103CCE00080021002F082000DB01DB0721002E0851
:103CDE002000DA01DA075A0886005B0887000030F8
:103CEE00811B01302100B9009C312A249E31200015
:103CFE006E086D040319912E6F0803198E2E800124
:103D0E007C08D800580881006F089E318D2E9C319A
:103D1E0039249E3120005A0886005B088700010E68
:103D2E00890C03390038031DA52E90312B209E31AE
:103D3E002000D8005808D900D91FB62E5B08D20132
:103D4E00D2075A08D101D1079C3156249E3120004A
:103D5E00D8005808D900D91FB62E9C314C243D00EE
:103D6E000E1208002000B10021003C0803190800C3
:103D7E00200031089C3178249E3100380319C92E59
:103D8E002100080020003135F9000130F935FF3EE1
:103D9E00031DCD2E7935043E203EFA007A08B2007E
:103DAE000730F9007908F10031089C31A7249E31C3
:103DBE00063EA03E86008701003081190130FA00D0
:103DCE007A082000B0003208860087018101300891
:103DDE000319FA2E7708F900320A8600870179084E
:103DEE008100C830022F7708F900320A8600870159
:103DFE00790881008830F900320886008701790839
:103E0E0081000830F9000730FA007A08F100310815
:103E1E009C31A724063EA03E8600870179088106C4
:103E2E0021000800F9000730F5007508F100790847
:103E3E009C31A7249F31063EA03E860087010030AC
:103E4E0001190130F6007608F80078080319532F8F
:103E5E000730F5007508F10079089C31A7249F31D1
:103E6E00043EA03E860087010108F6007935F70072
:103E7E000230F735890B402F770A203E86008701E6
:103E8E0076088100C830F5007935F6000130F63538
:103E9E00FF3E031D4E2F762F0730F5007508F100FB
:103EAE0079089C31A7249F31043EA03E86008701ED
:103EBE000108F6007935F7000230F735890B642FCB
:103ECE00770A203E86008701760881008830F5004B
:103EDE007935F6000130F635FF3E031D722F76352B
:103EEE00203E86008701750881000430F5000730FA
:103EFE00F6007608F10079089C31A724063EA03E14
:103F0E00860087017508810608002000E8019331BC
:103F1E0007239F3101309C31C9249F317608200040
:103F2E00EA01EA077508E901E90794316A249F312D
:103F3E009C3127249F31003803199C2F01309C316E
:103F4E0078249F310038031D9C2F01309C31B824FA
:103F5E009F31003A031D9C2F01309C3197249F31D5
:103F6E00003803199C2F6B302000E5006508F50022
:103F7E0001309C31DB249F3120006B0886006C08D9
:103F8E0087000108E500690886006A088700650851
:103F9E008100ED2F0130E5006508E807FA2F68086B
:103FAE00E5006908013EE60000306A3DE70066085C
:103FBE00860067088700650881004030F7000030F2
:103FCE00F80001309E31B9269F31FA2F20006B0880
:103FDE0086006C0887000108803A0319D12F013A38
:103FEE000319D62FFA2F01309F3119279F319C2F9D
:00000001FF
